:020000040800F2
:10000000F8770010F50200088B260308792603080C
:100010008D26030899260308A52603080000000082
:10002000000000000000000000000000B1260308EE
:10003000B3260308000000004135030879350308A2
:1000400089010008332703083D27030845270308D3
:1000500019A8030889010008C1260308C726030858
:10006000CD260308D3260308D9260308B553030871
:10007000C5530308D5530308E5530308F553030894
:100080000554030815540308890100088901000874
:100090009D730308A3730308A9730308DF260308ED
:1000A000592703085F2703087127030877270308E8
:1000B0007D2703088327030889270308E32703080C
:1000C000E9270308EF270308F5270308890100083B
:1000D00089010008BF270308C5270308CB270308A9
:1000E000032703083727030889010008890100084E
:1000F000B527030889010008BB2703088901000808
:100100008901000889010008912703088901000876
:10011000D1270308D7270308A9270308AF27030817
:10012000255403083554030845540308555403085F
:100130006554030889010008890100088901000845
:10014000890100088901000889010008B526030813
:100150007554030885540308DD2703088901000846
:10016000FB2703080128030889010008890100080A
:1001700089010008890100088901000800000000C9
:08018000890100088901000853
:10018800FEE700000E4AD2F8883043F47003C2F844
:1001980088300C4B1A68002142F001021A609960FD
:1001A8001A6822F0A85222F410221A604FF48052E2
:1001B800DA601A6822F480221A609961704700BFD9
:1001C80000ED00E0001002402DE9F041BAB0102225
:1001D80000213F4D03A827F0ADFB2422002108A8E9
:1001E80027F0A8FBD5F8903023F01803C5F8903015
:1001F8001423079360230F930F23012402260293ED
:100208004FF00708282307A80D9412940994119613
:100218001394CDE91438CDE916662BF0CFFF10B151
:100228002C4831F0DDFE149B1399DB00B3FBF1F38E
:100238003021B3FBF1F201FB123200321599B3FB06
:10024800F1F118BF012202A833F07EFA074608B17F
:100258002148E6E72CF0EAFD204B18934FF0805335
:1002680036934FF08063339335934FF4807339930B
:100278001823CDE91B3818A8194B2C97CDE9194438
:100288003197CDE91D661F932CF0E6FB044608B1B3
:100298001448C6E7AB6D43F08053AB65AB6D03F014
:1002A800805301934FF40070019B2BF07BFE2CF0E0
:1002B800A1FA4FF47A73B0FBF3F029F059FB04204C
:1002C80029F06CFB084B83F823403AB0BDE8F08175
:1002D800001002408CC803089EC803084068060046
:1002E80000001101B2C8030800ED00E00446DFF881
:1002F8002CD00B490B4A0C4B03E051F8040B42F885
:10030800040B9A42F9D300200849094A01E041F850
:10031800040B9142FBD3204631F0B8BFF8770010A8
:10032800341D0508000000204C0400204C04002067
:100338000428002040F8044B40F8045B40F8046BA4
:1003480040F8047B40F8048B40F8049B40F804AB69
:1003580040F804BB40F804CB40F804DB684670471B
:10036800024B5A690260586100207047E41F002060
:10037800024B5A6912685A61704700BFE41F002097
:10038800024B9A69C0E9002198617047E41F002078
:10039800044A93691968916110B15A681846104760
:1003A800704700BFE41F002038B5054D0446AB690F
:1003B8000BB1A34200D338BD0120FFF7E9FFF6E7F0
:1003C800E41F0020C460056146618761C0F81C8095
:1003D800C0F82090C0F824A0C0F828B0C0F82CD0ED
:1003E80080ED0C8B80ED0E9B80ED10ABC0F808E023
:1003F800FFF7B6BF124D6C6908B50CB931F032FF82
:1004080060602046FFF7D0FF23686B612046C46810
:10041800056946698769D0F81C80D0F82090D0F823
:1004280024A0D0F828B0D0F82CD090ED0C8B90ED0B
:100438000E9B90ED10ABD0F808E00120704700BF8C
:10044800E41F002010B50021044600F001FB18B994
:1004580014B120460DF042FB10BD002100F0F8BA9F
:1004680010B50121044600F0F3FA18B914B120467A
:100478000DF034FB10BDFFF7E5BF10B501220C46A7
:1004880000F026FC18B914B120460DF027FB10BD6A
:1004980000F01EBC00F0B0BB2DE9F0412A4C00254D
:1004A8000326D4F894720021013143189A0803F006
:1004B8000303BA5C5B0042FA03F303F00303022B65
:1004C800F2D0D4F8A03209018F0803EB001089B3E9
:1004D80000EB870703681A0729D1D4F8A0125A1A23
:1004E8004FEA121E4FEA921C99420EF003024FEA9D
:1004F80042021CD8D4F8A412994218D9D4F894828C
:1005080018F80C1041FA02F303F0030306FA02F29A
:10051800012B42EA01020AD104EB45013F2D08F8FC
:100528000C209ABF0135A1F8B0E2C4F8AC3204300F
:10053800B842CFD12DB1013D04EB4503B3F8B00269
:10054800AFE7BDE8F08100BFE41F0020F0B4194E0A
:10055800D6E9A753C01AC10904096B5C04F0070760
:100568000122BA4023EA02036B54D6F8A832D6F81F
:1005780094528009984238BFC6F8A802295C04F052
:100588000303A00803275B0007FA03F321EA030328
:100598002B540134D6F89452A00804F00303295CC4
:1005A8005A0041FA02F202F00302022AEBD0F0BC30
:1005B800704700BFE41F0020F8B521F00F052A1A84
:1005C80002F10052013A1449144CD300A1FB032351
:1005D8005B0A9A00591C073201EBD2020144A5EBD1
:1005E8008317C4F89C120021C4F89832C4F8A0728A
:1005F800C4F89402C4F8A45227F09CF900230121FE
:100608004FF0FF32A4F83013C4F83823C4F8A832E6
:100618002381C4F83433F8BDF32C23FAE41F0020F7
:10062800024A138901331381704700BFE41F002079
:10063800024A1389013B1381704700BFE41F002061
:10064800024B1889003018BF01207047E41F0020B2
:10065800F8B51C4C2389002201332381C4F83423C4
:10066800C4F8AC2204F1080504F5F476032755F81C
:10067800042F130719D1D4F8A012501A4FEA901C6E
:10068800000900F003038A424FEA43030DD3D4F86C
:10069800A4128A4209D2D4F8941211F80CE04EFA46
:1006A80003F202F00302012A02D0AE42DFD1F8BD04
:1006B80007FA03F343EA0E0301F80C30FFF7ECFEE8
:1006C800F3E700BFE41F002079B3F8B5041F174E05
:1006D80004EB8105032754F8043F1A0719D1D6F80B
:1006E800A012581A4FEA901C000900F00302994220
:1006F8004FEA42020DD8D6F8A412994209D9D6F881
:10070800941211F80CE04EFA02F303F00303012BE4
:1007180002D0A542DFD1F8BD07FA02F242EA0E0282
:1007280001F80C20FFF7B8FEF3E77047E41F00203C
:100738002DE9F04F824CD4F89832D4F8AC2285B029
:100748009B00002A00F0858000260325C4F8AC62CF
:10075800002B6AD0002102E00131994274D2D4F80A
:100768009472880801F00302385C520040FA02F2E1
:1007780002F00302032AEFD18C4600230022013243
:1007880002EB0C004FEA900E00F0030017F80EE0A1
:1007980040004EFA00F000F003000228EFD0D4F831
:1007A800A00212014FEA920E00EB0C10A2B300EB6C
:1007B8008E0ED0F8009019F00F0F2AD1D4F8A0723D
:1007C800A9EB070C4FEA9C184FEA1C1C0CF003021B
:1007D800B9454FEA42021CD3D4F8A472B94518D2DD
:1007E800D4F8949219F808A04AFA02F707F0030718
:1007F80005FA02F2012F42EA0A020AD104EB430A7F
:100808003F2B09F808209ABF0133AAF8B0C2C4F8F0
:10081800AC7204307045CCD183B1013B04EB430288
:10082800D4F89472B2F8B0C2A8E723890022013B39
:100838002381C4F8A82205B0BDE8F08FD4F8983217
:1008480001319B0099428AD3D4F8AC22002A7FF464
:100858007DAF002BE9D04FF0000E76464FF003092C
:100868004FF00108022704E0012A2FD001369E42EA
:10087800DBD24FEA960AD4F894C206F003051CF8B6
:100888000A106D0041FA05F202F00302022A0CEB8D
:100898000A000DD0032AE7D107FA05F521EA050574
:1008A8000CF80A50D4F898324FF0000E9B00DDE7A0
:1008B800BEF1000FDAD009FA05F521EA0505057041
:1008C800D4F898324FF0010E9B00CFE7F308D4F824
:1008D8009C22019312F803C006F0070B4CFA0BFE9A
:1008E8001EF0010F1A44E6D03001D4F8A01251F8D6
:1008F80000E00844BEF1000F14D002AAB2210CF0A7
:10090800A3FADDE9013242B10DF040FBDDE9020155
:100918000DF00CFB0DF050FB019BD4F89C2212F853
:1009280003C01A4408FA0BFB2CEA0B0C82F800C02F
:10093800D4F8943203EB0A0013F80A10BBE700BF9F
:10094800E41F0020044B1A89002101321A81C3F8E0
:10095800AC12FFF7EDBE00BFE41F00203B4BD3E90C
:10096800A8122DE9F047D3E9A5760023C0E90133A1
:10097800C0E90333C0E90533521A02601D46B600C8
:100988009E469C461C461A4699461946984617F8AC
:10099800093049000B4103F00303012B47D0002B1A
:1009A8003DD0022B02D10135456001340132964217
:1009B8000ED04FEA920902F0030117F809304FEA06
:1009C800410A43FA0AF313F0030301D0012BDED1E5
:1009D800012C11D0022C02D1416901314161816998
:1009E800A14238BF846196420FD0012B23D04FEA31
:1009F800920902F00301CAE70169013101618169C5
:100A0800A14238BF84619642EFD1C44516D99642B7
:100A1800C0F80CC012D0E0464FF0000CE7E70EF12A
:100A2800010EC0F808E00CF1010C1C46BEE70135C8
:100A380045601C46BAE7E045EED2E8E72D014FEAEB
:100A48000E13C0E90153BDE8F08700BFE41F002082
:100A58000F302DE9F047060950D0664D2B89002B41
:100A68004CD1B5F83033002B0C460CBF4FF0010EBB
:100A78004FF0000E47D1D5F8A802D5F898728742F2
:100A880039D9D5F894C2411E614400221AE00132D6
:100A9800964253D913F00C0F1ED10132964240F200
:100AA800A08013F0300F1CD10132964240F29C8096
:100AB80013F0C00F1AD10132964240F298800130EB
:100AC800B84218D211F8013F13F0030FDFD013F02A
:100AD8000C0F4FF00002E0D013F0300F4FF000027F
:100AE800E2D013F0C00F4FF00002E4D00130B8425A
:100AF8004FF00002E6D3BEF1000F14D04FF000080B
:100B08004046BDE8F087D5E9CD239A42B3D337F004
:100B180059FDD5F8A802D5F89872874288BF4FF0DA
:100B2800010EAED8EAE737F04DFDD5F8A802D5F8A2
:100B3800987287424FF0010EA3D8DFE78000811A30
:100B4800012A01F1010703D1431C9B08C5F8A8320B
:100B58004FEA970E07F003034FEA43081CF80E907C
:100B6800012303FA08F3023143EA090388420CF827
:100B78000E3013D34FF002084FEA910CD5F894E2E7
:100B880001F003031EF80C905B0008FA03F301312F
:100B980043EA090388420EF80C30EDD2D5F8A0A23A
:100BA800D5F834334FEA07190AEB09081E44120135
:100BB80040460021C5F8346326F0BCFEE3079FD504
:100BC8000023D5F89C124AF80930FA080123885CFA
:100BD80007F0070703FA07F707438F544046BDE8B5
:100BE800F08780000130AAE780000230A7E7800084
:100BF8000330A4E7E41F0020F0B41A4E33897BBB0E
:100C080070B3D6E9A753C01AC10904096B5C04F094
:100C180007070122BA4023EA02036B54D6F8A82238
:100C280083099342D6F8940238BFC6F8A832C15C4B
:100C3800A50804F0030303275B0007FA03F321EA7E
:100C4800030343550134D6F89402A50804F00303BE
:100C5800415D5A0041FA02F202F00302022AEBD087
:100C6800F0BC7047E41F002010F00F030DD11749A6
:100C7800D1F8A022824208D810B4D1F8A442844204
:100C880005D818465DF8044B704700207047801A55
:100C9800D1F8944281090209615C02F00300400026
:100CA800014101F0030101291846EBD10130131865
:100CB800990803F00303615C5B0041FA03F303F056
:100CC8000303022BF2D00001DCE700BFE41F002081
:100CD8002DE9F84F0B460746002800F0A480564D32
:100CE8002C89002970D0002C70D1D5F8A002D5F835
:100CF8009832381A4FEA101C0CF1010E4FEA83099A
:100D080001F10F06F1454FEA161640F29280D5F828
:100D180094A24FF001084FEA9E0B0EF003031AF855
:100D28000BB05B004BFA03F303F00303022B51D023
:100D380023B9013408EB0403B3424DD346453FD0F1
:100D480020D34444B4424CD2002A3FD0C009D5F83D
:100D58009C321B5C0CF0070C43FA0CFC08460CF0A8
:100D68000101FFF775FE044680B34FEA08123946C1
:100D780026F09CFD2B8923BB3846FFF7E7FB20466E
:100D8800BDE8F88F66443046C4444FF003094FEA83
:100D9800900ED5F8941200F0030311F80E405B0092
:100DA80009FA03F3013024EA0303604501F80E3021
:100DB800EDD1D5F8A832B6089E4238BFC5F8A8626A
:100DC8003C462046BDE8F88F002CD6D000242046AB
:100DD800BDE8F88F08F101080EF1010EF1459AD12E
:100DE800ACE70CEB0802B444944510D902219008F2
:100DF800D5F8944202F0030314F800E05B0001FA0E
:100E080003F3013243EA0E0394452354EFD1A6EBD2
:100E18000802120107EB081000213C4626F08AFD63
:100E28002046BDE8F88F01461846BDE8F84FFFF7A1
:100E38000FBE4FF0010881E7E41F002010B58AB00B
:100E4800044603A8FFF78AFD059B00932046DDE9C9
:100E58000323074900F014FF069A099B01920093A7
:100E68002046DDE90723034900F00AFF0AB010BD58
:100E780014C9030838C903082DE9F84FDFF854B13D
:100E88004849DBF8A022074600F0FAFEDBF8982272
:100E9800920073D0DFF84081DFF840A1DFF840917D
:100EA80000250CE0012E45D02E223F49384600F09F
:100EB800E7FEDBF8982201359200AA425ED905F0D8
:100EC8000306A8064FEA4606DBF894120BD0AB08D7
:100ED800CB5C43FA06F606F00306022E28D0032E52
:100EE800E0D16D22E1E72C46A00804F00303085C7A
:100EF8005B0040FA03F39B0702D101349442F3D319
:100F0800621B7F2A0CD992095146384600F0B8FE78
:100F1800DBF8983224F03F05B5EB830F2ED200267C
:100F280041462A01384600F0ABFEDBF89412CEE7C2
:100F38003D22BAE7DBF8A0222B01D2584A4523D03C
:100F48001A4B9A4222D01A4B9A4225D0194B9A42F0
:100F58001ED0194B9A421BD0184B9A421AD0184BE4
:100F68009A4217D0174B9A4218D0174B9A4217D06B
:100F7800164B9A420CBF4D22682296E73846144910
:100F8800BDE8F84F00F035BB54228EE74C228CE7C1
:100F980053228AE7412288E7442286E7462284E7EB
:100FA800422282E7CCC8030810C90308203F04087E
:100FB800F4350408744A0408C0480408E8320408F0
:100FC8009C320408243B0408783B0408B440040815
:100FD800E8C80308E41F002008C90308ECC8030890
:100FE800F44B0408054B02685B6A59688A4203D3CC
:100FF800521A0260184670471B68F6E7E41F002083
:10100800014441F20553884204D398B2002808BF2E
:101018000120704710F8012B03EB43135340F2E70C
:10102800034B044A5A620022C3F8EC21704700BF00
:10103800E41F0020807E04082DE9F04780460E4614
:10104800FFF7DEFF124B5C6A07460CB920461AE030
:10105800D4F80C90002504F1180A4D4501D12468F4
:10106800F3E7236933F81530BB420ED163695B5D42
:10107800B3420AD1324641465AF8250026F070FCA0
:1010880018B960682844BDE8F0870135E5E700BF76
:10109800E41F00202DE9F84381460E46FFF7CCFFF8
:1010A8000246002840F08B80FF2E03D94549464868
:1010B8000BF04CFF454CD4F8EC01751C90B1D4E909
:1010C8007C132B448B4229D92944FFF7E1F90746C1
:1010D800D8B90246D4F8F411D4F8EC01FFF7D8F9DE
:1010E800C4F8EC71802D2F4638BF80273846FFF7AB
:1010F800B4F9C4F8EC01D0BB2846FFF7AEF9C4F840
:10110800EC0198BB28460CF0E9FCD4F8F0312B44EC
:10111800C4F8F031D4F8EC31002BE3D0D4F8F43132
:10112800D4F8EC711D44314648461F44C4F8F451C4
:10113800FFF766FF49468046324638464FF00009B9
:1011480026F0B4FB07F80690636AD3E90253AB4272
:1011580025D36D000A2D38BF0A25C5EBC500183008
:10116800FFF77BF948B9C4F8EC01CBE72F46002319
:10117800C4F8F071C4F8F431D0E700F11803626ADA
:10118800026003EB8503036103EB45034361536886
:10119800D268C0F80C901344C0E901356062636AF4
:1011A800D3E903215B6921F812809E54911D636A7B
:1011B80043F82170D96858680131D9600244104653
:1011C800BDE8F88393F4030878390408E41F002085
:1011D80010B5044626F0E6FB01462046BDE810405F
:1011E800FFF758BF07B5019001A8FFF7FBFE019A6A
:1011F800036933F8120003B05DF804FB07B50190EA
:1012080001A8FFF7EFFE019B4269D05C03B05DF8CF
:1012180004FB07B5019001A8FFF7E4FE019B063324
:1012280050F8230003B05DF804FB13B5019001A842
:101238000C46FFF7D7FE019B4269D25C2260063359
:1012480050F8230002B010BD2DE9F8431D460023D5
:1012580003600B6013602B60164BDFF85C905C6AD0
:101268000746884616460CB14C4505D12B683268AE
:1012780013442B60BDE8F8833B6801333B60E268A8
:10128800D8F800301344C8F800306269E368D11810
:101298008A4207D32046FFF7E7FC2B6824681844E6
:1012A8002860E0E7336812F8010B01330344336028
:1012B800EEE700BFE41F0020807E04082DE9F84314
:1012C8000D4B0E4F5C6ADFF83880DFF838900CB1B0
:1012D800BC4201D1BDE8F883E36804F1180505EBC9
:1012E8008306B54201D32468F1E755F8042B41463B
:1012F800484600F0C5FCF4E7E41F0020807E04089F
:101308008CF40308781D040830B50023202411F854
:10131800012F0AB9027030BD120600F101051FD570
:101328000BB1047028460B78124A03F07F036BB99F
:10133800013A12F8013F13F0800F054600F1010051
:101348000BD003F07F032B700123E0E712F9015B58
:10135800002DFBDA013BDBB2E9E700F8013CE8E7E6
:10136800012B04BF047028460B7800F8013B0223C8
:10137800CDE700BF7DC9030838B5446803680C444D
:101388009C4205460FD9037B1BB1002106480BF090
:10139800DDFD103424F00704083421468068FFF787
:1013A8006CF82C60A86038BD7839040870B504461C
:1013B8000E4611461546FFF7DFFFD4E901302A46ED
:1013C8003146184426F09EFA62682A44626070BD6D
:1013D80070B5466804468E42354628BF0D46012141
:1013E800FFF7CAFFA368681C5919721B184426F036
:1013F80089FA6368A06801336360284470BD38B512
:101408000446081E08BF0120002520606560FFF71C
:1014180019F82573A06038BD38B505460C4601316A
:10142800FFF7EDFF6C6038BD0023C0E901320123EE
:10143800016003737047000038B514460546FFF78E
:10144800DEFF024B2560636038BD00BFB51300089E
:10145800037B10B5044613B98068FFF71BF8002317
:10146800A36010BD38B505461020FEF7EBFF2946EE
:101478000446FFF7C4FF204638BD10B5044648B1FE
:10148800037B13B98068FFF705F82046BDE81040D4
:10149800FFF700B810BD000038B5037B04460D46C1
:1014A8001BB1002106480BF051FD016880682944F2
:1014B800FEF7E3FF2368A0601D442560184438BD8B
:1014C8007839040838B504460D46FFF755FFD4E9C6
:1014D80001301D446560184438BDD0E900239A42A4
:1014E80010B5044602D10121FFF7D6FFD4E9013235
:1014F8000021D154A06810BD10B50C460121FFF79A
:10150800E1FF047010BD7F29F8B50C46CEB204D8AF
:101518000121FFF7D7FF0670F8BD06F03F06B1F5C9
:10152800006FC1F3871546F0800607D20221FFF746
:10153800C9FF65F03F0505704670EDE705F03F050A
:10154800B1F5803FC1F3073745F0800508D2032184
:10155800FFF7B8FF67F01F03037045708670DBE77D
:101568000421FFF7AFFFA40C07F03F0364F00F045A
:1015780063F07F03047043708570C670CCE738B59C
:10158800054608460C4626F00DFA2146024628462E
:10159800BDE83840FFF70ABF10B51446FFF718FF3B
:1015A800047010BD10B51446FFF712FF047010BD8B
:1015B80043688B422CBF5B1A00234360704738B5E1
:1015C800154642688A4204460B4603D929448A4292
:1015D80001D8436038BD8068521A0144184426F087
:1015E80091F96268521B6260F4E70846114627F0D9
:1015F8002FB970B5054608460E4626F0D3F90446BD
:1016080020B102466B68286831469847204670BD6D
:101618002DE9F74F01919DF8301091460D9A11F080
:10162800DF0F0646A2EB09023DD030290CA9244F52
:101638000EBF4FF010080F464FF0010813F080045A
:1016480035D002EBD2746410151B002C36DDA2468F
:10165800D045C346A8BFD346736830685A46394652
:10166800AAEB0B0A9847BAF1000FF1DCB9F1000FA9
:1016780005D07368019930684A4698474C44002D54
:101688000DDD2C44A845C146A8BFA946736830683B
:101698004A463946A5EB09059847002DF2DC204655
:1016A80003B0BDE8F08F074F4FF01008C6E713F0FE
:1016B800010501D11446C8E71546D7E70024D5E748
:1016C8009C1D04088B1D04082DE9F04389B00746CA
:1016D8000020119D9DF84880139E8DF80F0002B3DD
:1016E800814219DA2D228DF80F204942109A08AC50
:1016F800A2F10A000DF1100EB1FBF3FC03FB1C1262
:10170800092A8CBF1218303204F8012D74450FD005
:101718008B420DD86146EFE7A80727D52B228DF815
:101728000F200029E2D130238DF81F300DF11F045E
:1017380015F040099DF80F301CD023B30122CDE9E4
:1017480000822B460DF10F013846FFF761FF013E7D
:10175800814608AACDE900862B46121B2146384649
:10176800FFF756FF484409B0BDE8F0836A07D8D5AB
:101778002022D4E7002BECD004AA9442E9D904F83B
:10178800013C013CE5E79946E3E700002DE9F04F0D
:1017980093B080461E46C8079DF874301C9D06937A
:1017A8000C469146DDE91E7A0BD4A10703D12268C5
:1017B800794B9A4205D020460DF010FA400040F0CF
:1017C800010415F0810306D1069A302A03D1574542
:1017D800B8BF57469A46204610F056FB00280DF130
:1017E800280B18DBAA0712D52B238DF828300DF10A
:1017F8002903E806F6B21DD5B9F1020F0DD11A4634
:10180800302102F8021B711C5970134612E06B0755
:1018180001D52023E9E75B46EBE7B9F1080F60D172
:10182800A9054FF030021A7045BF06F10E025A7032
:1018380001330233002215F0200F1A70A3EB0B03BB
:1018480005930EA90CBF13462C23BAF1010F0B9177
:10185800C8BF45F040051021CDE90C1215F0400134
:101868008DF827200791CDE9026344D0CDE9009295
:1018780023460DAA0CA90BA810F0E2F903782D2B2A
:10188800814606D18DF827300D9B013B00F10109F7
:101898000D93BAF1010F3CDD0D9C079B5445B8BF71
:1018A80054462BB19DF8273003B10134059B1C44E5
:1018B800A7422BDD15F00103A7EB040427D1264628
:1018C8001C4625F001054EB1202300930023019604
:1018D8001A4632494046FFF79BFE064630230693D8
:1018E80019E0B9F1100FA5D11A46302102F8021BF0
:1018F80006F1170188E70AABCDE900930DAA234644
:101908000CA90BA810F09CF98146C2E70024002618
:10191800D7E700242646079BDBB19DF8273053B153
:1019280000230122CDE900320DF127014046FFF7DF
:101938006FFE013F0644059B5BB100230122CDE900
:1019480000325946059A4046FFF762FE059B064459
:10195800FF1A069B0093BAF1010FC8BF57460197BB
:101968002B460D9A49464046FFF752FE06444CB1B5
:1019780020230093002301941A4608494046FFF7A4
:1019880047FE06440B980EAB984201D0FEF782FD45
:10199800304613B0BDE8F08FD03D04089CB304086E
:1019A8002DE9F04316468BB0B20780469946129F40
:1019B8003CD416F0040F0CBF0023202300930A46E2
:1019C800139B202102A80AF0DDF9F30504460DD582
:1019D800431C1F2B0AD80AAA1444252204F8202CD9
:1019E8000AAA1A44002102F8201C1C4616F04005D9
:1019F8001ED09DF808302F2B4FF000031AD8012273
:101A080002A9CDE900324046FFF702FE013F054634
:101A1800013C0DF10901CDE90097334622464046C5
:101A2800FFF7F6FD28440BB0BDE8F0832B23C5E78C
:101A380002A9F0E702A91D46EDE700002DE9F04FE5
:101A4800824689B0144600260B461D4613F8012B22
:101A58000AB1252AF9D1A94208D26F1ADAF8043056
:101A6800DAF800003A4698473E4429460B78002B9E
:101A780000F0FE80013120234FF000090A4612F8D9
:101A8800015B0DB90A271DE02D2D03D149F001098D
:101A98001146F3E72B2D02D149F00209F8E7202D72
:101AA80002D149F00409F3E7212D02D149F00809D0
:101AB800EEE7302D22D149F040092B46E8E707FB35
:101AC8000525303D884611F8012BA2F13000092880
:101AD800F5D92E2A3AD198F801202A2A10D04FF0A9
:101AE800000B0A27884611F8012BA2F130000928BB
:101AF8000CD807FB0B2BABF1300BF3E70025C1E744
:101B080054F8042B08F1020822EAE27B98F8002036
:101B18006C2A08BF08F1010898F80070002F00F03F
:101B2800A780642F00F0838028D8502F2DD010D89C
:101B3800A7F14502022A40F28880DAF80430DAF880
:101B4800000001224146984701364BE04FF0FF3B29
:101B5800DCE7622F3AD04BD8582FEED17A1C27F009
:101B68000F070F3F02F00602FFB2CDE90235CDF8AC
:101B780004900097C2F11003002260E0712F41D059
:101B88000BD8672F61D9702FD7D1CDE902356123E2
:101B98000093CDF804901023EEE7752FDED0782F50
:101BA800DCD0732FC9D154F8047B0593384625F04F
:101BB800F9FEBBF1FF3F0246059B02D0584528BFFE
:101BC8005A46CDE9003539464B4607E054F8042B10
:101BD800CDE900354B4642B1274904225046FFF76C
:101BE80017FD064408F101012EE705222349F5E710
:101BF80054F8042B8DF81C20CDE9003501224B4602
:101C080007A9EBE707A954F8040B0593FFF70DFBA9
:101C1800BBF1FF3F0146059B04D0079A934538BFA7
:101C2800CDF81CB0CDE90035079A4B46D6E7CDE98B
:101C3800023561230093CDF804900A23012254F859
:101C4800041B5046FFF740FDCBE7073424F0070498
:101C5800F4E8020105933AF01FFCCDE9005B00EEC1
:101C6800100A059B4A4639465046FFF799FEB8E7E1
:101C7800304609B0BDE8F08F801D0408851D0408B2
:101C88000EB403B503AA52F8041B0192FFF7D6FE5F
:101C980002B05DF804EB03B0704703781A060AD562
:101CA80003F07F034022134207D110F8012F02F0FE
:101CB800C001802905D01846704723EA020352085C
:101CC800F1E702F03F0242EA8313EEE7421C1046B6
:101CD8000132037803F0C003802BF8D0704700234B
:101CE800814201D81846704711F8012D02F0C00250
:101CF800802A18BF0133F3E70144034600209942C4
:101D08001A4600D87047127802F0C002802A03F100
:101D1800010318BF0130F2E77F289DBF024B185C12
:101D2800C0F3400000207047AD1D04087F289DBF08
:101D3800024B185CC0F3C00000207047AD1D0408BA
:101D48007F289DBF024B185CC0F3800000207047BD
:101D5800AD1D04087F289DBF024B185CC0F380109E
:101D680000207047AD1D04087F2809D8064B1B5C6E
:101D780013F00C0F06D1A0F15F0358425841704789
:101D88000020704701207047AD1D04087F289DBFC3
:101D9800024B185CC0F3001000207047AD1D04080A
:101DA8007F289DBF024B185CC0F34010002070478D
:101DB800AD1D040808B50246FFF7E8FF00B1203260
:101DC800104608BD08B50246FFF7EAFF00B1203A01
:101DD800104608BD3038092884BF20F02000073895
:101DE800704710B501440246E5240020914203D80B
:101DF800B0FA80F0400917E012F8013B30B103F067
:101E0800C003802B11D10138C0B2EFE7BF2B09D92D
:101E1800F72B09D8DB0803F0060344FA03F303F0B1
:101E28000300E3E71B06E1D510BD0020FCE70239FB
:101E380081420B4603D31A880239002AF8D00233AC
:101E48001B1A5810704770B51C09944215D2121B02
:101E580001EB4401154603F00F030E46012D31F83E
:101E6800024B18BF3468DC40A4B2013D20F8024B95
:101E7800F3D104B9013A104670BD0022FBE7F0B572
:101E8800059D0024521B2746A5420FD16D00441919
:101E980000230D449A4214D104EB42031FB10121DF
:101EA80024F812100233181A4010F0BD31F81460EB
:101EB80033F814C066443E4420F81460370C0134EB
:101EC800E2E735F813603E4424F81360370C013319
:101ED800E0E7F0B4049E0025921B2C46AE420AD1DE
:101EE8007600851900230E449A420FD105EB420172
:101EF800F0BCFFF79CBF31F815703C4433F81570FF
:101F0800E41B20F8154024140135E7E736F81310D0
:101F18000C4425F8134024140133E5E72DE9F04378
:101F2800079CDDF828E0DDE9087602391546844685
:101F38004FF6FF78A4EB020955B900EB42011FB137
:101F4800012320F812300231BDE8F043FFF76FBFDC
:101F580031F8024F013D4444264405EB0904AC42E4
:101F680096BF33F8024B4FF6FF744444744486EA34
:101F7800040E17FA8EF72CF8027B4FEA144E360C33
:101F88003F0CD9E738B502290446806838BF0221DA
:101F98000D4618B12368B1EB930F07D96900FEF716
:101FA8006CFA2368A06065F39F03236038BD38B5D9
:101FB80005460C20FEF746FA2A78037862F30003F8
:101FC8006FF341030446037028682368C0F39D003B
:101FD80060F39F0323606B6863604000FEF732FA8A
:101FE800A0602A68A968C2F39D02520025F05EFC31
:101FF800204638BD10B54B0018441A4409B90846A4
:1020080010BD30F8023D32F8024D1B1B002B02DBDD
:1020180004D10139F2E74FF0FF30F1E70120EFE793
:1020280010B5044638B18068FEF734FA2046BDE89A
:102038001040FEF72FBA10BD38B505460C460221F0
:10204800FFF7A0FF002C2B78B4BF0122002262F317
:1020580000032B704FF00003B8BF64426B6004B9F3
:1020680038BDD5E90132581C686022F81340240CA9
:10207800F5E70023C0E900338360704728B103788F
:102088009B0702D48068FEF705BA704738B5054645
:102098000C464968FFF776FF22782B78A86862F328
:1020A80000032B7063686B606268A1685200BDE82A
:1020B800384025F0FBBB0A4629B90178426062F333
:1020C800000101707047FFF7B7BF08B5FFF7D1FFF0
:1020D800BDE80840FFF7EFBF30B4046862F39F041F
:1020E800046004F0FC0444F0020400220470C0E917
:1020F800012130BC1946FFF7DEBFF8B59DF818502E
:1021080017461E4604210446FFF73CFF3846314671
:102118008DB1002F76F100030DDA784266EB4601A7
:102128000123227863F3000200232270636050EADF
:10213800010302D1F8BD0023F3E7D4E901325D1CA5
:10214800656022F81300030C43EA01430A0C1846A1
:102158001146ECE72DE9F04110EE106A0378F20F12
:1021680062F300030370C6F30F4313F4FF430746FB
:1021780007D13B786FF300033B7000237B60BDE819
:10218800F081B3F5FF4FF4D0C6F3C753A3F17F0432
:10219800002CEEDB04D10121BDE8F041FFF74CBF74
:1021A800B3F16F0848BFA3F16008C6F31606162CF2
:1021B8004FEA281846F4000621DCC4F11704E6406B
:1021C8000024254641463846FFF7DCFEC7F8048060
:1021D80025B16A000021B86825F0ACFB44B1BB68A2
:1021E80006FA04F223F81520C4F11004E64001357C
:1021F800A845C4D0BB6823F81560360CF7E7B3F1DF
:10220800960504F1090448BFA3F1870504F00F04FB
:102218002D11D7E72DE9F84304468F18C2F35B0266
:102228000D46511C9846089EFFF7ACFE2278002305
:1022380068F300022270636029461FFA86FCB942DF
:10224800084602D3401BBDE8F8830278A2F13003A8
:10225800092B01F1010105D9A2F14103192B14D869
:10226800A2F13703B342EDD2D4E901E0F04681464A
:10227800B8F1000F10D100EB4E0213B120F81E3058
:102288000232121A52106260D9E7A2F16103192BC7
:10229800D8D8A2F15703E5E7B9F8002002FB0C33C0
:1022A80029F8023B08F1FF381B0CE1E7F8B50446B2
:1022B80015461E46C1B1531E1E444FF0FF37E900B4
:1022C8000F3109092046FFF75DFE237800216FF3DF
:1022D8000003237061604DB9D4E9011000EB41019E
:1022E800FFF7A5FD6060F8BD0127E8E700230F2987
:1022F80008DC32788A401343013D9BB201F10801A2
:102308003E44F4D16268501C6060A068103920F81F
:102318001230E0E738B50B780578044603F001037E
:1023280005F00100181A0A460BD1616853689942F2
:1023380008D30AD89268A068FFF75CFEEB0748BF8D
:10234800404238BD4FF0FF30F8E70120F6E78842F9
:1023580010B5044601D0FFF799FE23786FF3000308
:10236800237010BD884210B5044601D0FFF78EFED9
:1023780063683BB12378C3F30002C2F1010262F340
:102388000003237010BD88421FB5044601D0FFF733
:102398007DFE626862B901212046FFF7F3FDA2685D
:1023A800012313806360237843F00103237010E056
:1023B8002378D9070FD56FF30003A1682370012391
:1023C800ADF80E30009308460DF10E03FFF781FDBE
:1023D800606004B010BD511C2046FFF7D3FDD4E95E
:1023E80001210123ADF80E30009308460DF10E03CC
:1023F800FFF745FD6060D6E72DE9F0470E464968CE
:102408000546174601B12AB931462846BDE8F047C6
:10241800FFF73CBE02F10F0424092144FFF7B2FD87
:102428007068A968B36817F00F0E04EB000707F18E
:10243800004808F1FF384FEA480801EB080C08BFCC
:102448004FF0100E03EB40090146E2460022CEF1A0
:10245800100E11BB6FF0010358430CEB000922FA70
:102468000EF22CF8002003FB049304F1004202331F
:10247800013A1846520025F05DFA08F102080346B1
:10248800434417B133F8022D8AB16F6032782B7844
:1024980062F300032B70BDE8F08739F8023D1A4358
:1024A80022FA0EF32AF8023912040139D1E7013F62
:1024B800E7E7F0B50E46496885B00546144601B110
:1024C8002AB931462846FFF7E1FD05B0F0BDFFF710
:1024D80059FDD6E901212346A868FFF7B4FC6860D6
:1024E80031782B7861F300032B70DB070246ECD5BB
:1024F80000237768ADF80E3021099F4201D08B4246
:102508000FD18F42E1D9B36804F00F0433F81110EA
:10251800012303FA04F4013C214213D0ADF80E3034
:1025280008E0B06830F8130050B101238F42ADF8CD
:102538000E30E8D8A96801234AB90B806B60C4E75C
:102548000133DAE7BDF80E30002BBED0F2E7009376
:1025580008460DF10E03FFF792FC6860B5E773B506
:1025680053680C46496899420646154606D308D86A
:102578009268A068FFF73EFD002802DA23462C4641
:102588001D4623782A7861685340DB071BD4013144
:102598003046FFF7F7FC6B680093AB68B068D4E986
:1025A8000121FFF76CFC706023787268C3F30003A5
:1025B800002A0CBF002303F00103327863F3000202
:1025C800327002B070BD3046FFF7DCFC6B680093D8
:1025D800AB68B068D4E90121FFF77BFCE3E7F7B506
:1025E80053680C46496899420546164606D324D8CE
:1025F8009268A068FFF7FEFC00281EDA2346012730
:1026080034461E462378327861685340DB0716D576
:1026180001312846FFF7B6FC73680093B368A868D1
:10262800D4E90121FFF72BFC68606A682B7892B91E
:1026380062F300032B7003B0F0BD0027E2E72846E1
:10264800FFF7A0FC73680093B368A868D4E9012178
:10265800FFF73FFCE8E7227802F00102002FE7D0FD
:10266800C2F10102E4E72DE9F04F15464A686B68AC
:102678009A420E463EBF2E460B461D463378716879
:10268800DB0785B0044621D42B7813F001071DD150
:10269800FFF778FCD5E9011CA068B6683B4699426B
:1026A8000BD100EB4101FFF7C2FB237860606FF3A9
:1026B8000003237005B0BDE8F08F36F813203CF80E
:1026C80013502A4020F813200133E8E7013120464F
:1026D800FFF758FC32782F78AB68009382EA07033B
:1026E800DB4303F00103C3F1000C02F001021FFAFF
:1026F8008CF1C2F1000C02911FFA8CF10191B168C2
:10270800D6F804E0A068A1F1020A696807F0010799
:10271800C7F10008A1EB0E011FFA88F8F4468146BC
:102728000391BCF1000F15D100EB4E011BB1012341
:1027380020F81E300231FFF77AFB606033782A7880
:10274800C3F30003C2F300021340227863F30002CC
:102758002270AFE73AF802BF019981EA0B0B03999F
:102768000CF1FF3C5A4401EB0C0BE3459FBF009969
:1027780031F802BB009188EA0B0B88BFC3465F445F
:10278800029902EA070B8BEA010B13FA8BF329F87B
:10279800023B3F0C120C1B0CC3E72DE9F84F164601
:1027A8004A6873689A420D463EBF35460B461E4638
:1027B8002B786968DB0704462ED4327812F00108BA
:1027C8002AD1FFF7DFFBD6E9013CA9686D68A76845
:1027D800ED1A4246934210D15B00194400223B4453
:1027E800954213D103EB4503DB1B5B106360237831
:1027F8006FF300032370BDE8F88F31F812003CF83E
:102808001260304327F812000132E3E731F8120072
:1028180023F812000132E3E701312046FFF7B2FB4B
:10282800D6E901232F7836786968A068AD6807F083
:10283800010706F00106C7F10008C6F1000CA5F172
:10284800020E1FFA88F81FFA8CFC0D4682464FF0DC
:102858000109A2EB010B45B900EB4101FFF7E7FACB
:102868002378606043F00103C4E73EF8022F013D7E
:1028780088EA020217440BEB0502AA4296BF33F816
:10288800022B62468CEA0202164447EA0602D24349
:1028980019FA82F22AF8022B360C3F0C4FEA124939
:1028A800D9E7F0B516464A6873689A4238BF0B46AE
:1028B8000C463CBF34461E462778337861685F4033
:1028C80017F0010785B005463AD1FFF75BFB23787F
:1028D80013F0010328D1D6E90117A2686468A86833
:1028E800641A994210D149000A4400230144A342C2
:1028F80014D101EB4301FFF79AFA2B7868606FF364
:1029080000032B7005B0F0BD32F8136037F813C020
:1029180086EA0C0620F813600133E2E732F8136008
:1029280021F813600133E2E7CDE902770197736874
:102938000093B368A868D4E90121FFF7EFFADCE750
:102948000131FFF71FFB3378A868DB4303F001036D
:1029580003932378DB4303F00103029301230193DC
:1029680073680093B368D4E90121FFF7D7FA2B788D
:10297800686043F00103C4E72DE9F04F4B6885B068
:1029880004460E4615460BB1536843B923786FF3D6
:10299800000323700023636005B0BDE8F08F814217
:1029A80034D1FFF704FBA5420646074600D1054689
:1029B8006B68716820461944FFF7E4FA2268A0683A
:1029C800C2F39D025200002124F0B4FFB368A1684D
:1029D8000193AB68D6F804A002936B6803930022B6
:1029E8008B1E009301EB4A0C13460398904239D191
:1029F80063602A78337853402278384663F30002BC
:102A0800227005B0BDE8F04FFFF70ABB824204D13F
:102A1800FFF7CDFA05460746CAE70027C8E738F8A2
:102A2800029F0298994430F812003BF8023B00FBE1
:102A38000393A8F800300EF1FF3E1B0CBEF1000F07
:102A4800EDD1E6460CF1020813B1ACF80030C646E9
:102A58000098AEEB010E02304FEA6E030132C44615
:102A68000090C2E7DDE9008BD6460023E6E74B6815
:102A780070B50546144613B11378DA0706D52B78D6
:102A88006FF300032B7000236B6070BD636823B97C
:102A98000121BDE87040FFF7CFBA0846FFF787FA73
:102AA80006462046FFF783FA012104462846FFF729
:102AB800C3FA636883B1A3681B88DB0704D5324671
:102AC80029462846FFF758FFD4E901210123084683
:102AD800FFF7B9F9606038B93046FFF7A1FA204628
:102AE800BDE87040FFF79CBA324631463046FFF7E2
:102AF80043FFDEE72DE9F04F0C4651688FB01646CC
:102B0800013105460293FFF73DFA7268A868013261
:102B18005200002124F00EFF2B786FF300032B7076
:102B280000236B60716820460131FFF72BFA3146AC
:102B38002046FFF7ABFA029BD4F804805B68019348
:102B4800434541D8029BD4F808A09F68AB6803931B
:102B58003CD33A4641465046FFF74CFA002832D15A
:102B6800039A6060012313806B6023786168C3F364
:102B7800000200290CBF002202F0010262F30003E8
:102B8800029A2370337812785340DB0718D56B68A4
:102B98002A78003318BF012363F300022A706368A0
:102BA80073B14FF0FF310BA8FFF78FFA0BAA294634
:102BB8002846FFF7D4FC029A21462046FFF7CFFCAF
:102BC8000FB0BDE8F08F01DA0023CDE7019B03F1D8
:102BD800004001384FEA400937F81020002312F46A
:102BE800004F03F1010155D04FEA480202F1020EED
:102BF80004924FF0000C0AEB0E0208F101019BB29F
:102C08002AF818C005926160D646C3F1100B059AE0
:102C1800964543D3019A37F81000012A00FA03FBBE
:102C280009D907EB0900C3F1100C30F8020C20FA9F
:102C38000CF04BEA000B0198049A091A6960039892
:102C480001F10041013900EB4101059109F102014F
:102C58000991B91E52440891616804910498019938
:102C6800814228D300F1004B0BF1FF3B0AEB4B0BE1
:102C78000020C3F11007DA4571D96FF000416B6885
:102C88002BB15A18039830F81220002A71D06FF02F
:102C9800004173E0520092B20B46A0E7BEF80080F4
:102CA80008FA03F242EA0C0C2EF802CB28FA0BFCC5
:102CB8001FFA8CFCABE7108832F8021C41EA00418D
:102CC8000998B1FBFBF1101A069000270898DDF867
:102CD80018C00790B84662450BD810880744BFBB98
:102CE800059820F80219049905900139023A6160A3
:102CF800B2E70798BCF8009030F802EF07900EFA98
:102D080003F040EA18481FFA88F0484319FA87F98F
:102D18001FFA80FE000CA9EB0E0EC0EB27402CF822
:102D280002EB00EB2E47D6E739F802EF0EFA03FE66
:102D38004EEA1848B0F800E01CFA88FCF44420F881
:102D480002CB4FEA1C4C8242EED867440139C6E7F1
:102D58004FF0000CDDF820900698E046F3E7BBF84A
:102D6800002042FA03F10143BA402BF8021990B24D
:102D780081E7013B6B6082E7013B63606368002B7E
:102D88003FF4F3AE5A183AF81220002AF4D0ECE6D1
:102D9800F0B51F464B6885B004460D4616464BB144
:102DA8001378DA0706D47B68012B0BD1BB681B8824
:102DB800012B07D123786FF300032370002363608E
:102DC80005B0F0BD01212046FFF736F97368002BE6
:102DD800F6D02846FFF7EBF805463046FFF7E7F848
:102DE800064601A8FFF745F97368B3B1B3681B88B5
:102DF800DB070AD52A4621462046FFF7BDFD3B469C
:102E08002246214601A8FFF775FED6E901210123D4
:102E18000846FFF718F8706048B901A8FFF72EF9BF
:102E28002846FFF7FDF83046FFF7FAF8C8E72A46C4
:102E380029462846FFF7A0FD3B462A46294601A811
:102E4800FFF758FED0E710B5D0E90121002301EBC8
:102E58004202914205D30278D20748BF5B42184626
:102E680010BD32F8024D44EA0343F2E730B5D0E929
:102E78000124002304EB4202944206D30278D207CD
:102E880048BF5B420B60012030BDB3F5004F04D250
:102E980032F8025D45EA0343EEE70020F4E72DE946
:102EA800F0470746D1B19818D7E901E40025A4F105
:102EB800020C4FF001092E4603EB0208BEF1000F89
:102EC8000ED1B1B3C21A18463B7813F0010F14BFE4
:102ED800FF210021BDE8F04724F02CBD1846E3E7A8
:102EE8003CF8024F103644EA054597F800A0072E33
:102EF8000AF0010A02DC0EF1FF3EDFE7ACB2BAF1DC
:102F0800000F05D0E44359FA84F4A4B24FEA142917
:102F1800E4B249B100F1FF3A00F8014C53450BD037
:102F2800083E2D0A5046E0E782460AF8014BC245A2
:102F3800F5E713441A1AC7E7BDE8F087D0E901326C
:102F48009FED0C0A9FED0C7A02EB43039A4205D3DE
:102F58000378DB0748BFB1EE400A704733F8021D1B
:102F680007EE901AF8EEE77AE0EE077AB0EE670A15
:102F7800ECE700BF00000000000080472DE9F84F93
:102F880044689DF828A00B9D8046894616469B46B6
:102F98009CB982B1561E2B4616F8012F18463AB92D
:102FA80030230370002300F8013F401BBDE8F88F71
:102FB80003F8012BF0E72846F2E764002046FDF706
:102FC80041FA22460746D8F8081024F06FFCABF106
:102FD8003A0B28462A4607EB040CACF10203002101
:102FE8009F421C4633D930313929144688BF594489
:102FF80004F8011B3B469C45194632D8BAF1000F2C
:1030080008D00123211A032902BF941C82F801A0C9
:103018002046D3B13846FDF73DFA3EB1304624F09C
:10302800C1FC23463044B0421C4623D898F80030EF
:10303800DB0744BF2D2304F8013B2B46621E9A424E
:103048001DD800232370601BB0E72246C5E72488FB
:1030580044EA0141B1FBF9F423F8024909FB1411D0
:10306800BEE7098802330029C5D0BAF1000FECD0B9
:103078000023C7E710F8012D03F8012BD3E71978CF
:10308800107803F8010B02F80119D8E7D0E90232E9
:1030980093423DBF5A1C826018784FF0FF3070474A
:1030A800036810B5044613B14068FDF7F3F92046EC
:1030B800BDE81040FDF7EEB9F8B5054610200C46FE
:1030C8001F461646FDF7BEF9054B8460C0E900743B
:1030D8003444C4606B60034B2860AB60F8BD00BF2C
:1030E80095300008A930000802690A2A10B504467C
:1030F80035D1836A013383620123A269E36263697C
:103108006261226F2361002A31D0616E8A423FBF1B
:10311800501CA16E20678A5C28BF0022A2613BB9BF
:10312800E2692261226A6261626AA2616366236758
:1031380063690D2B08D1A3690A229342626103D106
:10314800D4E901039847A061A369013306D16369F3
:103158005A1C03D00A2B1CBF0A23A36110BDC36AE3
:10316800092A04BF073323F007030133C5E7D4E96D
:1031780001039847A061DBE770B504460E460025B9
:103188002069431C01D1284670BD0A2808D116B110
:10319800636B002BF7D02046FFF7A6FF0125EFE76A
:1031A800FEF7BAFD18B12046FFF79EFFE8E723694E
:1031B800232B08D12046FFF797FF23695A1CDFD03D
:1031C8000A2BF7D1DCE75C2BDDD163690A2BDAD156
:1031D8002046FFF789FFE6E70369272B2BD0222B30
:1031E80029D0A3F16201132923D8174ACA40D2076C
:1031F8001AD54269272A1ED0222A1CD0722B1CD12C
:10320800662A06D18269272A15D0222A13D0722B62
:1032180015D14369622B0CD1806927280BD0A0F106
:103228002203584258417047662BF0D14269722AEE
:10323800E8D00020704701207047662BF6D0622B3B
:10324800F7D14369722BE6E711000900436E2DE9B7
:10325800F74F0446A3B1036F93B929216030FEF7F5
:103268004BF92369E36163692362A3696362A36E0F
:103278001A7822615A7862619B78A36103232367D5
:10328800002161652046FFF777FFA36A6364236B1B
:10329800E56AA564002B04DA082284F84C2001337F
:1032A80004E007D0072284F84C20013B236303B0D5
:1032B800BDE8F08F90B3636B83BBD4E90F2006237E
:1032C80084F84C306FF00043D118013D30F81110EC
:1032D8008D42ECD017D9A16B8A4207D30831490037
:1032E800FDF7CBF8A36B20640833A363D4E90F324E
:1032F800591CE16322F81350236BD0E7013AE263CB
:10330800226B013A2263E26BD11830F811108D421A
:10331800F4D3CCD0022384F84C30C8E725696E1C5E
:1033280001D10023F7E72046FFF756FF074600289C
:1033380000F0BE81002384F84C302369752B52D0ED
:10334800622B08D16369722B52D13E464FF00208B6
:103358000D23002512E0722B06D16369622BF4D08D
:10336800662B49D10523D6E7662B4AD16369722BB0
:10337800F8D03D464FF001080C23002694F84C2065
:10338800002A44D184F84C30B8F1000F08D0204608
:10339800FFF7AAFEB8F1020F02D12046FFF7A4FEFC
:1033A8002369222B14BF2723222320460093FFF7EB
:1033B8009BFE2369009A93422CD163699A4229D1D2
:1033C8002046FFF791FE2046FFF78EFE4FF00308D8
:1033D80025B1B44904F16000FEF7D1F84FF0000BB5
:1033E80004F1600A3EE04FF001080C230025C4E711
:1033F8004FF001080D23F9E73E464FF001080C2372
:10340800A7E74FF000080C2345464646B6E79A4220
:10341800BAD04CE74FF00108DAE7009A9A4217D081
:1034280004F1500B21690DB17B2937D05C2940F09C
:10343800318120460191FFF757FED4F81090019989
:10344800002E78D004F15000FEF75DF8CB46D9E0A5
:10345800009904F150000BF1010BFEF754F82046D7
:10346800FFF742FE2369591C00F01681B8F1010FDD
:1034780002D10A2B00F01081C345CED3594604F17E
:103488005000FEF795F801212046FFF775FE20460B
:10349800FFF7A2FE00287FF450AF08E72046FFF7A9
:1034A80023FE21697B290AD15846FEF725F82046D4
:1034B800FFF71AFE7B215846FEF71EF8B2E72821CF
:1034C8005046FEF719F8D4F8649000222169481C88
:1034D80004D0E2B93A2901D07D2918D1D4E91921BB
:1034E800881810F8010C3D2808D1A2EB09024944BC
:1034F8005846FDF75BFF636E013B63665046292122
:10350800FDF7FAFF2C215046FDF7F6FFD2E721F030
:1035180020005B280AD10132C9B250460192FDF75A
:10352800EBFF2046FFF7E0FD019ACFE75D2808BFD3
:1035380002F1FF32F0E7B9F1620F00F0898028D874
:10354800B9F14E0F70D010D8B9F1220F1FD0B9F1D0
:10355800270F1CD0B9F10A0F63D0A9F1300BBBF1CA
:10356800070F73D84FF0030968E0B9F15C0F0ED06C
:10357800B9F1610F6FD0B9F1550FEED194F84C2025
:103588000D2A20D15C2104F15000FDF7BCFFCB4689
:103598003EE0B9F1740F61D00BD8B9F16E0F60D06D
:1035A800B9F1720F60D0B9F1660FD6D14FF00C0B9C
:1035B8002EE0B9F1760F5AD0E0D3B9F1780FCCD11B
:1035C8004FF0020906E0B9F1750F0CBF4FF004097E
:1035D8004FF008094FF0000B11E02046FFF784FD7B
:1035E800226901921046FEF7B5FB002800F06D81B4
:1035F800019A1046FEF7EEFB4FEA0B1B834419F1C4
:10360800FF39EAD2BBF1FF3F0BD0274B9B453DD892
:1036180094F84C300C2B2DD1594604F15000FDF78D
:1036280072FF4FF0000B1AE720480AF045FC2046CD
:10363800FFF75AFD2269303A02EBCB0B6269303A48
:10364800072ADFD8B9F10109F1D1DBE75C21F9E6F6
:103658004FF0080BDCE74FF0070BD9E74FF0090BE9
:10366800D6E74FF00A0BD3E74FF00D0BD0E74FF03A
:103678000B0BCDE7BBF1FF0F08D80D2B06D15FFA76
:103688008BF104F15000FDF737FFCAE7012384F8F6
:103698004C30C6E7C9B2F4E7C3453CBF032384F8FE
:1036A8004C30EBE6721E0408FFFF10007B1E040876
:1036B8002846FEF73BFB054620691DB95F2801D067
:1036C8007F283ED9092384F84C3004F15005C1B253
:1036D8002846FDF711FF2046FFF706FD2069421C2A
:1036E8001BD12846FDF7F9FE7A4E0746002556F805
:1036F800041B384624F064F900281CD10F35EDB2BC
:10370800122D84F84C507FF4D2AD734BD3F8F831B6
:10371800002B0CBF11230F23FDE5FEF707FB40B973
:1037280020695F2805D07F2803D8FEF709FB002809
:10373800D7D0217CCCE7FFF6BAAD0135242DD6D100
:10374800B5E5FEF7FDFA68B321692E2935D10B23BB
:1037580084F84C3004F150063046FDF7D4FE20467C
:10376800FFF7C2FC0B272069431C3FF4A0AD002DD6
:1037780035D120F02003452B31D16521304684F81E
:103788004C70FDF7C0FE2046FFF7AEFC21692B29DF
:1037980001D02D29E7D13046FDF7B5FE2046FFF7C9
:1037A800A3FCE0E723692E2B04D16069FEF7C8FA71
:1037B8000028C9D10026494D31E00A23302984F870
:1037C8004C30C7D1656945F02005A5F16203162B79
:1037D8009DBF434DDD4005F001050025BAE7FEF722
:1037E800A5FA28B121692E290DD184F84C70D2E7A9
:1037F8002069FEF7A5FA0028F4D123692E2BF1D011
:103808005F2BCBD053E521F020034A2BC3D1ECE743
:10381800652F01D0632F00D10135013601352F788E
:1038280017B12369BB42F3D12046FFF75DFC0FB9FE
:10383800012370E5212F07D123693D2BF8D12046BC
:10384800FFF752FC3A2366E52E2F0FD123692E2B62
:1038580002D163692E2B01D05D235CE52046FFF77A
:1038680043FC2046FFF740FC0E2354E5033533465E
:1038780015F8027C632F0FD0652F0DD0194AD35C41
:1038880084F84C3003F0FD02552A01D0592B14D18D
:10389800636B013363630AE515F8012C21699142D2
:1038A80006F1010607D12046FFF71EFC3346652FB7
:1038B800E4D00235DCE7632FFAE7562B02D0582A0A
:1038C8007FF4F5AC636B013BE4E7012384F84C30EB
:1038D80083469DE6381F0408E41F00202D1E0408B7
:1038E80001204000091F04087FB5064601AD742079
:1038F80085E80E00FCF7A6FD0446034695E8070098
:1039080043F8046B83E8070001236FF00102C4E960
:103918000A3200250A22C4E90E23C4E90C551420F2
:10392800FCF790FD2021206404F15000FDF767FDAD
:10393800294604F16000FDF762FD236C20461D80D6
:10394800C4E905552561FFF7CFFB2046FFF7CCFBFF
:103958002046FFF7C9FB2046FFF778FCA36C012B34
:1039680018BF0723204618BF84F84C3004B070BD38
:1039780030B585B001AC05462046FFF79DFB94E8BD
:103988000E002846FFF7B0FF05B030BD30B585B052
:1039980001AC0146054620461EF068FB2846FDF7A7
:1039A80017FC94E80E00FFF79FFF05B030BD10B577
:1039B800044690B1C3684068984704F15000FDF789
:1039C80047FD04F16000FDF743FD206CFCF762FD44
:1039D8002046BDE81040FCF75DBD10BDD0E90432BB
:1039E800013B036152F823007047C1F17F5101F593
:1039F8007F11036901F57F513F311944436953F839
:103A080021007047F8B5446A06460D46B4B1D4E9BA
:103A180000030B44834222D9083100220144204686
:103A2800FCF736FD0246B8B9616820460831FCF754
:103A38002FFD63682360336A63603462802D2F46EC
:103A480038BF802707F10800FCF7FCFC002307605B
:103A580043600446706202E023682B442360606878
:103A68000544656008342044F8BD38B50D46D0E9F2
:103A780003138B42044608D3103189004069FCF7D0
:103A8800FCFCE36860611033E360D4E90432591C3C
:103A9800216142F8235038BDF8B50D461F46D0E9DC
:103AA80000138B420446164608D31031C9008068BB
:103AB800FCF7E3FC2168A06010312160D4E9011013
:103AC8004B1C636050F8312065F3170200EBC1030B
:103AD80040F83120DE705F60F8BD10B48469CAB266
:103AE8000023616C5DF8044BFFF7D6BF10F00102AC
:103AF8001CD110F003030CD000F00F03062B15D0D7
:103B08000A2B11D100090E3803288CBF0020012090
:103B1800704770B102793A2A08D02D2A08D18068F6
:103B2800B0FA80F04009704710467047012070478E
:103B380018467047C20702D540F001007047830756
:103B480011D0030900F00F00062803D1D80040F077
:103B580002007047102B0CD0112B0CD00F2B0848EB
:103B680008BF0E20704740B103793A2B05D1806811
:103B78007047062070471E2070470248704700BFF4
:103B8800F4440408E84B040838B505460C46FFF72A
:103B9800ADFF38B12846FFF7CDFF0BF06FF9031BD7
:103BA8005842584138BD38B5D3070D46144602D59A
:103BB80042F0010038BD0C21FFF724FF4FF49D733C
:103BC8000560C0E90134F5E72DE9F04105460F46E7
:103BD80014461646B6B93146204612F0EDFA0646A6
:103BE80000F10808CCB90C212846FFF70BFF4FF469
:103BF8009D7301460760C0E901362846FFF735FF87
:103C0800012008E0013E31462846FFF7EEFEFFF7A7
:103C18006DFF0028DED1BDE8F0812846FFF7DEFE03
:103C28000146FFF787FF013C48F824000029D9D056
:103C38008B07D7D1686A00F108039942D2D342684A
:103C480013449942CED24B681B0A0233A2EB83037A
:103C58004360C7E7F7B58669054696F84C0009281A
:103C68000F461FD1D6E91510FDF714FA902F044618
:103C78000ED1C100002241F0020105F128000AF02E
:103C8800A9FC28B14268716C2846FFF78CFF02E056
:103C9800200140F002000146284603B0BDE8F0408C
:103CA800FFF7E3BE0A2807D100223346D6E91510EC
:103CB80008F0B4FA0246E6E70B2812D10096002372
:103CC8000122D6E9151008F027FB04460C212846E6
:103CD800766CFFF797FE4FF49D730660C0E90134D8
:103CE800D9E70C2813D1D6E915100A2906D8FDF70B
:103CF800D1F930B1000140F00600CCE7FDF79CF99E
:103D0800F7E7D6E91521074810F0C4FBDDE70D28D1
:103D180004D1D6E9151010F0A7FCD6E7000140F051
:103D28000A00B8E7744A040810F0010204D040F011
:103D38000100086001207047A8B110F003030FD1FB
:103D480002793A2A0ED183680B6013F001000AD178
:103D58009A0708D11868044BC31A5842584170474B
:103D68001046704718467047D03D04080021FFF7F9
:103D78000BBF0121FFF708BF2DE9F04F2D2A85B0B1
:103D88000446884616461D460BD10021FFF72DFE36
:103D9800B8B1870702D10379922B12D005B0BDE8DC
:103DA800F08F922A20D10021FFF71FFE014640B173
:103DB800880706D10B79952B0AD12046FFF70EFE0E
:103DC800013DA6F11E03012B6AD8A9462F461AE029
:103DD800962BF6D12046FFF701FE4B6823F0FF0330
:103DE80043F092034B60D9E7962A08BF0135E8E70C
:103DF8001E2E48D1FFF7BDFFC8B95846FFF7B6FFDA
:103E0800002808BF574607F1FF3AB9F1000F0ED056
:103E180009F1FF3949462046FFF7E7FD2369626942
:103E2800DB1B834642F82300B9F1000FE0D10021E3
:103E3800514530D16D1A012DB0D0A6F12303022BC4
:103E480001D92A2E70D1691E2046FFF7CEFD01A99F
:103E5800FFF76AFF00285BD0232E3BD0242E3CD0EE
:103E6800252E0CBF4FF018094FF02209AF1E002F66
:103E780036DA002D40F06A812946019A2046FFF77C
:103E880092FE01461FE0FFF771FF0028CFD1584688
:103E9800FFF76FFFB4E72046FFF7A0FD0131C7E742
:103EA800202ECAD100212046FFF79FFD0746FFF7C5
:103EB8005DFF60B93846FFF75CFF0028BDD0FA21E6
:103EC8002046FFF78BFD2046FFF7CFFD66E74FF44E
:103ED8008D71F5E74FF01609C8E74FF01709C5E7E8
:103EE80039462046FFF781FD02A9FFF71DFF78B18B
:103EF800B9F1220F07D0DDE90112484609F00AFEA0
:103F0800013F0190B3E702980DF0BEFF0028F2DAF6
:103F1800922E40F02081D4E9012303EBC20313F869
:103F2800053C2D2B2FD12FE1A6F12603022B45D8D6
:103F3800691E2046FFF759FD01A9FFF7F5FE002885
:103F480000F03B81A5F10209B9F1000F91DD09F1FB
:103F5800FF312046FFF749FD02A9FFF7E5FE90B1C2
:103F680049462046FFF741FDC0F3071043280AD011
:103F7800452808D02538C7B202980DF085FF1A2FBA
:103F88000FD8002811DAA91C89002046FFF73AFD4E
:103F980046EA05230746C0F80080436000F108019F
:103FA80001E11E2F01D90028EDD0DDE901123846C4
:103FB80009F0B0FDA9F102090190C5E7292E18D131
:103FC80000212046FFF711FD01A9FFF7ADFE0028EB
:103FD800D9D001212046FFF708FDC0F30710342887
:103FE8001ABF4038C0B20220019909F007F80190C1
:103FF8003FE7052E6AD100212046FFF7F6FC074669
:104008000028C0D010F0030A04D1436803F0FE036F
:10401800562BB8D001212046FFF7E7FC00F00F032C
:10402800022BB0D1BAF1000FADD13B792C2BAAD11C
:10403800BB6803F00F02022AA5D11B09482BA2D1A5
:10404800FB68002B9FD09A079DD11A79302A9AD104
:10405800D3F808B04FEA10195846FFF747FD68B97A
:10406800584959480CF098FDA1693A68096805460D
:1040780053460CF05BFE2846FCF7BCF95846FFF7A0
:1040880059FD4FEAC9010746012241F0020104F136
:1040980028000AF09FFA47604846FDF7BAF8037807
:1040A8005F2B20460BD1FFF799FC2046FFF796FCC3
:1040B8000023082219462046FFF75EFE6EE6FFF74A
:1040C8008DFC59462046FFF7D0FC5CE72C2E7FF488
:1040D8001FAF01212046FFF788FC00F00F03022BD9
:1040E80002467FF450AF00212046FFF77EFC0028EF
:1040F8003FF449AF87077FF446AF0379322B7FF44B
:1041080042AF1109C90087683048002241F0020116
:104118000AF060FA00283FF436AF02AA390940686D
:1041280008F092FE029B002B3FF42DAFD90707D46D
:104138009A077FF428AF1968254A91427FF423AF84
:10414800039A002A7FF41FAF019392E62046FFF7F7
:1041580045FC013D8DE6962E14D1D4E9012303EBED
:10416800C20313F8153C2D2B7FF40DAF2A464146A8
:104178002046FFF729FD00283FF405AF6368023B9E
:1041880063600BE6062E18D12A4641462046FFF703
:104198001BFD00287FF402AEF5E62046FFF71EFC63
:1041A800013D41F82500002DF7D1962E03D139465F
:1041B8002046FFF75AFC394685E6362EE4D0332EE2
:1041C800B0E600BF64200408E4390408C81F0408E6
:1041D800D03D0408036830B513B91360184630BDE4
:1041E8009C0702D010600120F9E75C68E5B28D42B7
:1041F800F8D108331360200AF1E700002DE9F04FE9
:1042080093B00024402302904FF400700F460192AF
:10421800CDE90534FCF716F9202307908020CDE975
:104228000834FCF70FF92146CDE90A070FA8CDE9B4
:104238000D440AF095F9019B002B4CD0022B0CBFC2
:104248003F2222460023796CDFF8CCB205A8FFF79D
:1042580023FC4FF00008069C002C00F05F81013C15
:10426800079BA84D069403EBC40253F83430D67864
:104278005268C3F3170AA44B9B5D0093A34B9B5D45
:10428800632E88BF43F4807305EB4305009B03F05E
:104298000F0903F03003102B1FD0202B51D0B8F199
:1042A800000F00F00481B9F1020F40F0F380012AF9
:1042B80018D000210098C00702F1FF3306D568889E
:1042C8000BEA0000B0F5805F08BF5308012B40F0EF
:1042D800DF8069B1DCE03D22B4E732B905EB420585
:1042E800914508D84FF00108B5E7B8F1000FF5D1AE
:1042F8004FF00008AFE7A84635F8023B03EA0B0188
:10430800B1F5805F0DD197F84C10C3F30B039942B8
:1043180015D105A83146FFF79DFC3846FEF796FFF4
:10432800E6E7531C4B4504D23246514605A8FFF731
:10433800B3FBB8F8001005A8FFF7CFFBD8E70132A8
:10434800CEE7B8F1000F0FD002F10043013B35F87A
:1043580013300BEA0303B3F5405F1BD1002105A816
:104368000392FFF782FB039A05EB4204914525D897
:10437800019B0BB1052E43D0002405EB49092246C9
:104388004D455BD1012A7AD1009B5B0677D5002584
:1043980029466EE0012AA5D997F84C30072B40F042
:1043A800EC805B495B480CF0F7FB002304467A6C11
:1043B80039680CF0BBFC2046FCF71CF8A04634F822
:1043C800023B03EA0B01B1F5805F17D197F84C1057
:1043D800DBB299420ED1092905D1314605A80392CD
:1043E800FFF738FC039A03923846FEF72FFF039A2B
:1043F8000132BBE7002A3FF475AFCDE7531C93E7C2
:10440800002105A8FFF7F1FA0028B5D1012105A878
:10441800FFF7EBFA820700F0BE8000F00F000228D9
:10442800AAD005A8FFF7DAFA05A8FFF7D7FA0023FC
:104438000822514605A8FFF79FFC59E739F8023DC5
:1044480003EA0B01B1F5805F05D1DBB2092B97D1E7
:104458000134013294E7214605A8FFF7C6FA00B1F6
:10446800013201348CE7FFF7B9FA0135002818BF8B
:104478000146A54205A8F6D1FFF7F7FA38E7009BF1
:104488001D0604D5002105A8FFF7EFFA01342346DD
:104498003246CEE7012A3FF425AF12F001013FF47E
:1044A80009AFB9F1030F7FF477AF012102E709EAF9
:1044B800020303F0010335F8134004EA0B01B1F5D8
:1044C800805F13D197F84C10C4F30B04A14202F19A
:1044D800010409D11BB9314605A8FFF7BBFB3846D3
:1044E800FEF7B4FE2246E2E72246DCE6531C5146BC
:1044F80005A83246FFF7D0FA214605A8FFF7EDFADE
:10450800A9E600BF2021040870200408A824040894
:10451800042004081038040800F0FFFF0FA80AF070
:1045280038F80E9850B1416822460831FBF7B0FFC1
:104538000E9B5A681A600D9A5A600D9397F84C3082
:10454800002B7FF429AF099B002B3FF425AF0A9B72
:1045580007981B680C93FBF79DFF0A98FBF79AFFD7
:104568003846FFF724FA0CAB93E80300029B83E874
:104578000300184613B0BDE8F08F022B01D10A4999
:1045880010E7042B02D1094909480CE7052B0CBF99
:1045980008490949F8E700283FF4EEAE03793A2BB9
:1045A8003FF43FAFE8E600BF1620040838200408AF
:1045B800E43904084B2004086020040810B540685A
:1045C80000B910BD4468FBF765FF2046F8E7000016
:1045D800F8B5054630200E461746FBF74CFF072D69
:1045E80004460570C66001D0012D0FD1B368C3F32E
:1045F8000F13A38208F04AF8042320612783E38479
:104608002020FBF71FFFE0622046F8BD014B5B5DF1
:10461800EFE700BF5825040810B50446C06AFBF749
:1046280039FF2046BDE81040FBF734BF30B5048D94
:104638000022944202D80023184630BDC36A03EB17
:10464800C2035D688D42F7D00132F2E770B50446C7
:104658000D461646FFF7EAFFC0B9E18C238D8B4261
:1046680008D30631C900E06AFBF707FFE38CE06274
:104678000633E384238DE26A591C02EBC3002185CB
:1046880002F83360002343704380456070BD43687F
:104698000BB9FFF7CBBF1846F9E7F8B544680F46E2
:1046A8002CB9F8BD042BFCD105230370F9E7234688
:1046B8005D68002DF5D07E6818463146FFF7B6FFD5
:1046C8002B460028F4D00378043B022BE9D80623B4
:1046D8003B701D46002231462046FFF7B7FF03789E
:1046E800002BDFD105706468F4E7036A1B8B012B8C
:1046F8001EBFC3685B18C3607047836A10B5044661
:104708009B6F406A9847238B226A0133918C9BB236
:104718009942238338BF938410BD038B10B5013BA6
:104728000383836A0446D3F88030406A984720465A
:104738000121BDE81040FFF7D8BF2DE9F0418046C0
:104748001F4659B111F0030510D14E68F3B29342D8
:104758000CD1360A01F10804B54201DBBDE8F0814D
:1047680054F8041B4046B8470135F5E740463B4638
:10477800BDE8F04118472DE9F04F044685B00D46D5
:1047880091469A461BB1CB8A43F00803CB82236A31
:10479800A5F81E90DA8A42F03002DA821B78002BE4
:1047A80049D1A36A606AD3F8B0604A46534629469D
:1047B800B44605B0BDE8F04F6047DB6A03EBC60BB3
:1047C80013F83630053B012B20D8002319E0EB6A9B
:1047D800039A039903EBC20213F83130062B0ED16A
:1047E800DBF804105368994209D1A36ABBF8022088
:1047F8001B69606A1F460023B84708F10108039B3C
:1048080001330393039A2B8D9342E0DC0136236A2C
:104818001A8DB242D1DCB8F1000FC2D0A36ACDF82C
:1048280000A0D3F8B460606A4B4642462946B047B8
:1048380005B0BDE8F08F0026B046E8E7F8B50446B5
:104848000F4611461A46002385780669837003616E
:104858000E4BFFF772FF6368BBB9618A51B1228AB8
:1048680042B9A36A606AD3F89C309847A36A606A21
:104878001B6C9847238A628A39462046FFF77BFFDC
:10488800003518BF0125A5702661F8BD6D550008D3
:10489800024B89689D22FFF750BF00BF6172000874
:1048A800024B89686B22FFF748BF00BF816F000881
:1048B800836A10B50446D3F88430406A00219847CB
:1048C800A36A606A1B6B10219847A36A606AD3F8D1
:1048D800C8300121984720460321BDE81040FFF762
:1048E80004BF38B5836A04465B6C406A0022984767
:1048F800A36A606AD3F8BC5000231A461946A84731
:104908002046BDE83840FFF7D3BF836A89681B6D2E
:10491800406A002209091847836A8968DB6B406A84
:10492800184710B50446084611461A46FFF750FEC8
:10493800236A436000238360E36913B9E06110BD13
:1049480013469A68002AFBD19860F8E770B5437857
:10495800012B05460C4606D1036A0A461B8B022129
:10496800FFF7DFFF2061A268216928464C23BDE8D4
:104978007040FFF763BF70B513464278012A0646B8
:104988000C4604D10A460721FFF7CBFFA061A569B1
:10499800E268304646232946FFF750FFA88A70BDD3
:1049A8002DE9F04F85B0064600AF0C4611B901213C
:1049B800116015E011F003081BD10B79682B07D1A2
:1049C800CB681B0913608C68002CF0D04FF00108ED
:1049D80004F00F03022B0FD12109B8F1000FE7D023
:1049E800B36A706ADB6A002298471437BD46BDE88F
:1049F800F08F4FF00008EBE7B8F1000F02D1A36881
:104A08001B091360656804F1080A2D0A05F1FF3BCC
:104A1800D1460AEB850559F8040B0009FCF7EEFBB3
:104A2800A9458344F7D10BF1070323F00703ADEB46
:104A3800030DC7F804D0E9465AF8040B07F10C0136
:104A48000009FCF7F2FBFB683B601A460146484642
:104A580022F02CFF3B685545994418D1594678688F
:104A6800FCF718FBB36A0146DB6A706A00229847B4
:104A7800B8F1000FB9D00C34A542B6D054F8041BD5
:104A8800B36A706A1B6D002209099847F4E74FF072
:104A98002E0309F8013BCFE731B1026801F00303A7
:104AA800134304BF0B6803607047000038B54368C0
:104AB80004460D465BB9114605480CF06DF82946C9
:104AC800606004F10800BDE83840FFF7E5BF38BD75
:104AD800E43904082DE9F04F04460D4662702B783E
:104AE8002162072B4FF000018DB01646C16005D03A
:104AF800854AFFF7DBFF0DB0BDE8F08F012A05D02E
:104B0800036B021D1B68C06A314698476378D5F865
:104B18000C80032B10D10BAA462108F10C00FFF7DB
:104B280059FB236B0B9A9B680146E06A98476368B8
:104B38006883002B40F0B080D8F81010C1B101F0A4
:104B48000F05022D10D10B095E2B12D004D83E2B75
:104B58003AD06E4A2046CCE7752B37D040F28F52B8
:104B68009342F6D1032504E0694A2046FFF79EFFE9
:104B78000225D8F81430089309AA192108A8FFF7C4
:104B880029FB4FF000090590059B994520D16378D2
:104B9800012B15D9236BE06A5B682946984763782F
:104BA800042B0DD1206A0395438B02930023CDE992
:104BB8000033E26A0069D2E90232052107F07DFD7F
:104BC8006368002B68D196E70125D2E70025D0E776
:104BD800099B53F829100B79082B4FEA890B02D14E
:104BE80009F10109D0E7052B01D04A4AB2E7CB68A1
:104BF800002BFAD18B681A792C2AF6D19F6807F016
:104C08000F02022AF1D1DB680493002BEDD09A073A
:104C1800EBD11B79302BE8D1049B0AAA03F10800D9
:104C2800A421FFF7D7FA3F0940F293439F428246F7
:104C38001BD1012805D10A9A136803F00F03022B30
:104C480004D0354A099B53F80B1083E7E168012E1D
:104C580001F10103E3601AD01268236BE06ADB6894
:104C68001209984798B92D4AECE740F2BE339F42A3
:104C780016D1012803D10A9B1968C80701D4284A0C
:104C8800E0E7012E03D04910E06A03F010FB6368E7
:104C9800002BA5D0DDF81080D8F80030A3602AE7F3
:104CA80040F207439F4224D1012803D90A9B1B687D
:104CB800DA0701D41B4AC5E7012EE8D05B1006933A
:104CC80001270A9B0BA953F82700FFF72DF808B90D
:104CD800154AB7E7E36A0B9807930DF0D9F9DDE9B0
:104CE800061302460137184603F0E8FABA45E8D138
:104CF800CDE7012ECBD0236B0246D3F810B0E06A83
:104D08000A9B3946D847C2E77A270408902704083F
:104D180094270408A5270408B3270408BF27040814
:104D2800C3270408CF270408E127040870B51378BF
:104D380005460E4614467BB9012313701146006AD6
:104D4800FFF7ABFC2378012B0AD1064A31462846E7
:104D5800BDE87040FFF7AABE062B01D0024AF7E76C
:104D680070BD00BF0526040812260408014AFFF793
:104D78009DBE00BFEC2704080B79092B70B50CBF4A
:104D8800858AC58A4FF6FF739D42044602D1064ABA
:104D9800FFF78CFE218B628BA36A606A5B6F8A1AAD
:104DA8002946BDE870401847DF25040838B5137850
:104DB800054633B1032B04D0064ABDE83840FFF757
:104DC80075BE032414705168286AFFF760FC00B1AF
:104DD800047038BDF825040838B50546A9B101F0B6
:104DE8000F03022B0DD10C09204609F03CFA0028CC
:104DF80006DA2246064907480BF058FF686000208B
:104E080038BD054AFFF752FEF9E70846F8E700BF44
:104E18003B280408983A0408402804082DE9F84378
:104E28000546006A1746C28A12F0020C0E4606D0E2
:104E3800324A31462846BDE8F843FFF737BE01F04D
:104E48000F01022917D1AC78310984B1838B013362
:104E5800838364464FF0010800294DD00022FFF7F4
:104E6800F5FB03788146002B31D0254AE1E7438BD7
:104E780001334383EEE73179B942344608D1B1684A
:104E8800AB780909002BF2D0838B01338383E1E7E8
:104E9800994214D1AC78002CCAD10123AB70B16807
:104EA80051B301F00F03022B18BF0C4642F0040265
:104EB80018BFA168C28209094FF00308CCE7B1689E
:104EC80042F002020909C2824FF00508C4E7042330
:104ED800037080F801802B6A1B8B032B0CD1482FA1
:104EE8000AD14CB1E1682846FFF776FF99F80130FE
:104EF80043EA001089F80100BDE8F883602004083F
:104F0800702704084F234E22FFF788BF4923482201
:104F1800FFF784BF10B44278046A012A0B4604D113
:104F280020465DF8044BFFF791BB816A406A224630
:104F380010315DF8044B02F09BBC000070B50546CB
:104F48000C4600292ED0CA0706D5836A5B6B491028
:104F5800686ABDE8704018478B0717D004F00F0443
:104F6800022C4FEA11110AD0062C0CD0062919D0B0
:104F7800836A406A1B6BC9B2BDE870401847BDE838
:104F88007040FFF7C7BF836A9B6BE1E7836A0968D4
:104F9800DB68406A98472279034B214653F8223050
:104FA8002846D6E770BD00BF502604082DE9F74F04
:104FB80005460C4616461F462046FEF7D7FE40B16A
:104FC8006EB9AB6A9B6E3946686A03B0BDE8F04FAC
:104FD80018472046FEF7CDFE20B1002EF1D103B0D0
:104FE800BDE8F08F002C48D0A30746D163684FEA8C
:104FF800132ADBB21E2B17D1D6B1083404EB8A0A68
:105008005445ECD03B46324654F8041B2846FFF77B
:10501800CDFFF5E75B46019A59F8041B2846FFF7D0
:10502800C5FF08F1010812E01F2B20D1002EE4D0A3
:10503800D5F80CB00BF10103EB600AF1FF330093D4
:1050480086F0010304F108094FF000080193009B62
:105058004345DFDC0AF101013B4654F82110324692
:105068002846FFF7A3FFAB6A59469B6AACE7202B9B
:1050780003D186F00106A4689EE721462846FFF77B
:105088005DFFAB6A686ADB6E3A46314603B0BDE83D
:10509800F04F184738B5036A1B78072B04460A46B1
:1050A80006D0022B04D0154ABDE83840FFF7FEBCF5
:1050B800956885B9A36A606A1B6B10219847A36A33
:1050C800606AD3F8C8300021984720460121BDE81E
:1050D8003840FFF70ABBAB070BD12B79AF2B08D1B0
:1050E8002046A968FFF72AFF2046BDE83840FFF7A9
:1050F800DFBB29462046FFF721FFE0E750280408D8
:1051080070B54378CD68012B0446164606D1036A6C
:105118000A461B8B3146FFF704FC686100231A46D8
:1051280069692046FFF727FBE9682046FFF706FF75
:10513800062E05D1A36A606AD3F884300021984707
:10514800A36A606AD3F8B8500023AC461A46012116
:10515800BDE87040604738B50C460546C968FFF79A
:10516800EDFEA1682846BDE83840FFF7E7BE0B7999
:10517800342B70B504460D4610D18968FFF7DEFE62
:10518800ED68AD6885B9A36A606A1B6B1021984702
:10519800A36A0422D3F89C3002211AE0836A406A89
:1051A8001B6B10219847ECE7AB071FD12B799A2B83
:1051B80013D1A36A606A1B6B10219847A96800295C
:1051C800E6D02046FFF7BAFEA36AD3F89C30042243
:1051D8000321606ABDE8704018479B2B06D1A96877
:1051E8002046FFF7ABFEEB689968E8E729462046BA
:1051F800FFF7A4FECCE710B504468968FFF79EFECA
:10520800A36A606ADB6C0021BDE810401847000003
:105218002DE9F7438D680446164645B9F2B1836A0D
:10522800D3F89C3002222946606A984716E0AB07FB
:1052380040F085802B79372B13D132B1836A406ACD
:10524800D3F89C3002220121984720462946FFF7CF
:1052580075FEA36A606AD3F8A030984703B0BDE82A
:10526800F0839F2B6BD1EB681A79A12A57D1A22121
:1052780001AA03F10800FEF7ADFFA968804619B33B
:105288008F0721D10B79372B1ED136B1A36A411C68
:10529800D3F89C30606A02229847A9682046FFF735
:1052A8004DFEA36A606AD3F8A03098474FF0010911
:1052B800002747450ED1B9F1000FCFD1A36A0322C9
:1052C800D3F89C30791CAFE72046FFF737FE4FF044
:1052D8000009EDE7019B53F8271099B18E0711D10A
:1052E8000E79A6F13700464246412046FFF726FED2
:1052F800B9F1000F0FD03EB9164A29462046FFF7EC
:10530800D5FBABE70026F0E7A36A606AD3F8A030C4
:1053180098470137CDE7002EFBD00F4AEDE7AB6881
:105328004BB19A0707D11B79372B04D104222946A0
:10533800FFF7E6FE92E7052229462046F8E72946C8
:105348002046FFF7FBFDA36A0322D3F89C30012116
:105358006AE700BFA5250408B62504080122FFF75F
:1053680057BF70B50D46C9680446FFF7E7FDA96841
:10537800A36A606AD3F89430C1F3071134291ABFBD
:105388004039C9B20221BDE870401847F8B54E68E7
:105398000C4689680746FFF7D1FD360A0C3400250C
:1053A8000235AE4204F1080400DCF8BD54F8041CD0
:1053B8003846FFF7C3FD54F8081CBB6A786AD3F86F
:1053C800983009092539C9B29847E9E72DE9F0412C
:1053D8004D680C4689688046FFF7B0FDA5F10D07BA
:1053E800FFB22D0A0C340126AE4201DBBDE8F08184
:1053F80054F8041B4046FFF7A1FDD8F82830D8F828
:105408002400D3F89830394698470136ECE72DE95F
:10541800F0414E6804460D46360A8968FFF78EFD4E
:10542800032E83BFD4F80C8008F10103E3604FF02A
:10543800000801277B1C9E4222DC032E55DDE5680F
:10544800606A6B1CE360A36A29469B6E9847A36A4F
:10545800606A9B6A41469847A36A606A9B68012113
:105468009847A36A606A1B6E9847A36A606ADB6DF7
:105478009847A36A606A9B6A2946BDE8F0411847C5
:10548800296920460237FFF759FDB74207DAA36AB0
:10549800606A5B6D9847A36A606A5B6E9847EB68C1
:1054A800A26A606AD2F8982003F00F010A2911D184
:1054B800C3F30713262B1ABF353BD9B206219047F1
:1054C800B74205DAA36A606A1B6F42460021984713
:1054D8000835AFE71979852901D13221EFE79B68B3
:1054E8000BB90721EBE73321E9E7BDE8F08110B5F7
:1054F80004468968FFF722FDA36A606AD3F89430EE
:105508000321BDE8104018472DE9F0474D68D0F851
:105518000C805FFA85F9A9F11E03D3F1000949EB64
:10552800030908F101030446C3602D0A01F10806C6
:105538000027AF4206DBA36A606A9B6A4146BDE862
:10554800F047184756F8041B20460137FFF7F6FCCA
:10555800AF42EEDAA36A606A1B6F42464946984733
:10556800E7E7000001F00F03022B70B504460FD0E7
:105578000B79492B01D04F2B02D10123A37070BDA9
:105588004A2BFCD0502BFAD0482B0DD10D696DB9A0
:10559800A378002BF3D1638A002BF0D020461D4A54
:1055A800BDE87040FFF782BACD68F0E7A37843B34F
:1055B800238A8E6801339BB2012B23820ED1618A24
:1055C800D4E90903D1B1D3F89C3000229847A36AE3
:1055D800606AD3F89C300222002198472946204669
:1055E800FFF7ACFCA36A606A9B6B31099847A36A12
:1055F800606AD3F8A030BDE8704018471B6C984724
:10560800E5E7638A0133638229462046BDE8704096
:10561800FFF794BC312604082DE9F041C568CF682E
:10562800AB1CC3608846044600222B46B968FFF7C6
:10563800BDFCD8F808102046FFF780FCA36A606A12
:105648009B6E6E1C31469847A36A606A9B6A29461E
:105658009847A36A606A9B684FF0FF319847F968DA
:105668002046FFF76BFCA36A606A9B6A3146BDE877
:10567800F04118472DE9F047C668D0F814A0B0F8F3
:105688001A908682B31CC36006F10108038BA0F848
:1056980016800446438388680D46FEF767FBF8B911
:1056A800E7687B1CE360A868FEF763FB20B9A36A80
:1056B800606A9B6E41469847A36A606A9B6A39464E
:1056C8009847E9682046FFF739FCA36A606A9B6A35
:1056D800414698473B460122A9682046FFF766FCE9
:1056E8002969C4F814A02046A4F81A90FFF726FCEC
:1056F800A36A606A9B6A3146BDE8F04718472DE9FE
:10570800F347C668731CC360044688680D46FEF7F5
:105718002DFB0246E8B9E7687B1CE360A9683B46B5
:105728002046FFF743FC2046E968FFF707FCA86816
:10573800FEF71FFBD8B92B690BB96B6923B1A36AB4
:10574800606A9B6E31469847A36A606A9B6A3946CD
:10575800984701AA712105F11000FEF73BFD0027CB
:10576800824657450BD169692046FFF7E7FBA36AD4
:10577800606A9B6A3146984702B0BDE8F087019B92
:1057880053F82780D8F80800FEF7F0FA0246F8B96F
:10579800D4F80C9009F10103E360D8F808104B46DF
:1057A8002046FFF703FC2046D8F80C10FFF7C6FB8D
:1057B800D8F80800FEF7DDFA0028D8D1A36A606A95
:1057C8009B6E31469847A36A606A9B6A4946984728
:1057D8000137C6E770B58D6804463DB9836AD3F8CA
:1057E800C4302946606ABDE870401847AB070ED13F
:1057F8002B795E2B0BD1A968FFF7A0FBE96820463F
:10580800FFF79CFBA36A0221D3F8C430EAE72946D4
:105818002046FFF793FBA36A0121D3F8C430E1E7E0
:1058280010B504468968FFF789FBA36A606ADB6DD7
:10583800BDE8104018472DE9F0414D6801F1080412
:105848002D0A064604EB8507BC4208D1B36A706A84
:10585800D3F89C3029460022BDE8F041184754F897
:10586800041B3046FFF76AFBEEE74B682DE9F04171
:1058780006460F461D0A01F108080024AC4201DB68
:10588800BDE8F08158F8041B3046FFF757FB7368F2
:1058980043B1023406F1080057F82410BDE8F0417E
:1058A800FFF7FAB80134E9E710B50446FFF7DDFF62
:1058B800A36A606AD3F898302221BDE810401847DF
:1058C80070B58C68054644B9836AD3F89C300122C8
:1058D8002146686ABDE870401847A1071ED1636871
:1058E800DAB2922A1AD11B0A022B0CD1E36853B1FF
:1058F8009A0708D11B79AC2B05D121460322BDE8B4
:105908007040FFF7FDBB21462846FFF7AEFF6168F0
:10591800AB6A0122D3F89C30090ADAE72146284607
:10592800FFF70CFBAB6A0122D3F89C301146D0E795
:10593800184B2DE9F041D3F8F86104460F463EBBF9
:10594800C5686B1CC36001222B468968FFF72EFBD4
:10595800A36A606A5B691F2101229847F96851B1FF
:105968002046FFF7EBFAA36A606AD3F8B8703246AC
:1059780033460121B847A36A606AD3F8C4300121CD
:105988009847A36A606A9B6A2946BDE8F0411847B0
:10599800BDE8F081E41F0020026A1278072A2DE989
:1059A800F041044604D01B4ABDE8F041FFF77EB839
:1059B8008D685DB9836A406A1B6B10219847A36A9A
:1059C800606AD3F8C030BDE8F041184715F003020B
:1059D8001DD12B791B2B1AD1C668EF68731CC360C5
:1059E800B9683346FFF7E2FAA9682046FFF7A6FA36
:1059F800A36A606AD3F8C0309847A36A606A9B6A52
:105A080031469847F9682046FFF798FAD7E72946BC
:105A1800F9E700BF64270408896810B4034641B950
:105A2800826A406AD2F89C400A4623465DF8044BD5
:105A380018474A68120A022A0BD1CA684AB1940761
:105A480007D11279AC2A04D106225DF8044BFFF77E
:105A580057BB18465DF8044BFFF7EDBE10B4447809
:105A6800026A012C0B4604D110465DF8044B01F084
:105A7800F0BE816A5DF8044B406A183101F0F8BE47
:105A88002DE9F14F8F0704460D46164612D001F056
:105A98000F03022B17D109090AB1022A05D12046A2
:105AA80001B0BDE8F04FFFF7D9BF01B0BDE8F04F36
:105AB800FFF730BA4968CBB22D2B7BD00BD8062B19
:105AC8000DD02C2B12D04F4A2946204601B0BDE8F4
