:101000000000042081970000712F000061A50000FE
:10101000712F0000712F0000712F000000000000F0
:10102000000000000000000000000000712F000020
:10103000712F000000000000712F0000712F0000D0
:10104000851F0000712F0000952D0000652F000006
:10105000592F0000712F0000872000008933000005
:1010600009230000F9220000E92200008524000085
:10107000F9290000712F0000712F0000712F00006E
:10108000712F000079240000712F0000712F0000E3
:10109000712F0000712F0000712F0000712F0000D0
:1010A000712F0000712F0000D9220000C72200001C
:1010B000B5840000712F0000000000000000000057
:1010C000712F0000A5840000958400009D7C000025
:1010D0006D240000712F0000712F0000F1C200008C
:1010E000872D0000712F0000712F0000000000000C
:1010F0000000000085840000000000008D7C0000DE
:1011000000F1804000F5E040002382B003600368F6
:101110000193019B02B0704710B5254991F8223028
:101120005A1E012A01D9042B40D10022214C81F8FA
:101130002320082304F8012B013B13F0FF03E27185
:10114000F8D143788478427A1B01240204F4E064E5
:1011500003F030032343047804F003042343C478EA
:10116000240304F4805423430479240404F4E02485
:1011700023434479240504F4801423438479120121
:10118000240602F1804204F0807402F5E042234319
:10119000C2F81835427AC4798B189C74007A987614
:1011A00001239340044881F8233010BD0348FCE735
:1011B0009C000020AE0000200000AD0B0B00AD0B2A
:1011C0001C4B9A6872BB00F06042B2F1005F2BD1F9
:1011D00093F825200121B1FBF2F15143012927D1D8
:1011E00093F822100239042920D8DFE801F0031F08
:1011F00013130D00012A1BD158609A810E4BC3F8BE
:101200002C06C3F830260BE00B4A0121C2F82C064D
:10121000C2F83016596801220029EDD09860DA81B1
:1012200006487047064870470648704706487047AA
:10123000064870479C000020007000400000AD0B85
:101240000C00AD0B0A00AD0B0500AD0B0600AD0B9D
:1012500000F1804382B01A68002A14BF01200020E8
:1012600004D000221A601B680193019B02B07047F2
:101270000620704710EE102A22F00043B3F1994F78
:1012800082B04FEAD2710ED3B4EE400AF1EE10FAFA
:1012900007D69FED400ADFED407A002908BFB0EE87
:1012A000670A02B070473D4883420BD8B3F1665FCE
:1012B0005AD212F0FF4FF4D160EE007ACDED017AF0
:1012C000019BEEE7364A9342F0EEC07A37D8A2F59A
:1012D000D0029342B7EE007A29D877EEA76A0023AE
:1012E00036EEC77AF0EE006A77EEA67A87EE270A26
:1012F0005A1C60EE006A9FED2B6ADFED2B7ADFED62
:101300002B5A26EEA67A47EE067A9FED296A07EE5B
:10131000876ADFED287A57EE257A67EE877A46EE00
:10132000267A67EE807A22D130EE670AB9E777EE47
:10133000C76A77EE877A012386EEA70AD8E71E4AA6
:1013400093420BD8F7EE086AB7EE007A07EEA67A5A
:10135000022337EEE66A86EE070AC9E7BFEE007A97
:1013600087EE270A0323C3E74FF0FF33C0E7134A92
:1013700002EB830393ED047A77EEC77A37EEC00A67
:10138000D3ED007A37EEC00A00298AD0B1EE400AC8
:1013900087E700BFDA0FC9BFDA0FC93FFFFFDF3EA3
:1013A000FFFF973F25AC7C3D0DF5113E4712DABD9E
:1013B000A9AAAA3E98CA4C3EFFFF1B40E0FB0200D0
:1013C000F4EE600AF1EE10FA10B5F0EE407A04D6B1
:1013D000B4EE400AF1EE10FA04D777EEA07AB0EE40
:1013E000670A10BD10EE902AB2F17E5F10EE103A3F
:1013F00003D1BDE81040FFF73DBF940F04F0020495
:1014000044EAD37433F0004308D1022C65D09FED39
:10141000367A032C08BFF0EE477AE0E732F000425C
:1014200009D1DFED327A9FED327A14F0010F18BF47
:10143000F0EE477AD3E7B2F1FF4F19D1B3F1FF4F86
:101440000CD1022C43D0032C44D0DFED2A7A9FED3F
:101450002A7A012C18BFF0EE477AC0E7022C3CD064
:10146000032C3DD0012CDFED257A9FED257AF1E7A5
:1014700002F150619942D4D3B3F1FF4FD1D0A1070B
:1014800003D503F15063934216D387EEA00AB0EE62
:10149000C00AFFF7EFFEF0EE407A012C0FD0002CCF
:1014A0009DD0022CDFED176A9FED177A0AD077EEF8
:1014B000A67A77EEC77A92E7DFED117AEDE7F1EEE3
:1014C000677A8CE777EEA67A77EE677A87E7DFEDC3
:1014D0000F7A84E7DFED0E7A81E7DFED0B7A7EE7A6
:1014E000DFED017A7BE700BFDB0F49C0DB0FC93FAF
:1014F000DB0FC9BFDB0F49BFDB0F493F0000008096
:10150000000000002EBDBB33DB0F4940E4CB16408A
:10151000E4CB16C0DFED0A7A9FED0A7ADFED0A6AA6
:1015200010EE277ADFED097A47EE007AB7EE007AFF
:1015300000EE267A67EE807A87EE870A704700BF52
:101540006BD30DBCBA132F3DAEE534BF75AA2A3E4E
:1015500010EE103A23F00042B2F1465F16DAFDEECB
:10156000C07A17EE901A39BB431C134306D1F0EE34
:10157000C07AB7EE007A87EE270A7047012800F09C
:10158000A080FFEE007A87EE800A70474D498A42BC
:1015900012DD002BDFED4C7AB8BFB1EE400A37EE1A
:1015A000C00ADFED4A7AB8BFF1EE600A77EEE00AD2
:1015B00030EE800ADFED460ADFED466A9FED466AAF
:1015C000DFED465A3F4920EE007A8A4267EE077AFD
:1015D00020EE075A07EEA66ADFED416A46EE276A5B
:1015E0009FED406A06EEA76ADFED3F6A46EE276A86
:1015F0009FED3E6A06EEA76ADFED3D6A47EEA56AFB
:10160000DFED3C5A46EEA75ADFED3B6A45EEA76A8E
:10161000DFED3A5A46EEA75ADFED396A45EEA76A82
:10162000F0EE667A46EE077AF0EE606A47EE856A7B
:10163000DFED347A46EE870A45EE270A30EE207A4F
:101640001DDD07EE900AF8EEE77A27EE076A37EE1F
:10165000277A9B17C6EE076A03F00203C3F1010362
:1016600076EEE00A30EE600A30EE000A77EEC07ADD
:1016700000EE103AB8EEC00A27EE800A7047012843
:101680001DD0FFEE007AC7EE876A1F4B17EE102AB7
:101690001A4006EE102A16EE902A134007EE903AF2
:1016A00036EE400AB7EE007A06EE277A70EEC00AF0
:1016B00000EEA77A47EE267AB0EE670A7047B0EEE2
:1016C000470A70473FA12C3FDA0F493F6821223378
:1016D000000000008453D9377AC095385FAE9BB7BD
:1016E000B937813948DEBE3A1F37113CD10D5D3D17
:1016F00045F4A338C8261A3A16696B3BA427B33CB5
:101700008988083EABAAAA3E00F0FFFF10EE103A0F
:1017100023F00043B3F1485FF7EE006A05DAFDEE0F
:10172000C07A17EE902A002A3BD020EE007ADFED37
:101730001E5A9FED1E6A1E4A07EE256A9342DFED90
:101740001D5A56EE075A9FED1C6A05EE876ADFEDBB
:101750001B5A56EE075A9FED1A6A05EE876AF6EE97
:10176000007A26EE076A20EE200A67EE277A16EE48
:10177000070A04DC77EEC00A36EEE00A7047114A29
:101780009342DABF03F17F4307EE103AB5EE027AD7
:1017900077EEC77A76EEC76A77EEC07A36EEE70A5A
:1017A0007047B0EE660A70474ED747ADF6740F31FA
:1017B0009999993E7CF29334010DD037610BB63A7A
:1017C000ABAA2A3D0000483F10EE103A23F0004338
:1017D000B3F1485F04DAFDEEC07A17EE903A4BB3EE
:1017E00020EE007ADFED147ADFED146A57EE276AF7
:1017F000DFED137A46EE877ADFED126A57EE876ADD
:10180000DFED117A20EE076A46EE877ADFED0F6A88
:1018100020B957EE276A06EE860A704766EE277AE9
:10182000F6EE005A50EEA57A57EE870A46EE260AE3
:1018300030EE600A704700BFD3C92E2F342FD73245
:101840001BEF3836010D50398988083CABAA2A3E77
:1018500010EE103A23F00042B2F1FF4F70B502D300
:1018600000EE000A70BD002AFCD0002B04DA70EEF6
:10187000407A87EEA70AF5E713F0FF414FEAE352FB
:1018800028D07F3AC3F31603D10743F4000348BFBF
:101890005B00511000225B00192416464FF0807047
:1018A00035189D42DEBF2E185B1B1218013C4FEA13
:1018B00043034FEA5000F3D113B1013222F0010289
:1018C000521002F17C5202EBC15300EE103AC9E70C
:1018D0005B0001311802FBD50139521AD1E710EE35
:1018E000102A08B522F00043B3F17E5FF0EE405AB3
:1018F00010D308D19FED2F0ADFED2F7A002AA8BF61
:10190000B0EE670A08BD70EE405ADFED2B7A87EE25
:10191000A50AF7E7B3F17C5F11D2B3F14A5F9FEDFF
:10192000276A44D920EE000AFFF7F4FDDFED247AA0
:1019300040EE657A35EEE70A36EE400AE2E7002A25
:10194000B7EE000AF6EE007A14DA35EE800A20EEE1
:10195000270AB1EEC06AFFF7DDFDDFED197A50EE20
:10196000067A9FED160A77EE867A30EE670A30EE39
:10197000000AC7E730EE650A20EE270AB1EEC05A2A
:10198000B0EE407A15EE103A23F47F6323F00F0394
:1019900005EE903A05EEE57A75EE257A87EE276A30
:1019A000FFF7B8FD00EE056A36EE250ADFE7B0EE78
:1019B000460AA7E7DA0F494000000000DA0FC93FE6
:1019C0006821A23310EE102A08B522F00043B3F1CB
:1019D0007E5FB0EE406A12D319BF76EE467A9FED75
:1019E0001F7ADFED1F7A9FED1F7A12BF87EE276AFD
:1019F00040EE077AB0EE676AB0EE460A08BDB3F172
:101A00007C5F0BD2A3F50003B3F1645FF4D320EE47
:101A1000000AFFF77FFD06EE006AEDE7B0EEC06A50
:101A2000B7EE000A30EE466AB6EE000A26EE000A6D
:101A3000F1EEC05AFFF76EFD002A9FED0B6A40EEF3
:101A4000255A75EEA55A75EEC65A9FED066A36EE12
:101A5000656AB8BFB1EE466ACEE700BF000000007D
:101A600000008003DA0FC93F6821A23310EE901AFC
:101A70004B0030B50AD0F4EE600AF1EE10FA05D64C
:101A800010EE100AC0F3C752FF2A04D160EE200AFC
:101A900080EEA00A30BDB3EB400F05D3FAD1DFEDE5
:101AA000247A20EE270AF5E75ABB4302002B25DAF9
:101AB000C2F1010300FA03F3C1F3C7544CBB4D025A
:101AC000002D23DAC4F10105A940A242A3EB0105D0
:101AD00024DC002D01DBE2D02B46D90D25D0002AD5
:101AE000CBBFA3F50003C2F1010243EAC253D340C6
:101AF00000F00040034300EE103ACBE7013A5B00F0
:101B0000D4E7C0F3160343F40003D5E7013C6D00AE
:101B1000D6E7C1F3160141F40001D6E7002D01DB41
:101B2000BDD02B465B00013ACFE75B00013AD4E71A
:101B30000000000010EE102A724822F00043834299
:101B400082B04FEAD27111D9B3F1FF4F7DD800298D
:101B500040F0D480DFED6C7AB4EEE70AF1EE10FAD3
:101B60004BDDDFED6A7A27EE800A6EE0684883423B
:101B700060D9684A934240D89FED677AB1BB30EE96
:101B8000477ADFED667A012337EE670A37EE407A4F
:101B900077EE677AB6EE007A20EE075A9FED606A1C
:101BA000DFED605A60EE056A56EE865AB7EE006ABF
:101BB000F0EE464A45EEA64AF0EE645AF0EE084AC8
:101BC00045EE654A35EEE45AF1EE085A40EE645AA5
:101BD000F0EE654AC5EE245A65EEA65ACBBBF0EE90
:101BE000667A50EE257A30EE670A2EE030EE077AFC
:101BF0004FF0FF33DFED4C7AC6E7B6EE007A0029EE
:101C0000FEEE007A08BFF0EE477A9FED487ADFEDEE
:101C1000436A40EE077A9FED407AFDEEE77A17EED1
:101C2000903AF8EEE77A07EEC70A67EEA67AB0EECA
:101C3000407AA9E7B3F14C5F09D212F0FF4F04D10B
:101C400060EE007ACDED017A019B02B0704700236F
:101C5000A0E775EEE75A5A1C55EE807A77EEE67AE1
:101C600006D170EE677A17EE877AB0EE470AECE796
:101C7000012B14D1FDEE006AB4EEE60AF1EE10FA83
:101C800006D530EE070A77EEC07AB8EE000A6AE7AA
:101C900070EE677A77EEA77A37EE860AD5E703F11A
:101CA0007F02D205382B06EE902A10D970EE677AA3
:101CB000802B77EE867A05BF9FED140A77EEA77A20
:101CC00066EEA77A67EE807A37EEC60ABDE7C3F103
:101CD0007F02D20507EE102A162BCBBF37EE877A8C
:101CE00070EE677A70EE477A36EE470ACCBF37EE71
:101CF000860A37EE800A20EE260AA6E7BFEE000A23
:101D0000A3E700BF43B895418071B1420000007F56
:101D10001872B13E9115853F8071313FD1F7173769
:101D20001030CF3A6888083DD1F717B73BAAB83FC3
:101D3000B5EEC00AF1EE10FAF8EE007A48BFB1EE47
:101D4000400A10B520EE270A4CBF01240024FFF7FB
:101D5000F1FEF0EE007A70EE277A80EE270A0CB9D9
:101D6000B1EE400A10BD074B1B68082B08D1064B8B
:101D70001A68032A04D8054B134493F820007047CF
:101D8000002070473001001034010010E0FB020019
:101D9000BFF34F8F0549064BCA6802F4E062134354
:101DA000CB60BFF34F8F00BFFDE700BF00ED00E049
:101DB0000400FA0503681F2B83BF03F01F030360B1
:101DC00001484FF0A04070470003005007B50C4B8E
:101DD000027903EB021301A8DB690193FFF7EAFF25
:101DE0000199D0F8043501228A4022EA0301134008
:101DF000C0F80815C0F80C35062003B05DF804FBE8
:101E0000E0FB0200062070470048704744FC0200D7
:101E100043681B68D3F80405400040F00100704798
:101E200043681A68012151605B79044A03EB43035C
:101E30001344062083F82C10704700BF9C0000203C
:101E400043681A68012111605B79044A03EB43037C
:101E50001344022283F82C20062070479C000020A7
:101E60004368054901221A61037A0C2000FB031321
:101E7000062083F8402070479C0000204368012220
:101E80001A60037A044A0C2101FB0323022283F81F
:101E900040200620704700BF9C00002043680122BC
:101EA0005A644368D3F844059040104370470620B5
:101EB00070470620704706207047007A400040F0C7
:101EC00001007047007A4009400040F0010070476F
:101ED0004068C00040F0020070470128044B83BFF7
:101EE0004A68C3F8A0200620D3F8A000704700BFBE
:101EF000341000200128044B83BF4A68C3F8A42093
:101F00000620D3F8A4007047341000204368064A26
:101F10001B79242101FB0323D3F88830002B0CBF4D
:101F20001E200E20704700BF9C0000200620704736
:101F3000B0F85020B0F85430B0F852001344181ADA
:101F400090FBF2F302FB1300400040F001007047E9
:101F500072B60620704762B606207047034BD3F86E
:101F6000BC00400040F00100704700BF9C00002012
:101F700030BF0620704720BF06207047FEE708B537
:101F8000FFF706FF10B54FF08043D3F80443620714
:101F900006D54FF48470FFF75BF908B1002398472A
:101FA000A30607D54FF48A70FFF752F910B100234A
:101FB00018469847600607D54FF48C70FFF748F92C
:101FC00010B1012000239847210609D54FF48E70E7
:101FD000FFF73EF920B1104B0020D3F8C0309847EE
:101FE000E20509D54FF49070FFF732F920B10A4BA2
:101FF0000120D3F8C0309847A3050BD54FF4927059
:10200000FFF726F930B1044B0220D3F8C030BDE809
:102010001040184710BD00BF9C0000204FF08053B7
:102020001A695A691A69B0FBF2F302FB130373B918
:10203000084B0222C3F80425C3F80805D3F800248E
:10204000D207FBD50022C3F8042503487047034894
:10205000704700BF00E001400000AD0B0A00AD0B6F
:1020600007B5019001A8FFF7A5FE019A00EB8200D9
:10207000D0F8003723F4403343EA0143C0F8003777
:1020800003B05DF804FB2DE9F04F00248BB0CDE9DF
:102090000444614B61486249012225461E6846B1ED
:1020A000D0F80463324204D01D601E680196019E80
:1020B000144304338B424FEA4202EFD1594B1A6862
:1020C0007AB100221A601B680293029B4FF0A04372
:1020D00044F00044D3F810350493534BD3F8103533
:1020E000059314F0FF0F1AD0504F012600253442FB
:1020F00010D0AB0003F1804303F5C043D3F81005C3
:10210000D3F8101557F8253023B1C1F30141C0F3BE
:10211000052098470135082D4FEA4606E7D1002CE7
:102120002ADA08AE0023089373604FF0FF33CDE93D
:1021300006333F4FDFF8F0904FF0010897F9184150
:10214000651C19D0E4B224F0C005EB080AA91944B3
:1021500004F0070211F8100CD040C0070CD5781914
:10216000A40990F9E80007EB8000D0F8C4A0BAF108
:10217000000F0AD1032C0AD00BB0BDE8F08F022B60
:10218000FAD1032C41D121461EE0032C06D116F8CA
:1021900003C008FA02F04CEA0000F05403A80395CB
:1021A000FFF708FE039B11F8181C03F5E07321FAF2
:1021B00002F250F82330D207C3F30143DFD4032BDC
:1021C000DAD1032C21D102212846FFF749FFBAF1C9
:1021D000000F07D04FF0010B21462846D047BBF136
:1021E000000FC9D04FF0A0430499D3F81025D9F8B7
:1021F0001035914202D105999942BDD00492089AB6
:10220000CDE90532099B079398E7BAF1000FB3D0E7
:102210004FF0000BE0E700BF0061004000600040AD
:10222000206100407C6100400003005060010020FC
:102230009C00002007B5019001A8FFF7BBFD019BA2
:1022400003F5E073022240F8232003B05DF804FB9D
:1022500000280DDB4309012200F01F0002FA00F004
:102260002033044A42F82300BFF34F8FBFF36F8F30
:10227000704700BF00E100E02DE9F3470024064667
:102280000F46904600F5A0754FF48039A2462B68A2
:102290008BB1D6F8043309FA04F21A420BD0C5F810
:1022A00000A02B680193A00000F5A070019B80B2F4
:1022B000D7E9003198470134A04505F10405E6D17E
:1022C00002B0BDE8F087062201490248D4E700BF0A
:1022D0000401002000B00140062201490148CBE77B
:1022E000F800002000A00140042201490148C3E792
:1022F000EC00002000A00040042201490148BBE797
:10230000E000002000900040042201490148B3E7AA
:10231000D40000200080004038B5014600680F4C12
:1023200040F30730FFF794FF0B680020D3F800223A
:10233000C3F800020B684FF0FF32C3F808230A68A5
:10234000012313610A790C2505FB024282F8403013
:102350000B7905FB034383F8400038BD9C00002047
:1023600008B50430FFF7D8FF062008BD08B50146C0
:1023700090F90400FFF76CFF0B6801225A600A68AD
:10238000074BC2F848330A68C2F808334B79054A4C
:1023900003EB43031344002283F82C2008BD00BF45
:1023A00003000F009C00002008B54068FFF7DEFF27
:1023B000062008BD0023435082B043580193019B7F
:1023C00002B07047284B2DE9F04704460F4691466E
:1023D0004FF48036002503EB8108D4F80433A900BC
:1023E00001F5A071334289B20FD004F5A07353F800
:1023F000253053B1C4F848632046C4F80863FFF79A
:10240000D9FFD8F82031E8B298470135A9454FEAFD
:102410004606E2D1D4F80433DA070ED5D4F80031F9
:102420005BB120464FF48071FFF7C4FF0E4B03EB06
:1024300087030420D3F820319847D4F804339B074E
:1024400010D5D4F804316BB120464FF48271FFF7F8
:10245000B1FF054901EB87010520D1F82031BDE826
:10246000F0471847BDE8F0879C00002004220221B5
:102470000048A7E700400240042201210048A1E7EC
:10248000001001400322002100489BE700B00040FB
:102490004B6B8A6A934209D24A6AD35CC0F81C35F6
:1024A0004B6B01334B6301231846704791F82C3076
:1024B0001BB10123C3610023F6E70A6A12F0400F43
:1024C0004FF0010215BFC261426181F82D20134611
:1024D000EAE70023435082B043580193019B02B0C6
:1024E0007047F8B591F82F2004460D46002A60D1B8
:1024F000D0F824314E6B8F6AB3B14FF49271FFF76D
:10250000E8FF0123636185F82F30BE424FD1D4F834
:102510000431002B4BD04FF482712046FFF7D9FFD6
:10252000002285F82D2013E0D0F81C3193B14FF430
:102530008E71FFF7CEFFD0F824311BB14FF49271AA
:102540002046DCE72946FFF7A3FF02460028DCD13E
:102550001046F8BDD0F80831002BD6D04FF4847166
:10256000FFF7B7FFD0F82431002BE7D16B6BA96AD6
:102570008B42CAD2696AD0F81805C8546B6BA96A35
:102580000133481E83426B6308D1286A40061DD47C
:102590000223C4F8003201232362B6E78B42FAD14A
:1025A0002B6A5B06B1D5022385F82D30D0E70122D6
:1025B000CEE74FF49271FFF78CFF4FF48E71FFF767
:1025C00088FF4FF48471FFF784FFA0E78B42E2D1CC
:1025D000E9E737B5334B01930D464FF4827104465A
:1025E000FFF777FF4FF49271FFF773FF4FF48E718F
:1025F000FFF76FFF4FF48471FFF76BFF00236B63EE
:1026000085F82F30AB6A012B17D12B6A5B0614D4E7
:102610000223C4F800320123236295F82D20022AF8
:1026200018BF23602B6893B140F28623AB60AB6880
:102630001D48C4F8043303B030BD0123E9E729463F
:102640002046FFF74EFF28B1019B013B0193019B00
:10265000002BF4DC95F82F305BB91348019B002B5D
:10266000E9DC0023C4F800350523C4F800350F4821
:10267000E1E7D4F8C434C4F8C434002BEDD00C4ADC
:102680000A4813F0010F18BF104613F0020F02F1B1
:10269000010218BF104613F0040F064B18BF18466E
:1026A000DCE700BFA08601000000AD0B0100AD0B10
:1026B0000000AE0B0200AE0B37B5304B01930D4658
:1026C0004FF482710446FFF704FF4FF49271FFF755
:1026D00000FF4FF48E71FFF7FCFE4FF48471FFF79B
:1026E000F8FE0023C0F800326B6385F82F30012319
:1026F000036295F82D209A4218BF83602946FFF7A0
:10270000C7FE2B6883B140F28623AB60AB681C48E0
:10271000C4F8043303B030BD29462046FFF7E1FE7C
:1027200028B1019B013B0193019B002BF4DC95F840
:102730002F305BB91248019B002BEBDC0023C4F85F
:1027400000350523C4F800350E48E3E7D4F8C43457
:10275000C4F8C434002BEDD00B4A0A4813F0010F23
:1027600018BF104613F0020F02F1010218BF104605
:1027700013F0040F054B18BF1846DCE7A0860100D4
:102780000000AD0B0100AD0B0000AE0B0200AE0B64
:102790002DE9F047064605257468007ADFF8808148
:1027A000C4F800553C2404FB0080022580F85A51EF
:1027B0001746089A357A706812F0010FC9B204FB07
:1027C00005844AD094F85921012A44D0504AC0F8CF
:1027D000082394F85C2102F0FF0EBAB1D4F834312A
:1027E000C0F804334B4800274B4B984278D003F194
:1027F0000113984200F08980013398420CBF6FF0BA
:1028000004076FF06D073846BDE8F087C5EB051586
:10281000AD0008F5967C05F10C090CEB09024FF0B0
:10282000010A84F85CA1C4F84CE10CF809A05170CD
:10283000C2E9033EC2E9017EC4E95437C0F88815F5
:102840000CEB0501FFF7C5FED4F82C31002BCAD1E3
:1028500084F85C31C7E73148C5E794F859C1BCF149
:10286000020F3BD0DFF8A8C0C0F808C394F85CE1C1
:102870000EF0FF0CBEF1000F05D0D4F83431C0F8D3
:1028800004332448B0E7C5EB0515AD004FF0010E49
:1028900082F0020284F85CE1C2F3400208F5967E01
:1028A00005F10C09C4F84C210EEB09020EF809C021
:1028B0005170C2E9033CC2E9017CC4E95437C0F855
:1028C000881584F858C10EEB0501FFF7F5FED4F822
:1028D0002C31002B88D184F85C3185E70F4883E7E1
:1028E00073680B48317AC3F80803D3F8000220F06C
:1028F0000300C3F800020020C3F800053C2303FBDB
:102900000188012388F85A317DE76FF012077AE7D2
:10291000864204000B00AD0B0000AD0B0500AD0BB3
:102920009C000020F0B591F82F7087B084460C46CB
:10293000DFB90A7B931E012B17D84D6A8B699D4224
:1029400013D1CB694B624B698B620B6A81F82D7096
:10295000C3F34013032A81F82C3003D1FFF7ACFEF8
:1029600007B0F0BDFFF735FEFAE704F10C060FCE15
:1029700001AD0FC533682B60DFB1DCF8C434CCF88F
:10298000C43498070DD501238DF80030002384F856
:102990003030236A5B07E3D4D4E9003168469847B6
:1029A000DEE7590701D50223EEE7DA07EED5032368
:1029B000EAE78DF80070E9E708B506494FF04020D6
:1029C000FFF78FFD28B903494FF04020BDE80840CC
:1029D000A8E708BD0402002008B505490548FFF72F
:1029E00080FD20B902490348BDE808409AE708BDC8
:1029F000C801002000300040094B01221A6000226B
:102A0000C3F8FC20FC3382B01B680193019B054B8B
:102A1000D3F80805044BD3F8A43102B0184700BF1F
:102A200004C0004000C000409C00002038B50949A7
:102A3000094C0A4D00220B8A934200D838BD01236D
:102A400023602B68002BFCD04FF48470FEF758FBFA
:102A50000132F0E79C000020047000400871004043
:102A600038B5344B5A681C46002A5CD093F82220B3
:102A7000042A27D0062A39D0022A56D12E4A01210B
:102A8000C2F80015186820B1032083F822001160F5
:102A900016E01160294A1368002BFCD04FF48070B7
:102AA000FEF72EFBFFF7C2FF254A1368002BFCD070
:102AB0004FF48270FEF724FB1F4B0022C3F8002561
:102AC000204838BD1C4A0121C2F80015186808B119
:102AD0000520DAE7062384F822301160174A1368CC
:102AE000002BFCD04FF48070FEF70AFB2568E5B997
:102AF000FFF79CFF124B1B68CBB14FF48270FEF7BF
:102B0000FFFA042384F82230A368E1896360A1817D
:102B1000A560094A23B1C2F82C36C2F83016CFE7B7
:102B2000C2F80035CCE70848CBE70848C9E70848B1
:102B3000C7E700BF9C00002000700040007100400B
:102B4000047100400000AD0B0200AD0B0500AD0BA1
:102B50000B00AD0B1FB501238DF80030CDE901212D
:102B6000D0E900136846984705B05DF804FB0023E0
:102B7000435082B043580193019B02B0704701F06B
:102B80006043B3F1005F70B502460E466AD1037927
:102B9000354D242101FB0351886F20B111684FF49A
:102BA0000474C1F80843242101FB0353D3F88C407B
:102BB0005CB1D3F89010002943D020B113684FF4D2
:102BC0000472C3F8042329483AE00120C3F88C00BA
:102BD000C3F88060C3F8904010684FF48871FFF725
:102BE000C6FF4FF4A2711068FFF7C1FF13680121FF
:102BF000C3F83465C3F83815136834BB196011790C
:102C00001368242202FB0152926F2ABBD3F81041B1
:102C1000D3F84421D3F82461144302D1002EF5D017
:102C20002246242303FB01550023C5F88C301048AD
:102C3000104B002E18BF18460733002A18BF18463D
:102C400070BDC3F884600124C4E7D3F8001241F0DA
:102C50002001C3F80012D2E74FF40472C3F8042332
:102C60000348EDE70448EBE79C0000200B00AD0BA8
:102C70000000AD0B0100AD0B0A00AD0B7FB5D0F825
:102C8000246105460C46002E5CD04FF49271FFF78C
:102C90006EFF02238DF80030D0F88034C0F8803405
:102CA0000393D0F83C350293E36801930023C4E911
:102CB00006336846D4E900139847D5F844317BB110
:102CC0004FF4A2712846FFF752FFA36943B10023D6
:102CD000C4E90633E268D5F83C152046FFF73AFF11
:102CE000D5F82031ABB14FF490712846FFF73FFF84
:102CF0000123EB60636963B1D5F84C250292002390
:102D0000A2688DF8003063610192D4E9001368462F
:102D10009847D5F858319BB14FF4AC712846FFF76E
:102D200026FF636963B1D5F84C2502920023A2689F
:102D30008DF8003063610192D4E90013684698472A
:102D400004B070BDD0F81031002BB6D04FF48871AC
:102D5000FFF70DFFA169D0F83C359942ADD1E36989
:102D6000E26873B1D0F8003223F02003C0F80032DB
:102D7000E369A3612369E360E6612046FFF7EAFEA9
:102D80009BE7A361F9E70149014877E73401002097
:102D9000008002400149024870E700BF1001002096
:102DA00000200040F8B501F06043B3F1005F054634
:102DB0003DD10679214F242404FB0674D4F8880001
:102DC000002836D1C4F88820E16728684FF4907154
:102DD000FFF7CDFE4FF4AC712868FFF7C8FE2B68F3
:102DE000D4F88820E16FC3F84415C3F848252B6850
:102DF00001229A60A36FF3B92B68D3F82011D3F89E
:102E0000582119B9002AF8D00D4809E0002AFBD151
:102E10000122DA602A68D2F85831002BFBD0094829
:102E2000242303FB06760023C6F88830F8BD064845
:102E3000FCE70648FAE70348F8E700BF9C000020DB
:102E40000800AD0B0000AD0B0A00AD0B0B00AD0B85
:102E5000064B984203D0B0F1402F05D07047044B89
:102E600000221A601A717047024BF9E700300040E7
:102E7000440200204C02002070B5214C017924232B
:102E800003FB01430646D3F8B83123B1006840F391
:102E90000730FFF7DDF9242303FB01433568D3F83E
:102EA000B8218AB1174AC5F8082393F8D5315BB128
:102EB00001236B61D5F80431002BFBD0242303FBE5
:102EC0000143002283F8D521242303FB014393F817
:102ED000D801FF2801D0FFF7ADF90023C5F8003570
:102EE000094B9D4204BF01225A603068FFF7B0FFD2
:102EF000242303FB0141002381F8D43170BD00BFBE
:102F00009C0000205201080000F002400D4B984246
:102F10000AD0B0F1402F12D00B4870471960012140
:102F2000197182F31088F7E7084BEFF3108272B63D
:102F300018790028F2D082F3108805487047054BB5
:102F4000F3E700BF003000400000AD0B440200205A
:102F50000B00AD0B4C020020014BD3F8B0311847E9
:102F60009C000020014BD3F8A83118479C0000209A
:102F7000FEE74A68014928F003BD00BF1C96030024
:102F8000D1E90123014928F0FBBC00BF2B960300C7
:102F90004A68014928F0F4BC47960300014928F02B
:102FA000EFBC00BF509603004B6802495A7928F0E5
:102FB000E7BC00BF559603000A7A014928F0E0BC3F
:102FC000639603000A79014928F0DABC6D96030084
:102FD0000A7A014928F0D4BC759603004B6802496F
:102FE0001A7928F0CDBC00BF7D960300014928F076
:102FF000C7BC00BF8596030008B5034610F07F00EC
:1030000007D10F4B01225A65BFF36F8FBFF34F8F6C
:1030100008BD0828F8D00A4A43F48071DB09C2F8D9
:103020001815F1D10749182202FB001292F852122A
:103030000029E9D082F8523209F030F9E4E700BF04
:10304000007002409C0000202DE9F04F4D4B93F89A
:103050002220511E012993B002D9042A40F08E800B
:1030600093F82350082200210124204204D0254255
:1030700000F086800131C9B2013A4FEA4404F4D12C
:103080000DF1080E0DF1280C3F4C6546774604EB18
:1030900002160132D6F8188547F8048B082AD6F8AC
:1030A0001C6545F8046BF2D1384F394ED4F8F095D1
:1030B000384DD7F800A0326800922A68364C019249
:1030C0004FF0010800222260C4F80080A4F6FC74CE
:1030D00004EB02185EF804BBC8F818B501325CF8BE
:1030E00004BBC8F81CB5082AF2D1C7F800A0009AA2
:1030F0003260019A2A605FFA89F2C4F8F02523252C
:103100000022204EDFF880C0DA84C3E901221A6071
:1031100083F824004FF0010EC4F8F025C4F8F4251C
:10312000C4F8085315462C010CEB04090EFA05F2FD
:10313000D9F8187504F18044024004F5E04405F123
:1031400001051ABF96F81280B27E904627F080776C
:10315000082DC9F8187506F10106C4F81425C4F83D
:103160001085E0D102220D48CCF80853198283F86B
:10317000251083F8222013B0BDE8F08F0848FAE745
:103180000848F8E79C0000200070004040760040AE
:103190004476004048760040FC7F00400000AD0BC4
:1031A0000B00AD0B0400AD0B1FB50923002401A8D3
:1031B000CDE90144ADF802408DF80B30ADF80C407C
:1031C000FDF7AAFF0120FFF73FFF0DF10200FDF719
:1031D000F7FFFFF745FCBDF802004FF4167310FB34
:1031E00003F0FF2390FBF3F000EB4000400000F5FC
:1031F000877080B240F6B733984238D840F65432E0
:1032000090420FD9C0F53B6308333A2058436FF022
:10321000630390FBF3F06430C0B2400040F0010063
:1032200004B010BD40F6B423984208D9121A1820F1
:1032300050436FF09F0390FBF3F02A30ECE740F629
:103240008812904206D9181A6FF0180390FBF3F019
:103250001230E1E740F6340398420AD9121A0620E8
:103260005043A3F6881390FBF3F00630D4E76420B4
:10327000D3E72046D1E707B50023ADF80630037940
:1032800001209840FFF7E0FE0DF10600FDF798FFE2
:10329000FFF7E6FBBDF9060003B05DF804FB08B5D7
:1032A000FFF7E9FF400040F0010008BD08B5FFF757
:1032B000E2FF20EAE07000B240EA0020400040F067
:1032C000010008BD30B597B06FF0040304A8019366
:1032D0002BF068FF044690B9114B124A029340F25A
:1032E0009A7502A90220039508F0D2F9284608F041
:1032F00078FB019427F0CAF8019817B030BD059CFF
:103300000949206814F05AFA0028F5D020461DF02B
:1033100069F801A91EF07BFB019B5B420193EBE77F
:103320000800002068FC020074FC0200F0B5154F94
:1033300085B004460D4601260CB905B0F0BD94FADF
:10334000A4F2B2FA82F2D000012D06FA02F30CBF09
:1033500000F58C7000F58E7024EA030400F18043C0
:1033600003F5E0431B68002BE6D0FDF7C9FE8DF89E
:1033700004608DF808208DF809503B6801A8984733
:10338000DAE700BF9C00002030B5564B564C1B6856
:1033900085B0002B2ED04FF48070FDF7B1FE94F86D
:1033A0002230052B07D0062B1ED0032B22D14F4BEA
:1033B00001221A601EE004238DF8043001A823685E
:1033C00098474B4BD3F8F835DB0442BF474B0122FB
:1033D0001A60A268062384F822302AB1444BE1899E
:1033E000C3F82C26C3F8301603238DF8043001A847
:1033F000236898473F4B1B6853B14FF48670FDF725
:103400007FFE94F82230032B02BF384B01221A6052
:10341000394B1B684BB14FF48A70FDF771FE344B8A
:10342000D3F83436A3810023A360344B1B68A3B1C7
:103430004FF48270FDF764FE636802930025A38950
:10344000ADF80C308DF80450236801A8984794F823
:103450002230032B24D0062B29D0002194F82600FB
:10346000FFF764FF012194F82700FFF75FFF244B6B
:103470001B689BB14FF48870FDF742FE012384F86E
:10348000223002238DF8043001A823689847184B96
:103490001022C3F808230022C3F8002505B030BD70
:1034A000134BC3F80055022384F82230D5E7A368F4
:1034B000E2896360A281A5603BB194F82830002BBB
:1034C000CBD00B4B01221A60C7E7094AC2F800357E
:1034D000042384F8223005238DF8043001A82368E2
:1034E0009847BAE7007100409C000020047000403B
:1034F000007000400C7100401471004004710040E5
:10350000107100400A7A044B03EB8203D3F82403C2
:1035100008B120F005B970479C00002010B508469E
:103520001446114609F002FB204610BD70B5154641
:103530000C468E18B44201D1284670BD09F008FB34
:1035400004F8010BF6E770B5154642686AB90C46F7
:103550004E19B44201D1284670BD09F0F9FA0D2880
:1035600008BF0A2004F8010BF3E701221A604FF0AC
:10357000FF35F0E708B503784BB901210170044825
:1035800009F0D4FA09F0E4FA03380128FAD808BDA2
:103590008D960300032910B5144612D112F00100D4
:1035A0000AD009F0A1FA094BB3F84023B3F83E035F
:1035B00080B2801A18BF0120630701D540F00400D3
:1035C00010BD16221A604FF0FF30F9E79C00002072
:1035D00038B514464268013A012A0D4605D82146FD
:1035E000284609F088FA204638BD01221A604FF0BB
:1035F000FF34F8E708B51EF095FB044B003018BF08
:10360000012083F84403062008BD00BF9C00002071
:1036100038B50446084615461EF084FB01380528D7
:103620001AD8DFE800F017171706030C42F2010062
:1036300038BDA068000B400040F00100F8E72846C4
:103640001EF070FB636803EB0030C0F30B032BB973
:10365000FEF7E4FC0120EBE70620E9E76FF0080045
:10366000E6E738B5044608461EF05CFB0246606893
:103670000D490379242505FB0313D3F8881000298D
:10368000FBD1214601F8082F0122FFF78BFB074BE6
:10369000984206D0064B53FA80F090F8B8001DF01F
:1036A0003BFE062038BD00BF9C0000200000AD0B93
:1036B000E0FB020070B5067804461EB14FF0FF35FE
:1036C000284670BD09F044FAC31E012B05460BD8ED
:1036D000012121700B4809F029FA032DEED10A4887
:1036E00046643C302BF076FDA388013B9BB2A3805F
:1036F000002BE5D10121054809F018FA6388A38061
:10370000DEE700BF8D96030034100020249A0300EA
:103710001FB50846144C009411461A4602AB01939B
:1037200002231EF021FFDDE902321340013318D0DD
:1037300004F110010C201DF00BF8DDE90223541CEC
:1037400002D0C2F30B0111B100201DF099FF591CEA
:10375000FAD0C3F30B010029F6D1C0E9012304B06C
:1037600010BD0248FBE700BF9CFC020008000020DF
:103770001FB5094C084611461A4603AB019304F1E4
:10378000EC03009301231EF0EFFE04F1F40104208A
:103790001CF0DEFF04B010BDE0FB0200F0B50646F1
:1037A00085B0D1E900700D461EF0BCFA01A90446AF
:1037B0000222A8681DF06FFE7968042E01EB043424
:1037C00055D1E8681EF0AEFA01194FF08050DDE9DE
:1037D00001250469406931480124C0F8044511F00D
:1037E00003040B4618D0C4F10403AB424FF0FF3082
:1037F00028BF2B460E1B00906C4410461A44904282
:103800003AD10098254FD7F80044E407FBD5306043
:10381000BFF35F8FED1A0B4425F003001F4E141FFA
:103820001844194688422CD1A80719D025F0030165
:103830000B444FF0FF30009003F003001144684444
:103840002A4411F8014B00F8014B8A42F9D1009A41
:103850001248D0F80014C907FBD51A60BFF35F8F78
:103860000E4B00220120C3F8042505B0F0BD204610
:103870002146FEF7D3FBA8E710F8017B04F8017B93
:10388000BDE754F8047FD6F800C41CF0010FFAD04D
:1038900041F8047BBFF35F8FC4E700BF00E0014045
:1038A000F0B5064685B0D1E900400D461EF03AFA63
:1038B0000222074601A9A8681DF0EDFD6468042EE8
:1038C00004EB073403D1E8681EF02CFA0444029A92
:1038D000019821462BF0A6FC012005B0F0BD06485A
:1038E000064B4042C0F30B00181A20F47F6020F012
:1038F0000F001AF095BD00BF78D903008826090093
:10390000034820F47F6020F00F001AF089BD00BF4B
:1039100077E9030008B530B108681CF0F9FD4FF0F5
:103920008043C3F878054FF08043D3F8783513F01F
:10393000010F14BF1E200E2008BD10B51C460846FE
:1039400011464FF002121DF003F920681EF0EAF94B
:103950000138032802D903481DF092FE024B03EB05
:10396000001010BD8F96030004FC020038B50E4D08
:1039700028B9D5F89801002808BF062038BD0C6882
:10398000062C04D10023C5F898310620F6E720461E
:103990001CF02EFB054B834202D1C5F89841F4E799
:1039A00003481DF06DFE00BF34100020F4FC02003F
:1039B000A196030010B504461CF01AFB034B83428A
:1039C00002D16068FFF758FA062010BD18FD02000A
:1039D00030B585B01EF0A6F90146054668462BF0C5
:1039E000B7FB0024AC4204DB684618F0E1FE05B0EA
:1039F00030BD09F0C5F8029B18550134F2E7F7B560
:103A0000234C94F8453323B9C4F8A431012384F836
:103A10004533204D00232B602B680093009B1E4BE9
:103A200001221A60D4F8A431D3B90A262B687BB9D5
:103A300009F0F9F8074609F0F6F8C01B0328FAD98F
:103A4000013EF3D1154B01221A6005201DF064FCE4
:103A500000232B602B680193019B104B01221A60FD
:103A60000D4BD3F80805192141430C48012202608F
:103A7000D4F8A40120B1C3F808230C20FEF7E8FB1A
:103A80004800002340F0010084F8453303B0F0BD46
:103A90009C00002000C1004000C0004004C0004065
:103AA000F8B50746002019F095FF79680A4CC9005F
:103AB00041F00201064617F0EAFA1F256368BB428F
:103AC00003D12168304617F0E2FA013D04F1080401
:103AD000F4D13046F8BD00BF3CFD0200F8B5064603
:103AE000002019F077FFF76805460024737A03F089
:103AF0000F03A34207EB0411284600D8F8BD17F0C6
:103B0000C6FA0134F2E708B5044B05484FF4807259
:103B10000021C3F848231DF009FC00BF9C000020D1
:103B200034FE0200F8B5184C032704F5CC76A4F156
:103B3000080554F8043F1A0719D1D5F84C12581A41
:103B40004FEA901C000900F003028B424FEA420248
:103B50000DD3D5F850128B4209D2D5F8401211F886
:103B60000CE04EFA02F303F00303012B02D0A6424D
:103B7000DFD1F8BD07FA02F242EA0E0201F80C208A
:103B800028F08AFAF3E700BF3C10002010B58AB095
:103B900003A80B4C28F0CCF8059B00932046DDE9E8
:103BA0000323084927F0ECFE069A099B0192009333
:103BB0002046DDE90723044927F0E2FE0AB010BDE4
:103BC00058FE02005CB6030080B603002DE9F04702
:103BD000DFF848A14C49DAF84C224C4827F0D0FED7
:103BE000DAF8441289007AD0DFF83481474FDFF8E1
:103BF000349100250CE0012E45D02E224449384650
:103C000027F0BEFEDAF8441201358900A94266D9D0
:103C100005F00306AA064FEA4606DAF840020BD082
:103C2000AB08C35C43FA06F606F00306022E28D062
:103C3000032EE0D16D22E1E72C46A20804F0030335
:103C4000825C5B0042FA03F39B0702D101348C4291
:103C5000F3D3621B7F2A0CD992094946384627F0D4
:103C60008FFEDAF8443224F03F05B5EB830F36D2ED
:103C700000262A014146384627F082FEDAF8400243
:103C8000CEE73D22BAE7DAF84C12224B2A018A58D5
:103C90009A422BD003F130018A4229D003F160010E
:103CA0008A422BD003F190018A4223D003F1C40150
:103CB0008A421FD003F1F4018A421DD003F59473A8
:103CC0009A4219D034339A421AD003F124018A421D
:103CD00018D044339A420CBF4D2268228EE701224D
:103CE0000D490020BDE8F04726F063BC542285E76B
:103CF0004C2283E7532281E741227FE744227DE77C
:103D000046227BE7422279E7C8B6030058FE02004C
:103D10000CB7030060FE0200E4B60300341000207C
:103D200004B70300E8B6030070B5466804468E4247
:103D3000354628BF0D46012129F025FCA368681CE3
:103D40005919721B18442BF09BFA6368A068013361
:103D50006360284470BD0C4B00F07F0203EB42030C
:103D600003EBD01303F55B735879C0F3800040B1C7
:103D70005A7912F0010104D15A7961F382025A7121
:103D800070470020704700BF9C000020464BF0B5F4
:103D9000054600F07F00EE0903EB4004344404F5CF
:103DA0005B7417466279D20785B005D507F0FCFE33
:103DB0000446204605B0F0BD627942F0010262710E
:103DC0003A4A5268C2F308028AB9D3F88443228877
:103DD00092B2002AFBD02288013A92B22280344A61
:103DE0008024C2F88440BFF34F8FBFF36F8F182435
:103DF00004FB00F20C2404FB06241C440022A4F85B
:103E00004E222A4AC4F84812A4F84C725268C2F3EF
:103E1000080242B9264A80215160D3F884130A88E7
:103E2000013292B20A8018B126B308F017FA1FE0E7
:103E3000A7BB204BD3F88034C3F3C0139E422DD0D0
:103E40001D4808F0A5F9194B5968CDF80670C1F363
:103E5000080100314FF4E06318BF012101A8ADF85B
:103E60000A70ADF804308DF80850039708F004F894
:103E700001249EE7182202FB003393F8522202F03D
:103E8000FF04002AF4D0B3F84E22B3F84C1291424A
:103E90008FD983F8526208F001FA8AE7002EC4D164
:103EA000064808F075F9E3E79C00002000ED00E00B
:103EB00000E100E000700240507002404C7002408F
:103EC0002DE9F047BDF820408688A3428846A3EB41
:103ED000040538BF4189ADB23CBF6D1AADB2AE42E8
:103EE00007460DD2991BB34289B202D383898B4214
:103EF00002D27B89C91A89B239823C8A3546A4B27A
:103F0000A5B1954228BF1546A64212D9A6EB0409D1
:103F10001FFA89F9B7F806A039684D450AFB041164
:103F20000AD80AFB05F240462BF07CF92846BDE88A
:103F3000F087A41BA4B2E7E719FB0AF91FFA89F975
:103F40004A4640462BF06EF9AA1B224412FB0AF2A5
:103F500092B2396808EB0900E6E70C4B00F07F02EB
:103F600003EB420303EBD01303F55B73587910F0B6
:103F7000010008D15A79520706D45A7942F0040256
:103F80005A71012070470020704700BF9C0000203C
:103F900037B5234C94F84D3313B9002003B030BD2E
:103FA00094F84C335A07F8D404F56B75284608F09A
:103FB000FBFB0028F1D094F88A03FFF7CEFF00281E
:103FC000EBD0B4F8BA33B4F8BC23009228464022B0
:103FD00004F59061FFF774FFB4F8BC2392B2831824
:103FE0009BB29A42054603D8B4F8B8239A4203D24A
:103FF000B4F8B62313449BB2A4F8BC3394F88A03F4
:1040000055B12A460749FFF7C1FE38B9064B1B6870
:10401000DB07C2D500BEC1E7FFF79DFE2846BDE71E
:104020009C0000201C050020F0ED00E02DE9F84F79
:104030001446B0F80E80037A028A8788B0F806A08A
:10404000064689461FFA88F892B26BBB9045A8EBEA
:10405000020338BF42899BB23CBF9B1A9BB2FB1A3A
:104060009BB29C4228BF1C464546BD4224D2A7EBCA
:10407000050B1FFA8BFB30685C450AFB05001ED858
:104080000AFB04F249462BF0CDF804EB08039BB27F
:10409000984502D8B2899A4202D2728913449BB2DF
:1040A000F3812046BDE8F88FBC4221BFE41B0AFB28
:1040B000041990463C46D7E7ED1BADB2D5E71BFB94
:1040C0000AFB1FFA8BFB5A4649462BF0ABF8E21B62
:1040D0002A4412FB0AF292B209EB0B013068D2E7D4
:1040E0002DE9F04FA24B1B7BFF2B87B000F0E9833B
:1040F000A04CA04BD3F8C05400202B6898476A8A84
:10410000A98A92B289B28A42A2EB010338BFE88938
:104110009EB238BF331A288938BF9EB2B0420CD243
:10412000824204D3131A2E8A9BB29E4203D2EB8999
:104130000344D21A93B2AB82064626BBAA8A92B235
:1041400093199BB29A4202D82A8A9A4202D2EA89E9
:1041500013449BB2AB8201202B689847002E00F0DD
:10416000B0839DF80D30013B072B00F24F83DFE851
:1041700013F0150023004D03B403C50332002D03D3
:10418000D203091A89B28842FBD96A896B6803A8ED
:1041900002FB01312BF046F80126CFE79DF80C0019
:1041A00008F0D0FA1422002173482BF081F89DF812
:1041B000103084F84E339CE79DF80C0008F0C2FAEA
:1041C000142200216C482BF073F86C4B002B90D01C
:1041D000AFF300808DE794F84C339DF810209DF8E4
:1041E0000C6043F0010384F84C3394F871336FF39F
:1041F000000384F8713394F871336FF3820384F809
:10420000713394F872336FF3000384F8723394F8C7
:1042100072336FF3820384F872330023C4F8D4340A
:1042200002F06003602B0BD1554B1B68DD0700D5F6
:1042300000BE0020FEF7E0FE8020FEF7DDFE58E71E
:10424000402B0DD14F4B002BF3D004AA0121304657
:10425000C4F8D434AFF3008000287FF44AAFE8E715
:10426000C2F304025FFA82FABAF1010F00F0FD8195
:1042700052B2FAB1BAF1020FD6D19DF8147007F01C
:104280007F0BBBF1080FCFD84FEA4B054FEAD71889
:1042900004EB0509C144009399F85F0307F0D0FDD2
:1042A000009B0146002B00F027820028C1D004AA01
:1042B0000C310FE0202B11D19DF814300F2BB8D802
:1042C000234493F84F0307F0BBFD0028B1D004AAA4
:1042D00000F10C01304607F0ABFDBDE7002BA3D188
:1042E0009DF81130092B9FD801A252F823F000BF8E
:1042F000534600003F4600002942000027460000C8
:1043000029420000194300003B45000029420000FB
:10431000594300008D43000006AA12E90300164B22
:10432000002283E80300184BC4F8CC24C4F8D0243E
:10433000D3F80014D3F800040143C3F80014C3F801
:1043400058214FF48002C3F8042394F84C3343F00F
:10435000020384F84C33CCE694F84D338DF80A30E0
:1043600001230DF10A0204A9304607F0B9FCC0E6AA
:10437000080000209C0000206005002000000000D4
:10438000F0ED00E000000000007002409DF8129087
:1043900094F84D33994567D094F84D33002B48D0AD
:1043A000C64B8022C3F88420BFF34F8FBFF36F8FBB
:1043B0000125C34FC34BAA4605F10C02A91C0AFAFA
:1043C00001F10AFA02F20A43C7F80823AA0002F12F
:1043D000804202F51C324FF000084FF0180BC2F873
:1043E00004800BFB0530C2F8288041465A4601354F
:1043F0002AF05EFF082DB34BDED1B34BC7F808336C
:104400005A46C7F81C854146C7F82480AF48C7F80C
:1044100048802AF04DFFA94BC7F814A58022C7F8A1
:1044200010A55A6094F84E53304608F08BF984F882
:104430004E53B9F1000F17D094F84C33A44D23F02C
:10444000300343F0100384F84C33B5F83E3405F2E2
:104450003C42D318009305F24545009BAB420AD875
:104460009C4B0BB1AFF3008084F84D9304A9304608
:1044700007F06CFC3DE66B780B2B03BF2B78EF78D5
:10448000ED1801276B78042B06D0934B1B68D907D6
:104490007FF5CAAE00BEC7E6009B5B1B9BB20193D3
:1044A0004FF0000A5FFA8AF8404607F0C9FC8346DD
:1044B0000028EAD08368019A2946304698470828A0
:1044C00032D9019B83422FD3012F05D1DBF808306D
:1044D000824A934208BF02270022D3B29F4208D8E3
:1044E0002844A84211D894F8D83443450546B4D29C
:1044F000CBE7A9780B4454FA83F3013293F84F13B6
:10450000FF29C2D183F84F83E7E76B78052B08D1E9
:10451000AA7802F07F0304EB430303EBD21383F882
:104520005F832B781D44DCE70AF1010A94F8D82454
:104530005FFA8AF39A42B5D2A7E7BDF81200030AE0
:104540005A1EC0B20E2A3FF674AE01A151F822F0F5
:104550008D450000AB450000C94500003342000016
:10456000334200000F460000AB450000334200001C
:104570003342000033420000334200003342000067
:1045800033420000334200009B450000544A12238E
:1045900004A9304607F0A4FB5EE6524B002B3FF423
:1045A00048AEAFF30080024602E0022B05D14E4A2E
:1045B000002A3FF439AE5388EAE74C4B002B3FF416
:1045C00038AEAFF30080EEE760B940F20943A4F8DB
:1045D000DC3401235B00023343F44072A4F8DA2494
:1045E000434AD5E704283FF624AE394B03EB80005D
:1045F0000022D0F89C543E48A95CD3B20029E9D0EF
:104600000132132A20F8021FF6D11346E2E7394B94
:10461000002B3FF40EAEAFF30080024600283FF4BB
:1046200008AE0378B4E7BDF81230012B7FF401AE79
:1046300094F84C3343F0080384F84C3316E7BDF884
:104640001230012B7FF4F5AD94F84C336FF3C303B4
:10465000F2E794F84C33C3F340129B0803F00203D3
:104660001343ADF80A3002237BE69DF814300F2B7C
:104670003FF6DFAD234493F84F0307F0E1FB00283A
:104680003FF4D7AD00F10C0104AA304607F0D0FB8F
:1046900000287FF42EAD9DF8103013F060037FF4F6
:1046A000C8AD9DF81120A2F10A0101293FF6C1AD64
:1046B0000A2AC4F8D4347FF4D9AE4FE600E100E012
:1046C00000700240E402002000083000A403002033
:1046D000E0FB020000000000F0ED00E0BDBB0000C8
:1046E00067000300000000001C0003000000000041
:1046F00076050020000000009DF81130012B04D049
:10470000002B44D0032B7FF48FADBDF812206ABB81
:10471000012B41D16319434403F55B735B799A071D
:1047200024D517F0770F13D07F4B47F48072C3F86E
:104730000C75C3F80C25C3F81875B8F1000F03D138
:104740000BF5947B43F82B80BFF36F8FBFF34F8F34
:104750002544A84498F871336FF3410388F8713306
:1047600098F871336FF3000388F8713300293FF430
:10477000C0AC04AA0C31304607F05AFB0023C4F841
:10478000D43494F87233DF073FF5B3AC6EE699F892
:104790007133C3F3400364E72544A84408F55B780C
:1047A00098F805309B07E1D438460091FEF724FCC9
:1047B00098F80530009943F0020388F8053098F81E
:1047C000053043F0010388F80530CFE79DF810501D
:1047D00005F07F064FEAD51C04EB4603634493F8CB
:1047E00071136FF3000183F8711393F871036FF382
:1047F000820083F87103002E59D194F8C4349DF8D7
:104800000C70059DBCEBD31F17D035B1474B1B680F
:10481000DB077FF56EAC00BE6BE4454B1BB1454931
:104820003846AFF30080D4F8D434002B3FF461ACA9
:10483000404A0321384698475BE494F9C434002B7E
:1048400008DBD4F8CC0400283FF453AC2A463A499C
:104850002AF0E8FCD4F8CC24B4F8D2342A442B440F
:10486000C4F8CC24B4F8CA249BB29A42A4F8D23437
:1048700001D03F2D17D8D4F8D4346BB994F9C4348F
:104880000022002B1146B4BF30468020FFF77EFA8D
:1048900000287FF42EACB9E7264A02213846984713
:1048A0000028EBD1C6E4384607F0F2F9F0E793F8B8
:1048B0005F0307F0C5FA38B91C4B1B68D80700D551
:1048C00000BE07B0BDE8F08F0669059B9DF811207A
:1048D0009DF80C002946B0470BE494F84C33D907F7
:1048E0007FF507AC154B002B3FF403AC94F84C0359
:1048F000C0F3C000AFF30080FFF7FBBB94F84C336C
:10490000DA077FF5F6AB0E4B002B3FF4F2ABAFF3BB
:104910000080FFF7EEBB049B002B3FF4EAAB059849
:104920009847FFF7E6BB00BF00700240F0ED00E0E3
:104930000000000060050020A0050020000000002D
:1049400000000000032970B5044612D1D10744BF0E
:10495000B0F85430B0F85230530707D543680E4AC8
:104960001B79242101FB0323D3F888304FF0FF305B
:104970000AE00129FAD1084D242663681B7906FB59
:104980000353D3F8880000B970BDFFF7A9FB0120DD
:104990001EF0EAFE30BFF0E79C000020F8B50546A7
:1049A00040681E461446FEF7FDF90E4B984211D1A1
:1049B0000D4E24276B681B7907FB0363D3F88830FF
:1049C0000BB92046F8BDFFF78BFB01201EF0CCFE93
:1049D00030BFEFE7054A02444FF0FF3492F8B83099
:1049E0003360EEE70000AD0B9C000020E0FB02000E
:1049F00008B5FFF775FB01201EF0B6FE30BF06209C
:104A000008BD7FB5054610200C46164629F066FB0A
:104A10000023C0E90034084B0293084B0190039334
:104A200004AB13E90E0084603444C460284604B02B
:104A3000BDE870402AF033BB0DA30200CDBA0200DE
:104A40002DE9F04F5A4EDFF884919BB000270446C1
:104A500008A815468B46C6F8487309972AF0A2FBAA
:104A600005F001088246002854D12A072FD51020CE
:104A700029F034FB4F4A12694260034600F10802F4
:104A800094E8030082E8030052461946A0681BF030
:104A90000DFF29065CBF0323C9F81030074608F054
:104AA000E9F8044638461EF095FE4FF0FF3301202A
:104AB000C9F810301EF058FE25F0E8FCB8F1000FE0
:104AC00003D001213C4808F031F801273FE0EB0614
:104AD00012D5D4E90121F120FFF793FF044627689E
:104AE0005A46214606A82AF03DF8C5F38002394609
:104AF00006A824F0A3FCCCE76F0605D594E80E00C9
:104B0000F1202AF0CCFAE9E7A806E8D520462AF0F9
:104B10000AFBE3E74FF0FF333846C9F810301EF0C8
:104B200023FE6A0602D5A36820689847B8F1000FF3
:104B300003D00121204807F0F9FF099F1F49386879
:104B400012F03CFE044668B3D6F848730024AB0765
:104B50001DD596F84433D3B108F08CF81849021BE0
:104B6000184826F00DFF06AB05AA04A903A826F0F5
:104B700072FD069B0193059B134900931148DDE9E3
:104B8000032326F0FDFE08F025F8FEF7FFFFB8F13D
:104B9000000F03D00121084807F0C8FF38461BB0BA
:104BA000BDE8F08F394607481CF064FB2746CEE786
:104BB0009C000020341000208D96030034FE02007B
:104BC000B496030058FE0200C096030008000020BF
:104BD00037B50D4601AA6946044610F0F3F800996E
:104BE000002D14BF0022802201290BD0022906D0FB
:104BF00022460749074826F0C3FE002005E042F0A0
:104C0000080201210198FFF71BFF03B030BD00BF70
:104C10000897030058FE0200002210B51146044612
:104C200010F0D0F8022804D120460121BDE8104040
:104C3000CEE720460BF060FB022805D1204620225B
:104C40000121BDE81040FBE6012010BD70B5C46C29
:104C500004F10053446A023B04EBC30404F108036B
:104C6000054693E8030084E8030066785EB9EB6CC0
:104C7000B5F84A201A44013A3146284621F074FE1C
:104C800001236370666028464FF0FF31BDE8704035
:104C900021F092BC70B503681A78042A044602BF5A
:104CA0005A68588842F820105D886A1C5A80B4F807
:104CB00048202046002121F057FE00221146A06D19
:104CC000022321F00EFD00222B46A06D1146BDE807
:104CD000704021F011BDF8B5044617461E460D463A
:104CE00021F0E1FE3A46A06D002121F02DFD324673
:104CF000A06D012121F028FD2946A06D0322BDE809
:104D0000F84021F0BDBD38B50D46044608B92C4623
:104D10000AE049B10BF005FE58B1636833B965602C
:104D200044F00103A560EB60204638BDA368DD6058
:104D3000F6E76B68E3606C60E368002BE7D145F051
:104D40000103AC60E360E2E770B5002510F00103F9
:104D500003D00023EB60284670BDC468C36014F024
:104D6000010305D1E668E3602146FFF7CCFF344636
:104D700001462846FFF7C7FF05462046E6E72DE92E
:104D8000F0470B468F1804460D4600229F4217D865
:104D9000002A0CBF2726222632462149DFF89080C0
:104DA000DFF89090DFF890A0204626F0E9FDAF42B2
:104DB00010D8324620461A49BDE8F04726F0E0BD3B
:104DC00013F8011B272903D02229DFD12726E3E787
:104DD0000122DBE715F8012B964205D11149324635
:104DE000204626F0CDFDE2E75C2A04D10E4920469C
:104DF00026F0FEFBDBE71F2A03D97E2A0DD80849DF
:104E0000EEE70A2A01D10949F1E70D2A01D15146FD
:104E1000EDE7092A01D14946E9E74146E0E700BF4D
:104E20000CB7030024970300289703002B97030077
:104E300034970300319703002E9703001FB5022318
:104E4000009303AB13F06FF8039B23B10B2B08D037
:104E500018461CF061FA400040F0010005B05DF812
:104E600004FB0620FAE770B51649037905680C249F
:104E700004FB031393F84C2593F84C2593F84C2529
:104E8000D5F80461D2B226B1012283F84C25012065
:104E900070BD022AFBD101236B600379006804FB1B
:104EA000031393F84C2593F84C25D0F8044103F2F2
:104EB0004C51D2B214B101230B70E8E7022AF0D0B2
:104EC000E5E700BF9C0000202DE9F04F87B0894640
:104ED000129E92461F46002400F1680B0DF1100847
:104EE000A64201D800201BE0351B109B082D28BFCF
:104EF0000825E318CDE90073CDE90285AAEB040388
:104F00004A460021584607F0E7FE48B9119B2A4659
:104F1000191940462AF0EDF9002804D005DB0220DB
:104F200007B0BDE8F08F2C44DAE70120F8E72DE95F
:104F3000F04FABB09A46BDF8E03005930026BDF9BE
:104F4000E430BDF8DC9006908B4614460493374657
:104F5000504608F055F9DBF80C3000EB0408984592
:104F600062D209AACDE9018204230393DBF8002071
:104F70000092069A10460021683007F0ADFE002826
:104F800040F01881099B1BBA8AEA030A4AF0004ADA
:104F9000CDF824A0DBF800300A9308F104030B934A
:104FA0000AAD0999369B81EA07021A40834B1A40E1
:104FB00038D1369BC3F38923002B00F09F803C241B
:104FC00074432AAB2344349843F86C0C359843F867
:104FD000680C369823F85C9C43E91907059823F878
:104FE0005A0C049823F8580C3A9843F8540C3B9800
:104FF00043F870AC43E914010AA903C943F8485CBB
:1050000043E91EB8443B83E803002AAB1C44A4F1E7
:105010004C03CDE904223B93694B36920136174687
:105020003A939146444693E7359B002B40F3C0806A
:10503000349B1B680993349B5D6808333493359B1C
:10504000013B3593A046ACE7B2F5817F1DD100242A
:105050000999C1F309039C42E4D2049B6A68C1F335
:1050600089211944AB6843EA81212B7803F5407309
:1050700041EA0351DDE93A3098470028C0F29A80AE
:1050800005F10C05CED10134E2E704992A4603EB81
:105090008121DDE93A3098470028C0F28B80C1D0E9
:1050A000002E00F087802AAA013E3C2303FB062342
:1050B00053E91CA2349253F8682C359253F8642CAF
:1050C000369233F85A2C059233F9582C049253F83F
:1050D000542C3A9253F8502C53F8607C33F85C9C73
:1050E00053F8485C3B9253E91EB853F84C2C099294
:1050F000443B93E803000AAA82E80300369A099B1E
:10510000C2F3892232B1C3F389224A458AD3059971
:105110008A4287D2C3F30A52002A83D040F2011197
:105120008A4291D107933A9B1A46254B9A423FF403
:1051300079AF3C222AAB02FB06340021A4F17800AF
:105140002AF0B6F8349B44F86C3C359B44F8683C34
:10515000369B24F85C9C44E91937059B24F85A3C9B
:10516000049B24F8583C3A9B44F8543C3B9B44F83D
:10517000503C079B44F870ACC3F3090909F10102E4
:105180000592C3F38923049AA3EB090313441BB2CA
:105190000C4A0493002344E91EB80136AB464FF095
:1051A0000057CDE9353234934FF0FF3A984639E74E
:1051B000002075E72BB0BDE8F08F00BF0000F07F46
:1051C000E5A5000000FC0F602DE9F04F87B0DFF887
:1051D000A8B0119C139E0746884615466FF001093A
:1051E00003F1FF3A0EB9304643E02B68E86802331A
:1051F00018D1D5E901130B449C4213D28C4211D330
:105200001B1BB34228BF3346611A1A460144129849
:1052100005932AF007F8059B129A1A4412921C442F
:10522000F61ADFE7C5F80090BB6E5B69B4FBF3F2DA
:1052300003FB1242A21A6A60D7F868C0DCF814E0D7
:105240000AEB0E032344B3FBFEF10EFB11315B1A94
:10525000DCF8281000928B4228BF0B46CDE90103F1
:10526000AB605A46109B4146384608F093FA002836
:10527000B8DA07B0BDE8F08F00FCF7FF2DE9F04F7A
:1052800089B0054689460592139F43B94FF0FF3216
:105290003A60149A0020136009B0BDE8F08F013B1A
:1052A00007A9806E079307F04FFF12A9064655F82D
:1052B000680F07F049FF4FF0040A80460DF1140B08
:1052C000B045059A02D33A60129BE2E7A6EB0804C8
:1052D000B4FA84F496FAA6F3B3FA83F3C4F11F0484
:1052E0009C4228BF1C46A300CDE90023CDE902BAA9
:1052F00004234A460021284607F0EEFC0028CBD1C3
:10530000012303FA04F4361BDAE710B502460068FD
:105310004FF48033C0F848331068C0F80833507930
:10532000174B00EB4000184421F07F4190F82D40CE
:105330001068C0F84015A4B11068D0F80445601A90
:10534000A142517901EB41010B4488BF00F1FF10EC
:1053500093F82E3088BF00F57F40834201DD094875
:105360000DE010684FF4A071FDF724F811680648AD
:105370004FF48033C1F804331268C2F8443310BDCF
:105380009C0000200700AD0B0000AD0B70B5174C62
:1053900005016319D3F8BC64306820B104F5966147
:1053A00029441EF0BDF92C447368D4F8B404026893
:1053B000A3B94FF48031C2F848130368D3F804232B
:1053C000D20311D5C3F808130068D0F840315BB19F
:1053D0004FF4A071BDE87040FCF7ECBFD2F80415A3
:1053E000BDE87040194490E770BD00BFE0FB0200CB
:1053F0000220CBE70120C9E70020C7E7F0B484789A
:1054000004F07F03082B07D9534B1B68DB0700D53B
:1054100000BE0020F0BC7047C5785049828891F8E2
:105420004E6305F00305022DC2F30A020AD047D8E5
:10543000012D11D1022E40F2FF3508BF4FF48065D7
:10544000AA420DE0022E0AD1B2F5007F09D0424BEC
:105450001B68DA0700D500BEF0BC06F0A5BB402AE9
:10546000F5D8182505FB03F7E6090C2505FB06759D
:105470000D44A5F85022C27802F00302012A2FD071
:10548000012101FA03F0364A06BB03F10C05A940DD
:10549000C2F80413D2F8141503F594730843C2F844
:1054A000140542F823602E4BC3F8184544F4807469
:1054B000C3F80C45BFF36F8FBFF34F8F0120A9E7EF
:1054C000022E0CBF4FF480654025B9E702339940A6
:1054D000C2F80413D2F810351843C2F81005E2E7F9
:1054E000082B91D11E4BDEB9B1F81C2312B18022DA
:1054F000C3F81C250022C3F85021D3F8002312F46E
:10550000001208BFC3F85421154B4FF44012C3F8E2
:105510000423D3F8142542F48072C3F81425C2E79B
:105520000022C3F82C21B1F8102312B18022C3F855
:105530001C250B4BD3F8002312F4001208BFC3F84C
:105540005421084AC3F80423D3F8102542F480728A
:10555000C3F81025A7E700BFF0ED00E09C00002095
:10556000007002400008200010EE103AC3F3C7524A
:10557000952A82B012DC002BDFED1A6AB4BFB1EEBF
:10558000407AB0EE407A7D2A77EE267A08DCCDEDBF
:10559000017ADFED157A019B20EE270A02B07047F1
:1055A00077EEE67A77EEC77A37EE270AB6EE007A1C
:1055B000F4EEC77AF1EE10FA08DDF7EE007A30EE7D
:1055C000670A002BB8BFB1EE400AE7E7BEEE007AEB
:1055D000F4EEC77AF1EE10FA9CBFF7EE007A30EEE7
:1055E000270AEEE70000004B0000000010EE103A22
:1055F000454A46491A448A4282B079D913F1814F0B
:105600000ED3BFEE007AB4EE470AF1EE10FADFEDEA
:10561000407A18BF30EE407A87EE270A02B0704712
:105620005A00B2F1CE4F08D213F0FF4FF6D160EE20
:10563000007ACDED017A019BF0E7364A93425ED9BC
:10564000B7EE007A70EE076A16EE903A03F595020F
:1056500002F5F6420D32D30D7F3B182B4CDC012BAB
:10566000CBBF36EEC00A76EEC77A37EE400A30EE90
:10567000670AC0EE267A2849C2F31602114406EEE4
:10568000901A36EEC70AB0EE007A30EE077ADFEDF8
:10569000236ADFED234ADFED233AC0EE075AB6EE68
:1056A000006A25EEA54A07EE103A24EE045A20EED1
:1056B000066A45EE264ADFED1C6A45EE236AB8EE1F
:1056C000C77A66EE846A44EE856A9FED185A26EE24
:1056D000006A47EE057A76EE866A46EEA57A77EEA0
:1056E000C67A37EE800ADFED127A07EE270A95E7D1
:1056F000B3F1FF4FA4D391E7DFED057ABBE70023B9
:10570000DFED037ABFE700BF30EC2BC12FEC2B415C
:105710000000000019F695BEF304353F269E783E42
:1057200013CECC3EEEE9913EAAAA2A3FD1F7173715
:105730008071313F10EE103A07B523F00042B2F10C
:105740007C5F4FEAD37000EE102A23D2B2F13E5FA5
:105750000DD213F0FF4F04D160EE007ACDED017A47
:10576000019B08B1B1EE400A03B05DF804FB30EED6
:10577000007AF7EE007A67EE006A77EEC07A86EE7E
:10578000A70A30EE070AFFF731FFF6EE007A20EEA7
:10579000270AE6E7F7EE007A77EEC07A80EE277AFE
:1057A00037EE070AEFE710EE102AC2F3C7517F3930
:1057B000162910B510EE103A0CDC002905DA02F0BB
:1057C0000043036000EE102A10BD094C44FA01F1B9
:1057D000114203D1026003F00042F3E722EA010321
:1057E00007EE103A70EE477A036017EE902AE9E769
:1057F000FFFF7F0010EE101A21F0004210B5B2F149
:10580000FF4F4FF0000410EE103A046017DAB2B107
:1058100011F0FF4F0AD1DFED0B7A60EE277A6FF0BF
:10582000180117EE903A016023F000420168D2158A
:105830007E3A0A4423F0FF43026043F07C5100EEBD
:10584000101A10BD0000004C10EE103AC3F3C752FE
:10585000952A18DCDFED0C7ADB0F15BF30EE670AF6
:1058600030EE270A30EE270A30EE670AB5EE400A1E
:10587000F1EE10FA07D19FED050ADFED057A002B56
:1058800008BFB0EE670A70470000004B00000080C0
:105890000000000010EE102AC2F3C753763B1F2B06
:1058A00082B010EE100A11DC082BD8BF01234FF094
:1058B000FF3121FA03F31A4208D0DFED067A70EEC9
:1058C000277ACDED017A019A20EA030200EE102A30
:1058D00002B070470000807B10EE103AC3F3C7524D
:1058E000A2F17F01162982B013DC002913DB124AD2
:1058F0000A411A420DD0DFED117A30EE270A002B53
:105900008DED010AB8BF9B18019923EA020300EE4E
:10591000103A02B07047DFED097A30EE270A002B0B
:105920008DED000A009A04DA5A00054A18BF1346A2
:10593000EDE70023EBE700BFFFFF7F000000807B67
:10594000000080BF10EE103AC3F3C752A2F17F01EE
:10595000162982B013DC002913DB124A0A411A42CD
:105960000DD0DFED117A30EE270A002B8DED010A04
:10597000A8BF9B18019923EA020300EE103A02B077
:105980007047DFED097A30EE270A002B8DED000A13
:10599000009A04DB5A0018BF4FF07E53EDE74FF03A
:1059A0000043EAE7FFFF7F000000807B10EE102A33
:1059B000354BA2F5000199425BD9530006D160EE48
:1059C000007ABFEE007A87EE270A7047002A04DAD1
:1059D00030EE407ADFED2D7AF5E7DFED2D7A60EEDF
:1059E000277A6FF0180117EE902A2A4BDFED2A6A0A
:1059F000DFED2A4ADFED2A3A13442A4AC3F31600A0
:105A0000024407EE902AB7EE000A37EEC07AF0EEB5
:105A1000007A77EE277ADB0DC7EE275A7F3B0B44DF
:105A2000B6EE000A25EEA54A27EE000A24EE045A37
:105A300007EE903A45EE264ADFED1B6A45EE236AF3
:105A400020EE076A66EE846A44EE856AF8EEE77A2D
:105A50009FED160A76EE866A27EE800A06EEA50A04
:105A600030EE460A30EE070A9FED117A07EE870AFC
:105A700070479A4206D8B2F17E5F01D00021B4E7A8
:105A80009FED020A704700BFFFFF7F7F000000000C
:105A90000000004C0DFB4A00269E783E13CECC3E03
:105AA000EEE9913EF304353FAAAA2A3FD1F7173712
:105AB0008071313F70B510EE105A25F0004401237B
:105AC000B4F1FF4FB0EE403A0646036004DB20EE2F
:105AD000003AB0EE430A70BD34B9DFEDCA7AB7EED2
:105AE000007A87EE273AF4E7B4F1E45F0BDA002D91
:105AF000BEBF4FF0FF330360B1EE400AFFF756FF21
:105B0000B1EE403AE5E7002D80F2C082B4F1964F45
:105B1000E3DAB4F17A5F9FEDBC5A76DA0020DFED6C
:105B2000B90A20EE050AFBF74FFEF0EE402AF5EE2B
:105B3000402AF1EE10FAD0D023EE220AB0EEC00ACD
:105B400085EE000AFFF732FFF5EEC02AF1EE10FAFB
:105B50004CBF4FF0FF330123B4F17E5FB0EE402A1B
:105B6000336000F08D82B4F1804FB1EE433A00F023
:105B700087826B0000F1D081A44B9C4200F3F1803E
:105B8000B0EE430AFFF712FFA14B9C42B1EE400A70
:105B900040F39980B7EE007A37EE437A67EE077AE2
:105BA0009FED9C6ADFED9C6ADFED9C5A9FED9C3A6D
:105BB00047EE866A9FED9B6A06EEA76ADFED9A6A5A
:105BC00046EE276A9FED996A06EEA76ADFEDC46A82
:105BD00046EE276A9FED966A47EE865A9FED956AD4
:105BE00005EEA76ADFED945A46EE275A9FED936AB9
:105BF00005EEA76A06EE273A23EE273A06EE873A25
:105C0000F6EE007A07EE673AF3E1B1EE407AB0EED5
:105C1000470AFFF761FEB4EE407AF1EE10FA19D0B0
:105C2000B6EE000A27EE007AB0EE470AFFF754FE00
:105C300037EE400A30EE000AF0EE407AFEEECF7A00
:105C400017EE903A062B39D8DFE803F02312121F23
:105C50001F2B2B00DFED7A7A77EEC37A17EE903A9E
:105C600003F0010307EE903A9B00B8EEE70AE9E77C
:105C7000F6EE007A37EEC00ADFED620A20EE050A82
:105C8000FBF744FDF1EE402A51E7F7EE007A37EEDC
:105C9000C00A0020DFED5B0A20EE050AFBF794FD49
:105CA000F0E7F7EE087A30EE670ADFED560A20EEED
:105CB000050AFBF72BFDB1EE400AE3E7F0EE007AB0
:105CC00030EE670AE5E75F4B9C4264DDDFED5E7A0C
:105CD00033EE673A23EE035ADFED5C6A9FED5C7AA0
:105CE0009FED5C6ADFED5C5A65EE037A17EEA67AEB
:105CF000DFED5A6A47EE276A9FED597A16EEA77ACA
:105D0000DFED586A47EE276A9FED577A17EE867ADD
:105D10009FED566A07EE276A9FED557A16EE277AB1
:105D20009FED546A07EE276A9FED537A47EE875A34
:105D30009FED527A15EEA77ADFED515A47EE275ABA
:105D40009FED507A15EEA77A06EE037A9FED4E3A54
:105D500007EE673A16EE853ADFED4C7A33EE673A96
:105D600047E14B4B9C4206DDB0EE007A37EE437ABA
:105D70009FED240A12E7474B9C4206DD9FED460A41
:105D800033EE403A9FED1F0AA4E7F7EE007A33EEB8
:105D9000673A9FED1C0A9FED417ADFED417ADFED16
:105DA000416A43EE077A9FED407A07EE837ADFED92
:105DB0003F7A47EE037A9FED3E7A07EE837ADFED76
:105DC000487A57EE037A9FED3B7A43EE076A9FEDE0
:105DD0003A7A06EE837ADFED396A47EE036A9FED81
:105DE000387A06EE837AF7EE006A47EE036A67EECA
:105DF000837A87EEA67AFEEE007A03EE277AB0EE7B
:105E0000473AF6E000000000DB0F49406666663F57
:105E10001F4A3B3FA283D337679767394584E238EF
:105E2000661AA53EA1549C3A7E02F23B01F0893DE0
:105E3000752C3C3834B6053AC66E3D3B1599A83CE6
:105E40000000004B07336D3E0C5BEC3E6B7BA539CD
:105E500076F4B73AF7E9AF3967F8663A07E7C73B30
:105E6000474D063D5EB9F73E85300D3A9916143B15
:105E7000FEFC283C155A843D27F9A3B9FE77713BF7
:105E80003D37933C3C21173E521CE631CDCDF83DC9
:105E900017A6DD3F1FA69D3FC316BB3F5E3C5B3C84
:105EA00078756A3EAF72D53DB24B7A3FE73ABA3F5A
:105EB000F400223FDBD5523BDFEF443F2D39084051
:105EC000BE2E1D4067FF0538B435F13ABDD7F53613
:105ED000E440DA3CE6DC153E7ACCA63E5A245C3E31
:105EE0003F239E3DD6EE4B3A54BF983C6E0F303E5A
:105EF000C5D0383F3B2DB23FE8C4D5BAD23D5B3A5E
:105F00001D7FD63E5C061C3AFD0C503A610B363BB9
:105F1000ABAAAA3D00000000B4F1824FF7EE002AC0
:105F200076DAFDEEC35A1FED197A5FED196A1FED9F
:105F3000196AF8EEE57A15EE903A73EE677A033B4C
:105F400047EE876A1FED1E7A06EEA77A5FED1F6A9D
:105F500047EE276A1FED207A06EEA77A5FED216AE9
:105F600047EE276A1FED227A16EEA77A5FED236AC5
:105F700047EE866A1FED246A06EEA76A5FED256A82
:105F800046EE276A1FED266A06EEA76A5FED276ACE
:105F900046EE276A27EE277A46EEA72A87EE223AB0
:105FA000B6EE007A07EE873A042B60D8DFE803F0FC
:105FB0002D2A27240300B1EE087A37EE870AB1EEC6
:105FC000047A37EE877A27EE007AB1EE000A37EED0
:105FD000800A20EE077AB0EE080A37EE800A20EE3B
:105FE000070AB0EE007A77EE877A27EE800AFFF78D
:105FF000DDFC33EE003A3AE0B7EE000ADFE7B7EE39
:10600000007AE2E7B7EE007AE5E7B7EE000AE8E7E4
:10601000B0EE430AFFF7CAFCB4F1B94F70EE625A12
:106020002BDA82EE837A1FED4C6A5FED4C6A1FED2E
:106030004C0A67EE077A47EE866A1FED4E6A16EE47
:10604000A76A5FED4F6A46EE276A1FED506A16EEAB
:10605000A76A5FED516A46EE276AF6EE007A06EE11
:10606000870A33EE673A03EE250AB0EE403A002D78
:10607000BFF62FAD32EE433A2BE523EE253AF6E795
:106080001FED5C3AF6E71FED5D3A22E5B4F17E5F65
:10609000F9D0B4F1804FF6D01FED622A69E507B55B
:1060A00001A8FFF707FD03B05DF804FB10EE102A0E
:1060B00022F00043B3F18B4F13B500EE103A4FEAD4
:1060C000D2740AD3FFF772FCDFED1C7A30EE270A98
:1060D0000CB1B1EE400A02B010BD520012D5B7EEBD
:1060E000007AF0EE476A40EE006AF1EEE67A77EE6B
:1060F000807A30EE000AC7EE276A36EE800AFFF794
:1061000055FCE5E7B3F1665F10D320EE007AF7EEB9
:10611000006A37EE266AF1EEC67A77EEA67AC7EE07
:10612000276A36EE800AFFF761FAD1E7DFED047ADD
:1061300070EE277ACDED017A019BC9E71872313FE5
:106140000000807B08B510EE103A23F000425B009F
:10615000F0EE407A0FD4B7EE000A77EEC07ABDE8D1
:10616000084037EEA77A07EEA77AB1EEC70A37EEF6
:10617000800AFFF73BBAB2F18B4F13D2F7EE006AF9
:10618000B0EE666A10EE006ABDE80840B1EEC67A6D
:1061900030EE000A77EE277A86EEA77A30EE470ACD
:1061A000FFF704BCFFF702FCDFED027A30EE270AAE
:1061B00008BD00BF1872313F08B5FFF7F7FBDFEDF0
:1061C000027A80EE270A08BD8E5D13407F2815DD18
:1061D000DFED167AA0F17F037F2B20EE270A06DD84
:1061E000A0F1FE037F2B20EE270AA8BF7F237F3379
:1061F000DB0507EE903A20EE270A704710F17E0F7C
:1062000012DADFED0B7A00F17E0313F17E0F20EE40
:10621000270AECDA00F1FC036FF07D02934220EED6
:10622000270AB8BF1346E2E70346E0E70000007F15
:10623000000080002DE9F04FD61ED5B048BF161DD6
:10624000F610009106F10108591E81464FEAC80870
:10625000711A03F109009FEDC77AC24F9246A2EB73
:106260000805084418AC0029A4BFCA5D07EE902AAF
:1062700001F10101ACBFF8EE677AF0EE477A814296
:10628000E4EC017AEFD19F0018AAD0190DF5807EB9
:106290004F440021DFEDB77A00EB010C4C46F4ECE3
:1062A000016A3CED017AA74246EE877AF7D10431C4
:1062B0002829EEEC017AEDD1AA49DFEDAB5A9FED2A
:1062C000AB5A8A190924F0EE656AB0EE456A01926C
:1062D000A00054AA111804AE40AA11ED140A1044EB
:1062E000B446214660EE257A0139FDEEE77AF8EEF4
:1062F000E77A07EEC50ABDEEC00AACEC010A30ED44
:10630000010A37EE800AEDD12846CDE90213FFF7E6
:106310005DFFB0EE407AB4EE000A27EE000AFFF708
:10632000DBFAF2EE007A00EE677A002DDDE9021367
:10633000FDEEC77A17EE90BAF8EEE77A37EE677A95
:106340003ADD04F1FF3C04AAC5F1080E52F82C1006
:1063500041FA0EF0834400FA0EF0091AC5F1070065
:1063600042F82C100141002934DD00220BF1010B11
:10637000964656F8040B002A65D120B1C0F580700E
:1063800046F8040C01220EF1010E7445F1D1002DE6
:1063900003DD012D5CD0022D65D002291AD1B7EEA4
:1063A000000A30EE477AAAB128460293FFF70EFFA3
:1063B000029B37EE407A0DE005D1611E04AA52F827
:1063C00021100912CFE7F6EE007AB4EEE77AF1EE8B
:1063D00010FA36DAB5EE407AF1EE10FA6FD1661E99
:1063E000B4460022BCF1080F44D1002A4CD10CA8BD
:1063F000012150F80469002E43D01E1918AA601C10
:1064000002EB86060C44A0423FF762AF019A125C91
:1064100007EE902AF8EE677A4946E6EC017ADFED5E
:10642000557AB446F1EC014A3CED017A8F4244EED4
:10643000877AF7D140AA02EB8001C1ED007A0130E2
:10644000E1E7022191E7C0F1FF0046F8040C9AE76A
:10645000661E04A850F8260000F07F000DF1100C15
:106460004CF8260099E7661E04A850F8260000F0B4
:106470003F00F3E704A850F82C000CF1FF3C024366
:10648000B0E70131B5E7013E04AB083D53F82630D3
:10649000002BF8D02846B7EE000AFFF797FE3346E8
:1064A000002B38DA32460020002AC0F2888040AB48
:1064B00003EB82042E4DDFED2F7A002347E0A8EB9B
:1064C0000A00B0EE470AFFF781FEB4EEC60AF1EE0D
:1064D00010FA17DB60EE267A04AAFDEEE77A661C56
:1064E000F8EEE77A083507EEC60AFDEEE77ABDEE6C
:1064F000C00A10EE103A42F8243017EE903A42F8F3
:106500002630C7E7BDEEC00A04AA10EE103A2646B0
:1065100042F82430BEE704A840AA50F823000190B6
:1065200007EE900AF8EEE77A02EB830267EE807AD4
:10653000013BC2ED007A20EE260AB1E7F5EC016AD4
:10654000B4EC017A01330A2B46EE877A01D09842E7
:10655000F4DA54AB03EB800343ED287A013A0130BF
:10656000A2E700BFC00003000000803B00008043A2
:1065700088010300000000002CAA02EB8302D2ED88
:10658000007A37EE277A013B002BF5DAD9B1F1EE2C
:10659000477A009BC3ED007ADDED2C7A77EEC77A5F
:1065A0002DAA01239E4211DA09B1F1EE677A009B10
:1065B0000BF00700C3ED017A55B0BDE8F08F33460C
:1065C0001FED147AE0E7F0EE477AE2E7B2EC017AE9
:1065D000013377EE877AE5E77FB510EE105A834AEC
:1065E00025F000439342044605DC002380ED000AB9
:1065F0004360002020E07E4A934238DC002D23F0E7
:106600000F03DFED7C7A7C4A18DD934230EE670A97
:1066100009BFDFED7A7ADFED7A7A30EE670ADFEDD7
:10662000797A30EE677A30EE470A80ED007A30EE04
:10663000670A80ED010A012004B070BD934230EE7C
:10664000270A09BFDFED6D7ADFED6D7A30EE270A9C
:10665000DFED6C7A30EE277A30EE470A80ED007A73
:1066600030EE270A80ED010A4FF0FF30E4E7664A7A
:10667000934270DC9FED657AB0EEC00AF6EE007AC8
:1066800040EE077AFDEEE77AF8EEE76A17EE900A39
:10669000DFED587A06EEE70A1F28DFED597A66EE3D
:1066A000A77A30EE677A17EE102A1DDC584E06EBFB
:1066B000800623F0FF01D6F8D065B14214D02260E5
:1066C00094ED007A30EE470A002D30EE670A84ED33
:1066D000010AB1DAB1EE477AB1EE400A84ED007AF0
:1066E00084ED010A4042A7E7DB15C2F3C751591AEE
:1066F0000829E4DDDFED417A66EEA77A30EE677AAD
:1067000030EE470A30EE670ADFED3E7A16EEA70A52
:1067100037EE406AF0EE407A16EE102AC2F3C75107
:106720005B1A192B04DC84ED006AB0EE470AC7E758
:10673000DFED387A66EEA77A37EE670A37EE407AF1
:1067400077EE677A9FED347A56EE877A30EE677A85
:1067500084ED007AB4E7B3F1FF4F06DB30EE400A78
:1067600080ED010A80ED000A43E7DA15863AA3EBD3
:10677000C25307EE903ABDEEE77ADFED286AB8EE35
:10678000C77A77EEC77A8DED017A67EEA67ABDEE0D
:10679000E77AB8EEC77A77EEC77A8DED027A67EEC0
:1067A000A67AF5EE407AF1EE10FACDED037A1AD121
:1067B000B5EE407AF1EE10FA14BF02230123214610
:1067C00001A8FFF737FD002DBFF636AFD4ED007AF4
:1067D000F1EE677AC4ED007AD4ED017AF1EE677AD2
:1067E000C4ED017A7EE70323E9E700BFD80F493FF4
:1067F000E3CB1640800FC93FD00FC93F0044353767
:106800004344353708A3852E800F494384F9223F3E
:10681000E0FB020000A3852E32318D24000080436E
:1068200010EE103A07B5114A23F00043934207DCFB
:10683000DFED0F0A012003B05DF804EBFAF788BE24
:10684000B3F1FF4F0CDA6846FFF7C6FE400000F0D8
:106850000200C0F10100DDED010A9DED000AEAE74A
:1068600030EE400A03B05DF804FB00BFDA0F493F89
:106870000000000010EE103A07B51E4A23F0004356
:10688000934206DCDFED1C0A03B05DF804EBFAF777
:106890003DBFB3F1FF4F04DB30EE400A03B05DF8BB
:1068A00004FB6846FFF798FE00F00300012807D0BC
:1068B00002280ED0A0B9DDED010A9DED000AE3E744
:1068C000DDED010A9DED000AFAF77EFFB1EE400A08
:1068D000E4E7DDED010A9DED000AFAF717FFF5E7A1
:1068E000DDED010A9DED000A012003B05DF804EB27
:1068F000FAF76ABFD80F493F0000000010EE103AC7
:1069000007B51F4A23F00043934207DCDFED1D0A61
:10691000002003B05DF804EBFAF756BFB3F1FF4F68
:1069200004DB30EE400A03B05DF804FB6846FFF775
:1069300053FE00F00300012808D002280FD0C0B990
:106940000120DDED010A9DED000AE2E7DDED010A1F
:106950009DED000A03B05DF804EBFAF7D7BE012005
:10696000DDED010A9DED000AFAF72EFFB1EE400AB7
:10697000D9E7DDED010A9DED000AFAF7C7FEF5E75C
:10698000D80F493F000000009FED0A7AF0EEC06A80
:10699000F4EE476AF1EE10FAF0EE407A06D8B5EE62
:1069A000400AF1EE10FA01D0FFF710BCB0EE670A12
:1069B000704700BFFFFF7F7F10EE103A3F49DA0FAC
:1069C00023F000438B4282B01BD901F5313101F530
:1069D000E4718B4206D93AB9DFED397A20EE270A05
:1069E00002B07047002A5BD09FED367AC7EE007A7E
:1069F000CDED007A009934498B4251D99FED330A8D
:106A0000EEE733498B4236D932498B4248D8C2F13E
:106A10000100801A07EE900A9FED2F7AF8EEE77AD0
:106A2000F0EE406A47EEC76A9FED2C0A67EE807A67
:106A300036EEE70A20EE006ADFED295A9FED297A4B
:106A400006EE257AF0EE405A47EE465AB0EE006A5E
:106A500020EE250A36EE656A80EE067AB7EE000A69
:106A600077EE677A77EEA67A37EE800A0028B7D0FD
:106A700002B0FFF7ABBBB3F1645F0BD8DFED107A68
:106A800070EE277ACDED017AF7EE007A019B30EEB9
:106A9000270AA5E7F0EE406A0020DFED0C7AC9E78F
:106AA00011489FED127A00EB8200D0ED007A40EEA3
:106AB000077AFDEEE77A17EE900AABE74FACAE42ED
:106AC0000000007F01000080B4F1CF420000000010
:106AD0001872B13E9215853F0072313F8EBEBF35B0
