:020000040800F2
:10000000F8FF01205D010208CF260508BD2605087E
:10001000D1260508DD260508E926050800000000B0
:10002000000000000000000000000000F5260508A8
:10003000F72605080000000099360508D1360508A6
:1000400001000208E5270508F1270508F92705083A
:10005000C5BA050801000208792705087F270508A9
:10006000852705088B270508912705088958050865
:1000700099580508A9580508B9580508C958050828
:10008000D9580508E95805080100020801000208CE
:10009000E17A0508E97A0508F17A05089727050845
:1000A0000D28050813280508252805082B2805080C
:1000B00031280508372805083D280508B128050816
:1000C000B7280508BD280508C3280508010002084F
:1000D000010002088D2805089328050899280508BD
:1000E000BB270508EB27050805270508692805082B
:1000F0006F2805088728050881280508F95805088C
:100100000100020879C40508452805080100020815
:100110009F280508A52805085D2805086328050807
:1001200009590508195905082959050839590508B3
:100130004959050800000000000000000100020805
:10014000F77A0508FF7A0508077B0508F9260508F0
:10015000595905086959050879590508AB28050852
:100160000100020801000208010002080100020863
:100170000100020801000208000000000000000069
:10018000010002080100020842884378007843EA2F
:10019000022340EA032070470B0A017043700B0CE6
:1001A000090E8370C1707047036A0239023B8B42AB
:1001B00083BFC389406B01FB0300002070470246E8
:1001C00000F10B010020C30143EA500312F8010BB8
:1001D00050FA83F38A42D8B2F5D1704737B50D464D
:1001E000044620B9092000232B6003B030BD03680A
:1001F000002BF7D05A79002AF4D081885A8991428D
:10020000F0D118680DF10702062102F0EDFA9DF811
:10021000073003F00103184310F0FF00E2D1236818
:10022000E2E738B50468054614F8010B20B140F246
:10023000B51141F0FFFA08B12C6038BD4FF0FF3026
:10024000FBE7CA7E8B7E032843EA022301BF487D79
:100250000A7D42EA002243EA024318467047C2F38D
:1002600007238A76CB760378032B01BF120C0A751D
:10027000120A4A75704770B5C37904460BB900205D
:1002800070BD00F13C06826B00680123314602F02C
:1002900096FA80B9A16BE36A626AE071CB1A934265
:1002A000EDD2A379022BEAD10A440123314620681A
:1002B00002F085FAE3E70120E2E7836B8B4270B539
:1002C00006460D4612D0FFF7D6FF044660B92A460F
:1002D000012306F13C01306802F062FA00281CBFDD
:1002E0004FF0FF350124B563204670BD0024FBE7C5
:1002F000002310B5C3714FF0FF3383630446FFF74B
:10030000DCFF18BB94F83B2294F83A3243EA02230C
:100310004AF6552293421BD194F83C30EB2B03D084
:100320001833DBB2012B15D803220B4904F17200FC
:1003300047F0A2FD48B10522084904F18E0047F0BC
:100340009BFD002814BF0220002010BD0420FCE704
:100350000320FAE70220F8E76BEA06086FEA0608CE
:100360002DE9F043437987B0044601F0FE059BB1C7
:1003700006210DF10702006802F036FA9DF8070029
:10038000C10709D4002D00F0268110F0040000D030
:100390000A2007B0BDE8F083002363710DF1070266
:1003A0000521206802F020FA9DF80730DA0700F1F5
:1003B00014810DB15B07EBD400212046FFF798FFB5
:1003C0000228034603D0012824D8257975B302AD4D
:1003D00004F2022104F242262F4611F8040C10B157
:1003E0000846FFF7D1FE10318E4245F8040BF4D1D8
:1003F000267906B1013E57F826507DB129462046A0
:10040000FFF776FF0346227952B9012B0ED9013648
:10041000032EF0D9042B07D10120BAE70323F2E71A
:10042000042BF9D0012B01D90D20B2E794F8482014
:1004300094F8473043EA0223B3F5007FF4D194F8EF
:10044000533094F8526056EA032604D104F1600058
:10045000FFF79AFE064694F84C1066624B1E012B7D
:10046000A171E1D894F849901FFA89F3E381002B38
:10047000DAD009F1FF3313EA090FD5D194F84E30E1
:1004800094F84D7047EA03273FB21FFA87F818F037
:100490000F0FA4F80C80C7D194F8503094F84F0097
:1004A00050EA032003D104F15C00FFF76DFE94F8DD
:1004B0004B2094F84A3053EA0223B5D006FB01FCE6
:1004C00003EB181262448242AED8801A4845B0FB52
:1004D000F9F1A9D346488142A6D84FF6F57081427A
:1004E0007DD94FF0030902312B442A44B9F1030F9F
:1004F0002162A562E36262635BD194F8672094F89D
:10050000663043EA02231F433FB2002F8CD104F12F
:100510006800FFF739FE2063890001F2FF11B6EB96
:10052000512F81D34FF0FF33C4E90533B9F1030FE5
:100530004FF0800323722FD194F86D2094F86C3023
:1005400043EA0223012B27D1691C2046FFF7B5FEA1
:1005500010BB94F83B2294F83A32207243EA02230B
:100560004AF65522934217D104F13C00FFF70CFEE6
:10057000204B984210D104F50870FFF705FE1E4B82
:10058000984209D104F50970FFF7FEFDA06104F55A
:100590000A70FFF7F9FD6061184A84F80590138826
:1005A00001339BB2138063810020154B2361E0610E
:1005B000EFE6B8F1000F3FF437AF6344B9F1020F33
:1005C00023634FEA41031BBF5B1801F00101194689
:1005D00001EB5301A1E72846DBE60320D9E640F60C
:1005E000F57949458CBF4FF002094FF001097AE7D0
:1005F000F5FFFF0F52526141727241613C040020CD
:100600003E04002001292DE9F04705460C46174617
:1006100072D9036A8B426FD94379022B3FD0032BE7
:1006200050D0012B68D101EB5108C16A01EB582170
:10063000FFF743FE064638BB05F13C0908F1010A05
:10064000C8F3080814F001041FBF19F8083003F0BC
:100650000F023B0103F0F00314BF1343FBB209F890
:100660000830E96A0123EB7101EB5A212846FFF7B4
:1006700024FE064640B9CAF3080A44B1C7F3071777
:1006800009F80A700123EB713046BDE8F08719F8CC
:100690000A30C7F3032723F00F031F43F0E7C16AB3
:1006A00001EB1421FFF709FE06460028ECD1640097
:1006B00005F13C0304F4FF741A191F55C7F307270B
:1006C0005770DFE7C16A01EBD411FFF7F6FD06466C
:1006D0000028D9D1A40005F13C0304F4FE741C44A5
:1006E0002046FFF751FD27F0704700F07041394375
:1006F0002046FFF751FDC5E70226C5E70129F8B5F9
:1007000005460C4652D9036A99424FD24379022BCF
:1007100029D0032B38D0012B48D101EB5106C16AF7
:1007200001EB5621FFF7C9FD10B14FF0FF30F8BDC6
:10073000771CE96AC6F308062E4401EB57212846C8
:1007400096F83C60FFF7B9FD0028EED1C7F3080723
:100750003D44E30795F83C0046EA00204CBF000901
:10076000C0F30B00E3E7C16A01EB1421FFF7A5FD1D
:100770000028DAD164003C3504F4FF742B19285D9D
:100780005B7840EA0320D2E7C16A01EBD411FFF79E
:1007900094FD0028C9D1A40005F13C0004F4FE74C6
:1007A0002044FFF7F1FC20F07040C0E70120BEE7D5
:1007B000B1F5001FF8B506460D4601D30220F8BD7D
:1007C000CA06FBD1826804683161CAB96379022B19
:1007D00001D9236B9BB9A389B3EB551FEED9236BCA
:1007E000B361B3697261002BE8D003EB55233C344D
:1007F000C5F308052C44B361F4610020DFE71A4615
:10080000E7897F02BD42114604D22046FFF7CCFCA7
:10081000B061E6E73068FFF771FF431C024606D07F
:100820000128CBD9236A8342C8D9ED1BEAE701200E
:10083000C5E72DE9F041804605680F4649B96E6964
:10084000C6B12B6AB34298BF0126AB69A3B9002495
:1008500006E02846FFF752FF0128044603D801248A
:100860002046BDE8F081421C51D02B6A8342F7D864
:100870003E46EAE70126E8E7BE4215D12B6AD8F8E2
:100880000000741CA34298BF02242146FFF736FFE4
:100890000128E4D0431C3AD0D8B16B69012B03D9AD
:1008A0002A6A934238BF1E4634462B6A0134A3425B
:1008B00002D8012ECBD902242146D8F80000FFF738
:1008C0001DFF40B10128CAD0013020D0B442ECD184
:1008D000BDE7002CE8D04FF0FF3221462846FFF755
:1008E00091FE90B957B92A6AAB696C61023A93429A
:1008F00010D92B7A43F001032B72B1E72246394617
:100900002846FFF77FFE0028EDD00128A7D14FF041
:10091000FF34A5E7013BAB61EBE7F8B50D46012DD0
:100920000746114604682BD9236AAB4228D92AB15D
:100930004FF0FF322046FFF765FE30B92946386890
:10094000FFF7DCFE064608B90020F8BD012817D0E5
:10095000431C17D0002229462046FFF753FE0028EB
:10096000F3D1226AA369911E8B4205D20133A361A0
:10097000237A43F001032372B2423546DED8E3E71F
:100980000220E2E70120E0E7F8B505460E46FFF752
:1009900072FC0446F8B931462846FFF705FC05F11C
:1009A0003C060746A8634FF400722146304647F0E4
:1009B0004DFAEB899C4204D3E889001B18BF012043
:1009C000F8BD01233A193146286801F0F8FE0028E5
:1009D000F2D10134EDE70120F2E72DE9F843076990
:1009E00005682037B7F5001F24BF002383618369A2
:1009F0000446894673B1C7F30808B8F1000F39D12E
:100A000041690133836139B9AB89B3EB571F31D8E1
:100A10000023A36104200BE0EB89013B13EA572379
:100A200028D12846FFF76AFE0128064602D8022090
:100A3000BDE8F883421C01D10120F9E72B6A83420B
:100A400012D8B9F1000FE3D061692046FFF7F1FE3B
:100A50000646A8B10128EAD0431CEDD0014628463D
:100A6000FFF792FF0028E7D1666131462846FFF77D
:100A70009BFBA0613C3545442761E5610020D7E739
:100A80000720D5E7F8B50F46002104460668FFF7B2
:100A90008FFEA8B90546A1693046FFF70EFC78B96C
:100AA000E3691B78E52B00D01BB90135BD4201D1AC
:100AB000F8BD054601212046FFF78FFF0028EAD048
:100AC000042808BF0720F3E72DE9F84FFF25066843
:100AD00081460F462C464FF0040A4FF6FF78D9F8AE
:100AE000181019B9BAF1000F78D067E03046FFF757
:100AF000E4FB8246002861D1D9F81C000378002B62
:100B000076D0C27AE52B02F03F0289F806205BD04E
:100B10002E2B59D022F02001A1F1080CDCF10001AC
:100B200041EB0C01B9424FD10F2A52D1590649D598
:100B3000D9F81020457BC9F82C2003F0BF03427B75
:100B4000AA4241D1C17E827E42EA012212B2002A2B
:100B50003AD10178D6F810C0DFF89CA021F040010E
:100B600001390D2461434FF0010E1AF8014B00EBDF
:100B7000040B045D9BF801B044EA0B24BEF1000FA6
:100B800024D0FF2920D82CF81140A646013101328B
:100B90000D2AEAD10278520607D5BEF1000F04D023
:100BA000FF2911D800222CF811205C1EE4B200218C
:100BB0004846FFF712FF8246002890D00023C9F86C
:100BC00018300DE09C42BAD0FF24F0E74445DED057
:100BD000FAE744B9FFF7F3FAA84204D14FF0000A4C
:100BE0005046BDE8F88F4FF0FF33C9F82C30F7E7D7
:100BF0004FF0040AE2E700BF4CEA0608C16A4B1C4A
:100C00002DE9F04104460568066918D1E5274FF043
:100C10000108A1692846FFF750FB60B9E3691F701E
:100C200085F807802369B3420DD201462046FFF7BD
:100C3000D4FE0028EDD0042808BF022003E0FFF70F
:100C4000B7FD0028E2D0BDE8F08100002DE9F04FAB
:100C5000002185B00446D0F80080FFF7A9FD814649
:100C6000002840F08B804FF0FF334FF0FF0AE36223
:100C700057460093A1694046FFF71FFB81460028B5
:100C80007CD1E5692E78002E7CD0EA7AE52E02F040
:100C90003F03A37103D0120704D50F2B04D0009B90
:100CA000E36252E00F2B57D194F82B30580642D410
:100CB000710648D5236995F80DA0E36206F0BF06DA
:100CC0006B7B534541D1EA7EAB7E53EA02233CD194
:100CD0002F78D8F810B007F03F077B1E0D275F4331
:100CE0002A4B012113F8012BA81815F8029040781F
:100CF00049EA002959B3FF2F039326D8484640F00C
:100D0000ADFD7A1C02903BF81700019240F0A6FD61
:100D10000299814219D1019A039B494617461C4A00
:100D20009A42DFD12B785A0603D511B13BF8173020
:100D30005BB9013EF7B200212046FFF74EFE814627
:100D4000002897D01AE0B742BAD0FF27F3E74FF652
:100D5000FF729145E3D0F8E727B92846FFF72FFA4D
:100D600050450BD094F82B30DB0798D40B2204F1BC
:100D70002001284647F080F8002890D1484605B069
:100D8000BDE8F08F4FF00409F8E700BF4CEA060811
:100D900059EA06082DE9F04F90F82BB01BF0A0049B
:100DA00089B0054640F0E38007683A6932F81430AC
:100DB000002B6CD105F1200696E807000DF1140A0E
:100DC0001BF0010F8AE8070000F0D880402385F867
:100DD0002B304FF001089AE80700B4463B69ACE8B5
:100DE00003002CF8022BB8F1050F4FEA12428CF8E1
:100DF000002060D9981E424630F8021F002948D1D1
:100E00000DF1130C072102F00F0E0EF130003928FE
:100E100088BF0EF137000F2A0CF8010901F1FF31EC
:100E20004FEA121049D808AB5A187E2002F8140C69
:100E300005F11F00844600228A4206D01CF801EF0B
:100E4000BEF1200F02F1010939D107299CBF08AB7F
:100E500003EB010C02F1010296BF1CF814CC4FF019
:100E6000200C0131072A00F802C0EED92846FFF70E
:100E7000EDFE814600287DD108F10108B8F1640F2C
:100E8000A9D14FF00709484609B0BDE8F08F0134F9
:100E90008CE74FF0100C01F0010E0EEB4202D30371
:100EA00044BF82F4883282F02102BCF1010C4FEA87
:100EB0005101F0D1A0E74246A2E70246A3E74A4625
:100EC000BAE729692846A1EB4411FFF771FC814676
:100ED0000028D8D13046FFF772F94FF6FF7801901D
:100EE000A9693846FFF7E9F981460028CBD1EB69BB
:100EF000019AD7F810E05A73E1B24FF00F024FF0A9
:100F00000D0CDA72DFF8D8A018734A1E0CFB02F23F
:100F10009876D876844640451AF8019B18BF3EF86B
:100F2000120003F8090003EB090B0CF1010C18BFC8
:100F300001324FEA1029002808BF4046BCF10D0FCE
:100F40008BF80190E7D1404502D03EF812200AB953
:100F500041F0400119700123FB7100212846FFF781
:100F60003CFD814600288ED1013CB9D11AE04FF0FA
:100F7000060988E7042886D185F82BB01BF0020FFC
:100F80001BBF0C340D230124B4FBF3F418BF013450
:100F900021462846FFF776FD814600287FF473AF8F
:100FA000013C8ED1A9693846FFF787F981460028B0
:100FB0007FF469AF01462022E86946F047FF03CE7F
:100FC000EB6918605960B278318819819A7295F886
:100FD0002B30EA6903F0180313730123FB7152E706
:100FE0004CEA0608F8B50446FFF745F9054600281F
:100FF00042D16379032B37D1277A012F34D104F101
:101000003C0601464FF40072304646F01FFF552360
:1010100084F83A32AA2384F83B32522341227221C7
:1010200084F83C3084F83D30612384F83E3084F805
:101030003F2084F8222284F8233284F8201284F896
:10104000211204F50970A169FFF7A6F8616904F59A
:101050000A70FFF7A1F8A26A20680132A2633B463A
:10106000314601F0ACFB257200221146206801F0E8
:10107000BBFB003018BF0120F8BD2DE9F04700266A
:10108000D0F800A08E75836980460C46002B00F0D6
:101090009280C36A01336DD1D8F81C1000234D1E15
:1010A00018462E2615F8012F202A00F101000CD039
:1010B000052A08BFE522092804D10B2B9EBFE7189B
:1010C00001337E72E71801337A720B28EAD1E218F5
:1010D00000205072A27D002A5CD1002B51D06FF00D
:1010E000080604F109000825361B321810F8013BE8
:1010F000002B49D09BB22E2B5FD0A3F14102192ABD
:1011000003D80A7B154200D020330373EDE7B9F111
:10111000000F05D100F520539BB2B3F5006F12D339
:1011200040F2B51140EA094040F064FBFF28C7F1E6
:10113000FF0518D9012D20D9E319020A9A75D8752F
:1011400002231F44002002368146DAF81030985BF3
:101150000028DCD13D46B9F1000F18BF0025254419
:101160000023AB7598E750B1002DF4D0E3199875C2
:101170000123E6E7B1463746E7E70025EBE70546FA
:10118000E9E73F23A37501222244002393750B7BDB
:1011900003B96372CB7A237201F11C00FEF7F4FFEE
:1011A0002060CA7D8B7D43EA0223E3804A7E0B7E6A
:1011B00043EA0223A380BDE8F0871025A5E70000DD
:1011C0002DE9F04F0B78D0F800B02F2B87B00646F2
:1011D000884601D05C2B0AD1424613782F2B9046CB
:1011E00002F10102F9D05C2BF7D0002301E0DBF81B
:1011F0001C30B36098F800301F2B00F22D81802343
:1012000086F82B3000213046FFF7D2FA07B0BDE850
:10121000F08FFE2D00F249812AF81530013521E1C9
:1012200008F101020592DDF8148098F800202F2AB9
:10123000F6D05C2AF4D0202B34BF04240024012DE6
:101240002CD1BAF800302E2B2ED100232AF81530DD
:1012500006F120029D428CBF2E21202101330B2B51
:1012600002F8011BF6D144F0200486F82B403046EA
:10127000FFF7ECFC96F82B30002800F0DC80042807
:10128000C4D1990603F0040240F1D180002A00F095
:10129000E380802386F82B300020B7E7022D03D1AE
:1012A000BAF802302E2BCCD00AEB450385BB0021C7
:1012B0000AEB45032AF81510002D00F0F6803AF8E5
:1012C0001120202A01F101002AD009B92E2A01D1CA
:1012D00044F0030433F8022D2E2A01D0013DF9D148
:1012E0004FF020324FF0000972623262C6F82720B8
:1012F00008234F463AF811004A1CF8B1202803D0C1
:101300002E280FD1954211D044F003041146F1E785
:1013100033F8022D202A01D02E2AC8D1013DC5E77D
:101320000146CCE7994504D2954229D10B2B20D117
:1013300001E00B2B18D144F003040B2396F8202076
:10134000E52A04BF052286F82020082B04BFBF0031
:10135000FFB207F00C030C2B03D007F00303032BA1
:1013600059D144F0020480E7954202D044F00304CE
:10137000E4D3BF00FFB22A460B234FF00809C5E7AC
:101380007F2813D9CDE9022340F2B51144F00203BE
:10139000019340F02FFA10F0800FDDE9022310D006
:1013A00000F07F004349085C019C30B1DFF80CC1BC
:1013B0001CF8011BE9B18142FAD144F003045F201B
:1013C00010E0FF28F0D9591E894503D344F00304E7
:1013D00099469BE706EB0901040A81F82040019C2D
:1013E00009F1010906EB090109F1010981F8200061
:1013F0008CE7A0F1410189B2192902D847F0020710
:10140000F0E7A0F1610189B219299EBF203847F0A9
:10141000010780B2E6E7A3073FF527AFFD0748BF06
:1014200044F01004780748BF44F008041DE7002A80
:1014300008BF0520EAE65A073FF5E8AEB379DB06B8
:1014400035D533699BF80500C3F308030BF13C0164
:101450001944FEF7F6FEB0603368CDF81480D3F877
:1014600010A0002505A8FEF7DCFE421C1DD0B0F53B
:10147000803F24BF030C2AF8153083B228BF013502
:101480001F2B7FF6D0AE2F2B3FF4CDAE5C2B3FF45D
:10149000CAAE7F2B3FF6BDAE0749184611F8012BA7
:1014A000002A3FF4B6AE8242F8D10620AEE605200F
:1014B000ACE600BFCCE90608C6EA0608CFEA060893
:1014C00000214171FEF74CBF2DE9F04305468DB078
:1014D00090461E460C46002900F0BE8003F03F07F0
:1014E0003946FEF73DFF002840F0AE804146684691
:1014F0000095FFF765FE024620B99DF92B30002BC1
:10150000B8BF062216F01C0F6DD0002A3ED0042A68
:1015100039D16846FFF73EFC0246A0BB47F00807FA
:10152000DDF81C902E46494616F8050FFEF789FE99
:1015300080465AF0DDFF014609F10E00FEF72CFE51
:10154000079B2022DA72079900223046FEF787FEB9
:10155000079B00221A775A779A77DA770123EB7183
:10156000B8F1000F1BD041466846AE6BFFF7D5F9C6
:10157000024640B931462846FEF79FFE08F1FF318A
:101580006961024658B10023236028E09DF80630C7
:1015900013F0110F31D1700758D43107C0D4AB6BA1
:1015A000079E2362666268793907314648BF47F073
:1015B0004007FEF746FE0146A06006F11C00FEF75C
:1015C000E3FD6B89A380BA064FF000030646E06096
:1015D000256027746374E361636110D400221046B0
:1015E0000DB0BDE8F083002ACDD19DF80630DA06B3
:1015F0002ED4B607D3D5D807D1D50722C3E7002804
:10160000ECD0EF8960617F02B7420FD30022A16165
:10161000002AB8D1C6F30803002BDFD02846FEF716
:10162000C3FDB8B100EB5620E061D8E72068FFF7B2
:1016300065F801280146A6EB070603D9431CE3D150
:101640000122E4E70222E2E702469CE708229AE749
:10165000042298E7022296E70922C0E72DE9F04F1D
:10166000994685B000238846C9F8003003A904468E
:101670001546FEF7B3FD0646E0B9667CD6B9237C75
:10168000DA077BD5E3686769DF1BAF4228BF2F46C7
:1016900087B16269C2F30803002B56D1039BDB8933
:1016A000013B13EA522A13D142B9A06801280AD893
:1016B00002266674304605B0BDE8F08FA169206847
:1016C000FFF71CF8F2E7431C01D10126F1E7A06106
:1016D000DDF80CB0A1695846FEF766FD0028E7D09A
:1016E0000AEB0003B7F5007F01932CD37D0ABBF80A
:1016F0000E20DBF800000AEB0501914288BFA2EB47
:101700000A052B46019A414601F04AF80028DCD12F
:101710000399CB795BB1886B019BC01AA84206D2B2
:101720004FF400723C3108EB402046F04BFB6D0259
:10173000D9F800302B44C9F8003063697F1BA844F6
:101740001D446561A4E7019BE3616569E169039854
:10175000C5F30805C5F50075BD4228BF3D46FEF737
:10176000ACFD0028B1D1039963693C31C3F3080390
:101770002A461944404646F025FBD9E7072699E753
:101780002DE9F04F9B4685B000238946CBF8003009
:1017900003A904461746FEF721FD064618BB667CE2
:1017A0000EBB237C9A0740F1AA806369FB4200D3F9
:1017B000DF43A7B16369C3F30802002A40F08280C7
:1017C000039AD289013A12EA532201921ED173B9C7
:1017D000A06870B901462046FFF72BF848B9237C72
:1017E00043F040032374304605B0BDE8F08FA16993
:1017F000F1E7012802D102266674F4E7431C01D107
:101800000126F9E7A368A06103B9A0600398E36922
:10181000826B9A4203D1FEF72EFD0028F0D1DDF84D
:101820000CA0A1695046FEF7BFFC0028E3D0019B45
:10183000B7F5007F03EB000836D3019ABAF80E30F3
:10184000DAF800007D0A2A449A4284BF019A9D1A60
:101850002B464246494600F0B2FF0028D0D1DDF8C1
:101860000CA0DAF83810A1EB0801A9420BD20190C4
:101870004FF4007209EB41210AF13C0046F0A2FA54
:10188000019B8AF807306D02DBF800302B44CBF85F
:10189000003063697F1BA9441D44E3686561AB4266
:1018A0002CBFE360E56084E76269E3689A4207D38E
:1018B0005046FEF7E0FC0028A2D1039BC3F8388015
:1018C000C4F81C806569E1690398C5F30805C5F58E
:1018D0000075BD4228BF3D46FEF7EFFC00288FD1C2
:1018E000039863693C30C3F308032A461844494609
:1018F00046F068FA039B4FF00102DA71C4E707264D
:1019000071E7F7B501A90446FEF768FC054660BB20
:10191000237C5B0629D55AF0EBFD216A0746019826
:10192000FEF7CBFC054600BB666AF37A43F0200362
:10193000F3722068A26831460530FEF790FCE1683A
:1019400006F11C00FEF728FC394606F11600FEF7EA
:1019500023FC0198B5740123F574C371FFF742FBB2
:10196000237C23F0400305462374284603B0F0BDD2
:1019700013B50446FFF7C5FF28B901A92046FEF7B5
:101980002DFC00B9206002B010BD70B50E468CB0C1
:1019900000210546FEF7E4FC044660B9314668467E
:1019A0000095FFF70DFC044690B99DF92B30002BF4
:1019B00004DA029BEB6120460CB070BD9DF8063046
:1019C000DB0609D507996879FEF73BFCE861F2E789
:1019D000042808BF0524EEE70524ECE72DE9F047CD
:1019E0000D460021D2B0297080469146FEF7B8FC22
:1019F0000446C8B9D8F81C30CDF8008002934E4692
:101A0000DDF808A0BAF1000F14D14E4502BF06F16F
:101A1000FF362F23AB55711B2B469A5D1A7001358B
:101A20006A1891452B46F8D8002320462B7052B0F7
:101A3000BDE8F08720216846FEF7BAFE00284CD1A9
:101A400006994046FEF739FC0746002843D107991E
:101A500098F80500FEF7F5FB394602906846FEF758
:101A6000A7FE002839D100216846FFF72DF8074668
:101A7000B8BB079998F80500FEF7E3FB50450AD07C
:101A800039466846FEF7A9FF0028ECD00446042C2E
:101A900008BF0224C8E70CA96846FFF7EEFA0DF16B
:101AA0004602394612F8010B4B1C58B9B34216D8FE
:101AB000AA190B4643B9731ECA43591A2F236B54F4
:101AC00016449DE71946EDE7013B0CA81844807DBC
:101AD00002F8010DEEE70446A6E70446A4E7112448
:101AE000A2E70446D3E7F7B50D4601A90446FEF781
:101AF00075FB0646002850D1667C002E4DD1E36868
:101B0000AB4204D2227C12F0020F08BF1D46002215
:101B1000636962619DB90025E2686369934282BF8F
:101B2000227CE36042F04002C3F3080388BF2274C2
:101B3000002B32D0E369AB4218BFE5612DE0019A7A
:101B4000D7897F02FBB1013B6A1EB3FBF7F1B2FB01
:101B5000F7F28A4217D37A421340A1696361ED1A02
:101B60000029D8D0BD42636921D863692B446361E1
:101B7000C5F30803002BCED00198FEF715FB50B13A
:101B800000EB5525C8E7A16879B92046FEF751FE5C
:101B90000128014604D102266674304603B0F0BD28
:101BA000013001D10126F7E7A160A161D8E73B44EC
:101BB0006361237C9A07A5EB070506D52046FEF74F
:101BC00038FE014628B90546CFE72068FEF796FDA6
:101BD00001464B1CE6D00129DDD9019B1B6A8B42D3
:101BE000D9D9A161BEE770B5054616460C4621B3AA
:101BF0000021FEF7B5FB68B9256031462046FFF7A6
:101C0000DFFAE0B994F92B30002B0BDBA379DB066C
:101C100003D40520002323600EE06879E169FEF714
:101C200010FBA0606B89A38000212046FEF7C0FD59
:101C30000428EED00028EDD170BD0920FCE704286F
:101C4000E7D0E7E713B501A90446FEF7C7FA00B9E4
:101C5000206002B010BD73B50D4601A90446FEF721
:101C6000BDFA20B9014620461DB9FEF7A1FD02B01C
:101C700070BDFEF729FF10F0FB06F8D1294620467B
:101C8000FFF7FBF931462046FEF7A7FE042808BF00
:101C90000020ECE770B50E468CB0002104461546D6
:101CA000FEF75EFB0094044670B931466846FFF7C4
:101CB00087FA044640B99DF92B30002B07DB1DB194
:101CC00029466846FFF7D9F920460CB070BD0624B6
:101CD000FAE72DE9F84F884600210446FEF740FB5D
:101CE000074640B9D4F820A0A369AAF102029342A2
:101CF00004D8C8F800303846BDE8F88F6379012B66
:101D000017D10226054631462046FEF7F7FC431C54
:101D100037D0012837D000B90135236A0136B342E4
:101D2000F1D8C8F80050237AA56143F0010323726B
:101D3000E1E7E16A0646054604F13C0936B920466A
:101D400001F1010BFEF7B9FAF8B959466379022B94
:101D500009EB06000DD119F80630427853EA022348
:101D600008BF01350236BAF1010AC6F30806E5D10B
:101D7000D7E7FEF709FA30F0704308BF01350436A3
:101D8000F1E70127CDE70227CBE70746C9E7F0B522
:101D90000E4699B002210546FEF7E2FA044688B9DC
:101DA000314668460095FFF70BFA044650B99DF896
:101DB0002B3098063BD4190639D49DF80670FA07E3
:101DC00003D50724204619B0F0BD07996879FEF7BE
:101DD00038FAFB0606460BD46846FEF70FFF0446AA
:101DE0000028EFD1D6B92846FFF7FCF80446E9E70A
:101DF000EB698342E5D00E9021460CA80C95FEF7C6
:101E0000D7FC04460028DDD101460CA8FEF75CFE95
:101E100004460028D5D00428D4D1DDE70246314657
:101E20006846FEF77AFD04460028CBD1DBE706249E
:101E3000C8E72DE9F0430E4691B002210546FEF7B2
:101E40008FFA044600286BD1314604A80495FFF7A9
:101E5000B7F90446002871D0042861D19DF83B10E1
:101E600011F020016CD168460095FEF7E2FC0646B1
:101E7000002859D0012859D0431C5C425C415AF0DB
:101E800037FB8046002C53D131462846FEF77CFDB7
:101E9000044600284CD14FF02033EB632B64C5F887
:101EA00043302E2385F83C30102385F847304146D7
:101EB00005F1520005F13C046F1DFEF76DF9324645
:101EC00021463846FEF7CBF905F15C031A4651F876
:101ED000040B42F8040B9942F9D12E2385F85D30AA
:101EE000069A38464FF00109FEF7B9F985F80790D0
:101EF00004A8FEF74FFF0446D0B90B9841461630B0
:101F0000FEF74AF932460B993846FEF7A8F90B9BC3
:101F10001022DA72284685F80790FFF763F8044626
:101F2000204611B0BDE8F0830724A8E70224A6E705
:101F3000002231466846FEF7F0FCF1E70824EFE79F
:101F40000624EDE7F0B50C46A1B00221064617467F
:101F5000FEF706FA002877D1214608A80896FFF771
:101F60002FF9002870D19DF84B3013F0A00F6DD1E0
:101F70000F9B6C4603F1200518685968224603C27E
:101F80000833AB421446F7D108AD0FCD14AC0FC4E3
:101F90000FCD0FC495E80F0084E80F00394614A850
:101FA000FFF70EF948B9169A0A9B9A4203D1189A7C
:101FB0000C9B9A4203D0082046E0042844D114A880
:101FC000FEF7E8FE00283FD11B990DF10D0301F14A
:101FD0000D020DF11D0053F8044B42F8044B8342EF
:101FE000F9D1188810809B7893709DF80B30DA0631
:101FF00058BF43F020030124CB72F471CB7ADB0687
:102000001BD50A9A169B9A4217D07079FEF719F9D8
:1020100001463046FEF7C8F80146C8B13046FEF723
:102020004CF988B996F85D302E2B06D1169A06F138
:102030005C01701DFEF713F9F47108A8FEF7DEFDD0
:1020400010B93046FEF7CEFF21B0F0BD0620FBE709
:102050000220F9E7F0B595B0074601910221FEF79D
:102060007FF90546002833D102AE4FF020330293AA
:1020700004467360C6F80730019B1B781F2B20D8DD
:102080009DF80830E52B22D01CB1631EF25C202A9B
:1020900035D0002108A808970A91FEF789FB05466C
:1020A000B0B9012108A8FEF70FFD98BB0F9A44B301
:1020B000334603CB1060516019889B78937211816D
:1020C00021E001A8FEF7ADF8B0F5803F03D3062567
:1020D000284615B0F0BD3FF0C1FB40F2B5113FF00E
:1020E00089FB0028F3D01D4A12F8013B13B1984236
:1020F000FAD1ECE7FF2822D80A2C28D9E7E71C46BA
:10210000C2E7E52313700123FB713846FEF76AFF2F
:102110000546DDE70428FBD1002CD9D0012108A811
:10212000FEF7B0FC05460028D2D1202201460F98C8
:1021300045F08CFE0F9B0822DA720F9AB8E7092C43
:10214000C5D814AB2344020A03F8482C013414AB5D
:102150002344013403F8480C8EE700BF59EA06080F
:102160002DE9F04F07688BB01C46002343710391A3
:1021700003790293154605210DF11F02384600F040
:1021800033FB9DF81F30DA0700F192825E0700F101
:10219000918208AA0321384600F026FB30B9089A3C
:1021A000531EB3F5004F01D21A4201D00123089308
:1021B0005DB15F4BA5F500729A4203D913200BB0B5
:1021C000BDE8F08F6B1E2B42F8D1002C00F074821A
:1021D000149BB3F5007FC0F06F82029B002B63D08D
:1021E000012300222146384600F0DAFA08B1012026
:1021F000E5E794F8FF2194F8FE3143EA02234AF61A
:102200005522934201D00E20D9E7029B04EB031123
:1022100001F5D7710B79002BF5D001F10800FDF71E
:10222000B3FF814601F10C00FDF7AEFF0990DDF828
:1022300024A0BAF1150FE6D9B5F5813FBED2039BB4
:1022400013F0020E4FEA552244D003F00701022991
:1022500000F04082D80740F13D82002A59D135482C
:102260004FEA1A35012630F8021B09B1A94239D9C3
:1022700040F6F571BAFBF6F58D429BBF05EB4505BF
:10228000013502356D088CBF6D00033505F2FF1571
:102290004FF020018CBF4FF002084FF001086D0A8B
:1022A0004FF0010B059139E209AA0121384600F0EF
:1022B0009BFA00289BD1039B13F0080F099B14BFC6
:1022C0004FF000094FF03F094B459CD3A3EB0903A6
:1022D0000993ACE70399C907BFD46FE7520000E246
:1022E000114605E27600BEE7B8F1020F24D1049B47
:1022F0004FF6F5718B420ED9002A40F0E78172004B
:10230000402AAAD9BEF1000F40F0E781802A3FF6AB
:102310007AAF1646ACE7049B40F6F5718B4213D8B2
:10232000002A7FF470AF7200802A96D96BE700BF55
:1023300000FEFF0076EA0608049A40F6F5739A421A
:102340003FF661AF4FF001084FF4007200212046C4
:1023500045F07CFDD94B84F80EB01A6822605A68AB
:1023600062601A899B7A2281B8F1030F4FF0020252
:10237000A3724FF00003E3722273CBF3072B4FF0ED
:102380000102637418BF0223BAF5803F667384F8B4
:102390000FB02274A37480F0228184F813A0CAF3D2
:1023A000072A84F814A0F82363753F2323764FF09F
:1023B000000AFF2384F819A0A37684F81BA04946DD
:1023C00004F11C00FDF7E8FEB8F1030F40F00D81A9
:1023D0005AF08EF8014604F14300FDF7DDFE294670
:1023E00004F12400FDF7D8FE022384F82C300123E9
:1023F00084F83030062384F83230802384F840306B
:10240000292384F84230AE4B84F82DA084F82EA006
:1024100084F82FA084F831A084F833A004F1470297
:1024200003F1100153F8040B42F8040B8B42F9D16D
:1024300019889B7893704FF0550B6FF055031180FE
:10244000384684F8FF3184F8FEB101234A4621461C
:1024500000F0B5F9824600287FF4C9AEB8F1030F49
:102460003FD1012309F106022146384600F0A7F9C1
:102470004FF400725146204645F0E8FC5223237089
:1024800063706123A37084F8E731049B41227221B9
:10249000E27084F8E41184F8E51184F8E621591E0D
:1024A00004F5F470FDF778FE022384F8EC316FF048
:1024B000550384F8FF3109F107020123214684F80E
:1024C000EDA184F8EEA184F8EFA184F8FEB13846BE
:1024D00000F075F9012309EB03022146384600F0AC
:1024E0006EF9149B23F4FF7222F0010200212046B2
:1024F00045F0ACFCB8F1030F40F09480F823237052
:10250000FF236370A370E37023716371A371E371A0
:1025100023726372A3720F23E372149B4FEA532B4F
:102520005D45AA4628BFDA4621465346019A3846F9
:1025300000F045F9014600287FF459AE4FF40072CF
:10254000204645F083FC019BB5EB0A0553440193FB
:10255000E6D1059BB8F1030F18BF1E465E45354610
:1025600028BF5D462B46019A2146384600F027F9E0
:1025700000287FF43CAE019B761B2B440193EDD1E8
:10258000B8F1030F58D0099BB3F5803F56D2B8F18C
:10259000020F0CBF04250125029B002B50D0002206
:1025A00001232146384600F0FBF8024600287FF45C
:1025B0001EAE029B04EB031383F8B25101232146A4
:1025C000384600F0FCF800287FF411AE00221146D6
:1025D000384600F009F9003018BF0120EFE55146F8
:1025E00004F12000FDF7D8FDDDE659F081FF01463A
:1025F00004F12700FDF7D0FDC5F30723E375802321
:1026000084F82430292384F826302E4BA57504F154
:102610002B0203F1100153F8040B42F8040B8B4218
:10262000F9D105E7B8F1010F2749204618BF6FF02F
:102630000701FDF7B1FD70E70C25ADE70625ABE717
:10264000039B1B07C2D44FF400720299204645F049
:10265000FDFB552384F8FE31099A84F8C251AA2360
:1026600084F8FF31029B84F8BE3184F8C1314A44BA
:1026700043F6C163B2FBF3F2FE2384F8C33193083F
:1026800043F03F03012684F8C43184F8C52149464C
:1026900004F5E37084F8BF6184F8C061FDF77CFD48
:1026A000099904F5E570FDF777FD3346029A86E750
:1026B000032084E50A2082E5112080E592EA0608DD
:1026C0009EEA0608B2EA0608F8FFFF00BEF1000F16
:1026D0003FF499AD002A7FF403AE2F484FEA5A45E4
:1026E000012230F8021B19B1A9427FF6F7AD002193
:1026F000BAFBF2F0294E8500A0F57F40F63805F2CE
:102700000725B0424FEA55253FF67DAD16460A46ED
:10271000002105914FF0200B4FF0030809EB0B014E
:1027200001910599DDF820C06818019908440CF161
:10273000FF31B8F1030F0144CCF1000C08BF019B3D
:1027400001EA0C01A1EB000101BF5B188B441946A3
:10275000019118BF6D18C9EB061108448245FFF4BA
:1027600052AD059BAAEB0301A1EB0B01B8F1030FDE
:10277000A1EB0501B1FBF6F304937FF4B5AD4FF681
:10278000F5718B423FF6E0AD002A7FF43CAD012E9F
:102790007FF639AD72089DE784EA0608FFFFFE0F59
:1027A00010B50C4611461A4638B1234604303DF0A8
:1027B000FBFF003018BF012010BD0420FCE710B55E
:1027C0000C4611461A4650B1234604303EF02EF80E
:1027D00010F11E0F05D0003018BF012010BD0420DD
:1027E000FCE70220FAE7000070B50D4614460646E5
:1027F000002833D001F00703234AD15C00292FD0F1
:10280000002204303EF060F8062D27D8DFE805F0FE
:1028100008050A162619190006202BF073F9206006
:10282000002070BD062805D14FF400732380238853
:10283000B360F5E72BF066F92080F8E70123236009
:10284000EEE7062801D0430806D1336A002B0CBFFF
:10285000042300232370E3E70123FBE70420E0E7E0
:10286000062DFBD801A353F825F000BF212800084E
:1028700019280008292800083D2800085D280008BC
:102880004B2800084B280008A0E60608086833F02B
:1028900038BE000037B51D46043001AB1446FEF7C4
:1028A0006FFF38B1064B1B5C2B604FF0FF342046A6
:1028B00003B030BD019BA342F9D01C23F4E700BF55
:1028C000C7E6060813B51C46043001ABFEF7C6FE8A
:1028D00030B1044B1B5C23604FF0FF3002B010BDE1
:1028E0000198FBE7C7E6060870B5054608460C46A2
:1028F0002BF050F82346024602492846BDE87040B6
:1029000001F024B8BCE606082DE9F84380461046DD
:10291000894631F013F9264D013800242A4610F873
:10292000013FCBB92C201DF0D3FC0746064647F8E3
:10293000045B484631F002F9E3B20246394608F139
:102940004400FEF7C1FD054640B330461DF0DAFCF9
:10295000184B585D2AF06EFA722B11D008D8612BF3
:1029600017D0622B18D02B2BD9D144F00304D6E713
:10297000772B08D0782B09D0742B08BF1546CEE7EB
:1029800044F00104CBE744F00A04C8E744F006042D
:10299000C5E744F01204C2E7074DC0E7E30603D5DC
:1029A00031693846FFF79FF83046BDE8F88300BF2D
:1029B000FCE60608C7E60608DCE60608022970B54C
:1029C000044615461E4613D15368012B0AD0022B2C
:1029D0000CD01BB91168201DFFF785F8A3692B6087
:1029E000002070BD81692B681944F4E70169FAE79A
:1029F00001290AD10430FEF784FF0028F0D0084BEB
:102A00001B5C33604FF0FF30EBE7042906D14368CD
:102A1000002BE5D00430FEF7ABFFEEE71623F0E71E
:102A2000C7E606082DE9F04F2DED028B85B006298B
:102A30001E46B0EE408A80468B4600929DF840309C
:102A400014D8012906D93F2308F8013B002388F850
:102A5000003001E00029F9D1BBF1010F94BF002043
:102A6000012005B0BDEC028BBDE8F08F10EE102AFE
:102A7000002A054624DAB4EE400AF1EE10FA1FD619
:102A80002D2305F8013BB1EE408A9FEDD57A009BDE
:102A9000F0EEC87AF4EE477AF1EE10FA03F0200374
:102AA00013DD83F049022A7083F04E0283F046035F
:102AB0006A70E81CAB7000230370A0EB0800D0E73D
:102AC000002BE2D005F8013BDFE7B4EE488AF1EED7
:102AD00010FA08D743F04E0283F041032A706B705E
:102AE000E81CAA70E7E7009B002E43F0200AB8BF5D
:102AF0000626BAF1670F02D1002E08BF012618EE94
:102B0000103AA5EB0807ABEB0707191E07F1FF39D1
:102B10001AD1BAF1660F08D1731C4B45A8BFFE1E2F
:102B2000771C6621002399460BE0731D4B45A8BF17
:102B3000FE1F0023BAF1650F51461F46F3D14FF037
:102B40002B099C461C4635E0C1F3C7537F3B07EE7B
:102B5000903A9FEDA47AF8EEE77AB1F17E5F67EEE6
:102B6000877AFDEEE77A17EE904A80F0A8806342FC
:102B7000F8EEE70AB2EE040A019342F079F9019BFC
:102B80001C46B4EEC08AF1EE10FA7CD4BAF1660F9E
:102B900007D0BAF1670F40F08180042C7EDC631E01
:102BA0001E44731C4B45A8BFFE1E0023771C99468C
:102BB0009C466621652926EAE67040F0D580471CD0
:102BC0001E46ACEB06020023F2EE048A0192002FAF
:102BD00080F2D380042B29DD6B1E4FF0300C1E7861
:102BE0002E2E03F1FF3700F00281A6F1300EBEF168
:102BF000090F40F2FE8001331E78302E16D15F7827
:102C00002E2F40F00381662900F00081B9F12D0FCD
:102C10001F705E7040F0F880013C08BF4FF02B0938
:102C200029468B42C0F0F98031211970BAF1670F43
:102C30000AD148B12B461D46013B15F8012C302A1C
:102C4000F9D02E2A08BF1D46B9F1000F16D0009BFF
:102C500085F801900A2103F0200A94FBF1F393FB1D
:102C6000F1F201FB134401FB12324AF0450A303203
:102C7000303485F800A0AA70EC70043500232B7066
:102C8000A5EB0800EDE60134634200EE903AB2EEA7
:102C9000040AF8EEE00A42F0EBF872E7BB1FB34219
:102CA00004DCBAF1670F14BFFE1F1E4688EE008ACF
:102CB0006342514600274FF02D09BC467AE7631C5A
:102CC00000EE903AB2EE040AF8EEE00A42F0D0F8D4
:102CD000B4EEC08AF1EE10FA15DABAF1660F20D11F
:102CE0004C4521DA331901334B4505DBA9EB0406CA
:102CF000023E731C08BF0026A71901372346A446CD
:102D00004FF0000955E7631C0193A31C00EE903AB5
:102D1000B2EE040AF8EEE00A42F0AAF8019B1C4663
:102D2000D6E7BAF1650F0AD1BB1FB34200DCFE1F24
:102D3000002723464FF02B09BC4665213AE7BAF13C
:102D4000670F0BD1331D4B4500DBBE1FB44202DBC6
:102D50002346672104E0631CF61ACDE7234651465B
:102D600000274FF02B09A8E767297FF429AF002E31
:102D7000D6BF01270746384622E7002E34DD07EE8E
:102D8000906AB2EE040AF8EEE70ACDE9020142F0D9
:102D90006FF8DDE902010023B4EEC80AF1EE10FA83
:102DA00004DC0133092B38EE408AF5D1AC466FB113
:102DB000019A03F1300EF2420CF801EB06D128B172
:102DC0004FF02E0E05F1020C85F801E0002E07F100
:102DD000FF37D8BF28EE288A013E6546F7E600BFD8
:102DE000FFFF7F7F9B209A3EB7EE000AD3E73B466A
:102DF000F5E6392E02D001361E70FDE6984587F8BB
:102E000001C0F4D14346F7E6013409E7691CA1EBA0
:102E100008065E4538BF0D4602E711F8016C01F85F
:102E20000169FEE608B5044631B1054B03604A6C02
:102E3000096800232CF00EFF20461DF013FA00BF96
:102E4000D85806082DE9FF471F460192461812B1CF
:102E5000023A222A34D80546B5422C4639D215F812
:102E6000010B1EF039FB80460028F5D123782B2B6F
:102E700029D12C46311B204601AA28F062FB2518D7
:102E8000A9460024B1454B4626D3B8F1000F00D027
:102E90006442640044F00104AB4209D01D46B542CF
:102EA0002B4641D2187801351EF016FB0028F6D1CA
:102EB0002049019A20482CF08DFE3946FFF7B2FFD9
:102EC0001E4829F0B5FD2D2B04BF2C464FF00108FC
:102ED000D0E74FF00008CDE719F8012BA2F1300A36
:102EE000BAF1090F09D95F2ACCD042F02002A2F131
:102EF00061011929C9D8A2F1570A01995145C4D9CC
:102F0000204637F06DFA28B9019B03FB04A494EA2C
:102F10004403B7D5019B03954246711B03A82EF0CD
:102F200033F8039B0446B7E7C2D1204604B0BDE89E
:102F3000F08700BF264C060868590608114C0608A1
:102F40002DE9F04F2DED068B85B09FEDC69ADFED94
:102F5000C69ACDE901234FF00009149B0393044660
:102F60004718C846B0EE49AABC4280F09881207844
:102F70001EF0B2FA00283ED123782B2B41D1013428
:102F8000BC4280F08C81237843F02003692B3ED132
:102F9000A31C9F4240F27881637843F020036E2B9C
:102FA00040F07281A37843F02003662B40F06C81DF
:102FB000E31D9F4204F103051AD9E37843F020038F
:102FC000692B15D1237943F020036E2B10D163793F
:102FD00043F02003692B0BD1A37943F02003742B1A
:102FE00006D1E37943F02003792B01D104F10805E0
:102FF0009FED9E8A20E00134B0EE498AB0EE489AF7
:10300000B2E72D2BBFD101344FF00108B8E76E2B8A
:1030100058D1A31C9F4240F23781637843F02003CC
:10302000612B40F03181A37843F020036E2B40F0F8
:103030002B819FED8F8AE51C019B7BB1BD420DD298
:103040002B7843F020036A2B08D1A542F7EE007AD3
:1030500008BFB0EE678A013549F00209B8F1000FE8
:1030600003D0B1EE488A4FF00108AC420DD0BD420A
:103070002C4680F0CC80207801351EF02DFA0028F7
:10308000F5D1029B002B40F0D6807A497A482CF08B
:1030900017FD0399FFF7C6FE02260D46294611F8D3
:1030A00001BBABF1300ABAF1090F5ED8022E14D180
:1030B000724DAC4502DC0A2505FB0CACB942ECD3E1
:1030C0000D466CE000222546DFED668A96461346E3
:1030D00094461646B2EE047AE0E7BAF1000F04D047
:1030E000F4EEE98AF1EE10FA15DB0EB90133E5E7EB
:1030F0000EF1010E0126E1E7F4EEE98AF1EE10FA95
:1031000046BFF0EE4A7AE8EE877A013203F1FF33E8
:1031100048BFF0EE678A002BEED17346F4EEE98AE1
:103120007BB9F1EE10FA1BD507EE90AAF8EEE77A1C
:10313000012EE8EE877AF0EE678A54D1013A9E4676
:10314000BCE7F1EE10FA42BFF0EE4A7AE8EE877A79
:1031500002F1FF3203F1FF3348BFF0EE678ADDE78B
:10316000002E43D10132B646A8E79EB9BBF12E0F1F
:10317000C0D04BF0200ABAF1650F0DD18F4240F25A
:1031800095806E782B2E28D1A91CB9423FF47DAFD3
:10319000022693E7022EECD1BBF15F0F8ED008B16F
:1031A000CCF1000C13449C441CF1250FBEBFDFED95
:1031B000347A0CF1250C68EEA78A1CF1090F17D39D
:1031C000CCF1000300EE903AB2EE040AF8EEE00A09
:1031D00041F04EFE88EE808A2EE72D2E7FF45CAF04
:1031E000A91C0120D1E79E461E4667E79E4681E75F
:1031F00007EE90CAB2EE040AF8EEE70A41F038FE94
:1032000020EE288A18E725469FED168A18E77FF4F6
:1032100038AFB9F1010F3FF438AFB9F1000F11D059
:10322000F0EE480AB0EE490A05B0BDEC068BBDE8E9
:10323000F04F2BF0A3BCB9F1000F7FF426AF4FF095
:103240000109DBE6029B23B1DFED060AB0EE480A76
:10325000EAE7B0EE480A05B0BDEC068BBDE8F04FDA
:103260002CF006BE00000000EC78AD600000807F0E
:103270000000C07F0B4C06086859060864666606A5
:10328000EA1C080200000000019B002BBBD1B8F132
:10329000000F3FF4FAAE25461FED068AE1E6002353
:1032A00025465FED088A1A469C467BE73FF4EDAE63
:1032B00006E700BF0846114645F08ABD70B50546D1
:1032C00008460E4644F0FAFD044620B102466B68FB
:1032D000286831469847204670BD00002DE9F74F19
:1032E00001919DF8301091460D9A11F0DF0F0646BE
:1032F000A2EB09023DD030290CA9244F0EBF4FF09C
:1033000010080F464FF0010813F0800435D002EB8F
:10331000D2746410151B002C36DDA246D045C3467E
:10332000A8BFD346736830685A463946AAEB0B0AE1
:103330009847BAF1000FF1DCB9F1000F05D07368BE
:10334000019930684A4698474C44002D0DDD2C44C5
:10335000A845C146A8BFA946736830684A463946A1
:10336000A5EB09059847002DF2DC204603B0BDE827
:10337000F08F074F4FF01008C6E713F0010501D199
:103380001446C8E71546D7E70024D5E7643C06088D
:10339000533C06082DE9F04389B007460020119DF3
:1033A0009DF84880139E8DF80F0002B3814219DA10
:1033B0002D228DF80F204942109A08ACA2F10A0084
:1033C0000DF1100EB1FBF3FC03FB1C12092A8CBF9C
:1033D0001218303204F8012D74450FD08B420DD8ED
:1033E0006146EFE7A80727D52B228DF80F2000298B
:1033F000E2D130238DF81F300DF11F0415F0400984
:103400009DF80F301CD023B30122CDE900822B465A
:103410000DF10F013846FFF761FF013E814608AA12
:10342000CDE900862B46121B21463846FFF756FF92
:10343000484409B0BDE8F0836A07D8D52022D4E714
:10344000002BECD004AA9442E9D904F8013C013CD9
:10345000E5E79946E3E700002DE9F04F93B0804699
:103460001E46C8079DF874301C9D06930C46914675
:10347000DDE91E7A0BD4A10703D12268794B9A4269
:1034800005D020462AF03EFB400040F0010415F034
:10349000810306D1069A302A03D15745B8BF574653
:1034A0009A4620462DF084FC00280DF1280B18DBED
:1034B000AA0712D52B238DF828300DF12903E80631
:1034C000F6B21DD5B9F1020F0DD11A46302102F81E
:1034D000021B711C5970134612E06B0701D52023A3
:1034E000E9E75B46EBE7B9F1080F60D1A9054FF0BA
:1034F00030021A7045BF06F10E025A7001330233D2
:10350000002215F0200F1A70A3EB0B0305930EA9F0
:103510000CBF13462C23BAF1010F0B91C8BF45F025
:1035200040051021CDE90C1215F040018DF827203F
:103530000791CDE9026344D0CDE9009223460DAA5C
:103540000CA90BA82DF010FB03782D2B814606D17A
:103550008DF827300D9B013B00F101090D93BAF165
:10356000010F3CDD0D9C079B5445B8BF54462BB161
:103570009DF8273003B10134059B1C44A7422BDD85
:1035800015F00103A7EB040427D126461C4625F0BD
:1035900001054EB120230093002301961A463249BB
:1035A0004046FFF79BFE06463023069319E0B9F12B
:1035B000100FA5D11A46302102F8021B06F117019F
:1035C00088E70AABCDE900930DAA23460CA90BA806
:1035D0002DF0CAFA8146C2E700240026D7E700246E
:1035E0002646079BDBB19DF8273053B1002301220B
:1035F000CDE900320DF127014046FFF76FFE013F94
:103600000644059B5BB100230122CDE900325946F7
:10361000059A4046FFF762FE059B0644FF1A069B8B
:103620000093BAF1010FC8BF574601972B460D9A78
:1036300049464046FFF752FE06444CB12023009312
:10364000002301941A4608494046FFF747FE064406
:103650000B980EAB984201D01CF054FE304613B0CC
:10366000BDE8F08FC45C06086EF206082DE9F04351
:1036700016468BB0B20780469946129F3CD416F08E
:10368000040F0CBF0023202300930A46139B202124
:1036900002A8FFF7C7F9F30504460DD5431C1F2BFD
:1036A0000AD80AAA1444252204F8202C0AAA1A448B
:1036B000002102F8201C1C4616F040051ED09DF883
:1036C00008302F2B4FF000031AD8012202A9CDE9B0
:1036D00000324046FFF702FE013F0546013C0DF176
:1036E0000901CDE90097334622464046FFF7F6FD33
:1036F00028440BB0BDE8F0832B23C5E702A9F0E70F
:1037000002A91D46EDE700002DE9F04F824689B081
:10371000144600260B461D4613F8012B0AB1252A34
:10372000F9D1A94208D26F1ADAF80430DAF80000A9
:103730003A4698473E4429460B78002B00F0FE801D
:10374000013120234FF000090A4612F8015B0DB940
:103750000A271DE02D2D03D149F001091146F3E799
:103760002B2D02D149F00209F8E7202D02D149F0B2
:103770000409F3E7212D02D149F00809EEE7302DC5
:1037800022D149F040092B46E8E707FB0525303DEB
:10379000884611F8012BA2F130000928F5D92E2A0C
:1037A0003AD198F801202A2A10D04FF0000B0A27AE
:1037B000884611F8012BA2F1300009280CD807FB2C
:1037C0000B2BABF1300BF3E70025C1E754F8042BCA
:1037D00008F1020822EAE27B98F800206C2A08BF70
:1037E00008F1010898F80070002F00F0A780642FFE
:1037F00000F0838028D8502F2DD010D8A7F1450293
:10380000022A40F28880DAF80430DAF80000012257
:103810004146984701364BE04FF0FF3BDCE7622F13
:103820003AD04BD8582FEED17A1C27F00F070F3F14
:1038300002F00602FFB2CDE90235CDF80490009700
:10384000C2F11003002260E0712F41D00BD8672F26
:1038500061D9702FD7D1CDE9023561230093CDF81E
:1038600004901023EEE7752FDED0782FDCD0732F75
:10387000C9D154F8047B0593384644F01FFBBBF1D3
:10388000FF3F0246059B02D0584528BF5A46CDE966
:10389000003539464B4607E054F8042BCDE9003596
:1038A0004B4642B1274904225046FFF717FD064414
:1038B00008F101012EE705222349F5E754F8042B0E
:1038C0008DF81C20CDE9003501224B4607A9EBE716
:1038D00007A954F8040B05931DF0DFFBBBF1FF3F74
:1038E0000146059B04D0079A934538BFCDF81CB01C
:1038F000CDE90035079A4B46D6E7CDE9023561237D
:103900000093CDF804900A23012254F8041B50467A
:10391000FFF740FDCBE7073424F00704F4E8020189
:1039200005935AF0EBFFCDE9005B00EE100A059B12
:103930004A4639465046FFF799FEB8E7304609B087
:10394000BDE8F08F483C06084D3C06080EB403B5B0
:1039500003AA52F8041B0192FFF7D6FE02B05DF8ED
:0839600004EB03B07047000006
:020000040802F0
:10000000FEE700000F49D1F8883043F47003C1F8CF
:1000100088300D4B1A68002042F001021A60986087
:100020001A6822F0847222F480321A60074A5A60F9
:100030001A6822F480221A60D8604FF000638B6047
:10004000704700BF00ED00E000380240103000248F
:1000500070B5002494B010252A4621460AA80494BD
:1000600027F0F4FE384B01941A6C42F080521A6467
:100070001B6C03F080530193019B344B02941A686C
:1000800042F480421A601B6803F480430293029B8F
:1000900001224FF48033CDE908234FF4800302227C
:1000A000CDE90E23CDE90B450F230393284BD3F85D
:1000B0009C30C3F38340811E0D2924D8C3F38915D6
:1000C000A5F1C001F0291ED813F03E041BD0C3F3E4
:1000D00001429C0C190C013203F03F065B0F5200E9
:1000E00004F0F00401F4E0519B02CDE9122008A8CD
:1000F000CDE91065CDE9054107932BF03FFC58B1E0
:10010000144831F0D3FE4FF480534FF4A051072030
:100110004FF4A8750826E8E7119B1099DB00B3FBA4
:10012000F1F33021B3FBF1F201FB1232003218BFC0
:1001300001221299B3FBF1F103A833F0B3FB08B12C
:100140000548DEE714B070BD003802400070004082
:1001500000280040E0EC0508F2EC05080446DFF852
:100160002CD00B490B4A0C4B03E051F8040B42F81E
:10017000040B9A42F9D300200849094A01E041F8EA
:10018000040B9142FBD3204632F01CB8F8FF01204B
:100190008C5F0708000000202404002024040020B5
:1001A0005027002040F8044B40F8045B40F8046BF3
:1001B00040F8047B40F8048B40F8049B40F804AB03
:1001C00040F804BB40F804CB40F804DB68467047B5
:1001D000024B5A6902605861002070474C1F002092
:1001E000024B5A6912685A61704700BF4C1F0020C9
:1001F000024B9A69C0E90021986170474C1F0020AA
:10020000044A93691968916110B15A6818461047F9
:10021000704700BF4C1F002038B5054D0446AB6940
:100220000BB1A34200D338BD0120FFF7E9FFF6E789
:100230004C1F0020C460056146618761C0F81C80C6
:10024000C0F82090C0F824A0C0F828B0C0F82CD086
:1002500080ED0C8B80ED0E9B80ED10ABC0F808E0BC
:10026000FFF7B6BF124D6C6908B50CB931F096FFB7
:1002700060602046FFF7D0FF23686B612046C468AA
:10028000056946698769D0F81C80D0F82090D0F8BD
:1002900024A0D0F828B0D0F82CD090ED0C8B90EDA5
:1002A0000E9B90ED10ABD0F808E00120704700BF26
:1002B0004C1F002010B50021044600F001FB18B9C6
:1002C00014B120460CF0A0FB10BD002100F0F8BADC
:1002D00010B50121044600F0F3FA18B914B1204614
:1002E0000CF092FB10BDFFF7E5BF10B501220C46E4
:1002F00000F026FC18B914B120460CF085FB10BDA7
:1003000000F01EBC00F0B0BB2DE9F0412A4C0025E6
:100310000326D4F894720021013143189A0803F09F
:100320000303BA5C5B0042FA03F303F00303022BFE
:10033000F2D0D4F8A03209018F0803EB001089B382
:1003400000EB870703681A0729D1D4F8A0125A1ABC
:100350004FEA121E4FEA921C99420EF003024FEA36
:1003600042021CD8D4F8A412994218D9D4F8948225
:1003700018F80C1041FA02F303F0030306FA02F234
:10038000012B42EA01020AD104EB45013F2D08F896
:100390000C209ABF0135A1F8B0E2C4F8AC320430A9
:1003A000B842CFD12DB1013D04EB4503B3F8B00203
:1003B000AFE7BDE8F08100BF4C1F0020F0B4194E3C
:1003C000D6E9A753C01AC10904096B5C04F00707FA
:1003D0000122BA4023EA02036B54D6F8A832D6F8B9
:1003E00094528009984238BFC6F8A802295C04F0EC
:1003F0000303A00803275B0007FA03F321EA0303C2
:100400002B540134D6F89452A00804F00303295C5D
:100410005A0041FA02F202F00302022AEBD0F0BCC9
:10042000704700BF4C1F0020F8B521F00F052A1AB5
:1004300002F10052013A1449144CD300A1FB0323EA
:100440005B0A9A00591C073201EBD2020144A5EB6A
:100450008317C4F89C120021C4F89832C4F8A07223
:10046000C4F89402C4F8A45227F0F0FC0023012140
:100470004FF0FF32A4F83013C4F83823C4F8A83280
:100480002381C4F83433F8BDF32C23FA4C1F002029
:10049000024A138901331381704700BF4C1F0020AB
:1004A000024A1389013B1381704700BF4C1F002093
:1004B000024B1889003018BF012070474C1F0020E4
:1004C000F8B51C4C2389002201332381C4F834235E
:1004D000C4F8AC2204F1080504F5F476032755F8B6
:1004E000042F130719D1D4F8A012501A4FEA901C08
:1004F000000900F003038A424FEA43030DD3D4F806
:10050000A4128A4209D2D4F8941211F80CE04EFADF
:1005100003F202F00302012A02D0AE42DFD1F8BD9D
:1005200007FA03F343EA0E0301F80C30FFF7ECFE81
:10053000F3E700BF4C1F002079B3F8B5041F174E36
:1005400004EB8105032754F8043F1A0719D1D6F8A4
:10055000A012581A4FEA901C000900F003029942B9
:100560004FEA42020DD8D6F8A412994209D9D6F81A
:10057000941211F80CE04EFA02F303F00303012B7E
:1005800002D0A542DFD1F8BD07FA02F242EA0E021C
:1005900001F80C20FFF7B8FEF3E770474C1F00206E
:1005A0002DE9F04F824CD4F89832D4F8AC2285B0C3
:1005B0009B00002A00F0858000260325C4F8AC6269
:1005C000002B6AD0002102E00131994274D2D4F8A4
:1005D0009472880801F00302385C520040FA02F27B
:1005E00002F00302032AEFD18C46002300220132DD
:1005F00002EB0C004FEA900E00F0030017F80EE03B
:1006000040004EFA00F000F003000228EFD0D4F8CA
:10061000A00212014FEA920E00EB0C10A2B300EB05
:100620008E0ED0F8009019F00F0F2AD1D4F8A072D6
:10063000A9EB070C4FEA9C184FEA1C1C0CF00302B4
:10064000B9454FEA42021CD3D4F8A472B94518D276
:10065000D4F8949219F808A04AFA02F707F00307B1
:1006600005FA02F2012F42EA0A020AD104EB430A18
:100670003F2B09F808209ABF0133AAF8B0C2C4F88A
:10068000AC7204307045CCD183B1013B04EB430222
:10069000D4F89472B2F8B0C2A8E723890022013BD3
:1006A0002381C4F8A82205B0BDE8F08FD4F89832B1
:1006B00001319B0099428AD3D4F8AC22002A7FF4FE
:1006C0007DAF002BE9D04FF0000E76464FF00309C6
:1006D0004FF00108022704E0012A2FD001369E4284
:1006E000DBD24FEA960AD4F894C206F003051CF850
:1006F0000A106D0041FA05F202F00302022A0CEB27
:100700000A000DD0032AE7D107FA05F521EA05050D
:100710000CF80A50D4F898324FF0000E9B00DDE739
:10072000BEF1000FDAD009FA05F521EA05050570DA
:10073000D4F898324FF0010E9B00CFE7F308D4F8BD
:100740009C22019312F803C006F0070B4CFA0BFE33
:100750001EF0010F1A44E6D03001D4F8A01251F86F
:1007600000E00844BEF1000F14D002AAB2210BF041
:1007700001FBDDE9013242B10CF09EFBDDE9020133
:100780000CF06AFB0CF0AEFB019BD4F89C2212F833
:1007900003C01A4408FA0BFB2CEA0B0C82F800C0C9
:1007A000D4F8943203EB0A0013F80A10BBE700BF39
:1007B0004C1F0020044B1A89002101321A81C3F812
:1007C000AC12FFF7EDBE00BF4C1F00203B4BD3E93E
:1007D000A8122DE9F047D3E9A5760023C0E901333B
:1007E000C0E90333C0E90533521A02601D46B60062
:1007F0009E469C461C461A4699461946984617F846
:10080000093049000B4103F00303012B47D0002BB3
:100810003DD0022B02D101354560013401329642B0
:100820000ED04FEA920902F0030117F809304FEA9F
:10083000410A43FA0AF313F0030301D0012BDED17E
:10084000012C11D0022C02D1416901314161816931
:10085000A14238BF846196420FD0012B23D04FEACA
:10086000920902F00301CAE701690131016181695E
:10087000A14238BF84619642EFD1C44516D9964251
:10088000C0F80CC012D0E0464FF0000CE7E70EF1C4
:10089000010EC0F808E00CF1010C1C46BEE7013562
:1008A00045601C46BAE7E045EED2E8E72D014FEA85
:1008B0000E13C0E90153BDE8F08700BF4C1F0020B4
:1008C0000F302DE9F047060950D0664D2B89002BDB
:1008D0004CD1B5F83033002B0C460CBF4FF0010E55
:1008E0004FF0000E47D1D5F8A802D5F8987287428C
:1008F00039D9D5F894C2411E614400221AE0013270
:10090000964253D913F00C0F1ED10132964240F299
:10091000A08013F0300F1CD10132964240F29C802F
:1009200013F0C00F1AD10132964240F29880013084
:10093000B84218D211F8013F13F0030FDFD013F0C3
:100940000C0F4FF00002E0D013F0300F4FF0000218
:10095000E2D013F0C00F4FF00002E4D00130B842F3
:100960004FF00002E6D3BEF1000F14D04FF00008A4
:100970004046BDE8F087D5E9CD239A42B3D338F09D
:10098000F1F9D5F8A802D5F89872874288BF4FF0E0
:10099000010EAED8EAE738F0E5F9D5F8A802D5F8A7
:1009A000987287424FF0010EA3D8DFE78000811ACA
:1009B000012A01F1010703D1431C9B08C5F8A832A5
:1009C0004FEA970E07F003034FEA43081CF80E9016
:1009D000012303FA08F3023143EA090388420CF8C1
:1009E0000E3013D34FF002084FEA910CD5F894E281
:1009F00001F003031EF80C905B0008FA03F30131C9
:100A000043EA090388420EF80C30EDD2D5F8A0A2D3
:100A1000D5F834334FEA07190AEB09081E441201CE
:100A200040460021C5F8346327F010FAE3079FD54C
:100A30000023D5F89C124AF80930FA080123885C93
:100A400007F0070703FA07F707438F544046BDE84E
:100A5000F08780000130AAE780000230A7E780001D
:100A60000330A4E74C1F0020F0B41A4E33897BBB3F
:100A700070B3D6E9A753C01AC10904096B5C04F02E
:100A800007070122BA4023EA02036B54D6F8A822D2
:100A900083099342D6F8940238BFC6F8A832C15CE5
:100AA000A50804F0030303275B0007FA03F321EA18
:100AB000030343550134D6F89402A50804F0030358
:100AC000415D5A0041FA02F202F00302022AEBD021
:100AD000F0BC70474C1F002010F00F030DD11749D8
:100AE000D1F8A022824208D810B4D1F8A44284429E
:100AF00005D818465DF8044B704700207047801AEF
:100B0000D1F8944281090209615C02F003004000BF
:100B1000014101F0030101291846EBD101301318FE
:100B2000990803F00303615C5B0041FA03F303F0EF
:100B30000303022BF2D00001DCE700BF4C1F0020B2
:100B40002DE9F84F0B460746002800F0A480564DCB
:100B50002C89002970D0002C70D1D5F8A002D5F8CE
:100B60009832381A4FEA101C0CF1010E4FEA830933
:100B700001F10F06F1454FEA161640F29280D5F8C2
:100B800094A24FF001084FEA9E0B0EF003031AF8EF
:100B90000BB05B004BFA03F303F00303022B51D0BD
:100BA00023B9013408EB0403B3424DD346453FD08B
:100BB00020D34444B4424CD2002A3FD0C009D5F8D7
:100BC0009C321B5C0CF0070C43FA0CFC08460CF042
:100BD0000101FFF775FE044680B34FEA081239465B
:100BE00027F0F0F82B8923BB3846FFF7E7FB2046B8
:100BF000BDE8F88F66443046C4444FF003094FEA1D
:100C0000900ED5F8941200F0030311F80E405B002B
:100C100009FA03F3013024EA0303604501F80E30BA
:100C2000EDD1D5F8A832B6089E4238BFC5F8A86203
:100C30003C462046BDE8F88F002CD6D00024204644
:100C4000BDE8F88F08F101080EF1010EF1459AD1C7
:100C5000ACE70CEB0802B444944510D9022190088B
:100C6000D5F8944202F0030314F800E05B0001FAA7
:100C700003F3013243EA0E0394452354EFD1A6EB6C
:100C80000802120107EB081000213C4627F0DEF8AD
:100C90002046BDE8F88F01461846BDE8F84FFFF73B
:100CA0000FBE4FF0010881E74C1F002010B58AB03D
:100CB000044603A8FFF78AFD059B00932046DDE963
:100CC00003230749E2F742FE069A099B019200932B
:100CD0002046DDE907230349E2F738FE0AB010BDDC
:100CE00050ED050874ED05082DE9F84FDFF854B113
:100CF0004849DBF8A0220746E2F728FEDBF89822F5
:100D0000920073D0DFF84081DFF840A1DFF8409116
:100D100000250CE0012E45D02E223F493846E2F74F
:100D200015FEDBF8982201359200AA425ED905F043
:100D30000306A8064FEA4606DBF894120BD0AB0870
:100D4000CB5C43FA06F606F00306022E28D0032EEB
:100D5000E0D16D22E1E72C46A00804F00303085C13
:100D60005B0040FA03F39B0702D101349442F3D3B2
:100D7000621B7F2A0CD9920951463846E2F7E6FDFC
:100D8000DBF8983224F03F05B5EB830F2ED2002616
:100D900041462A013846E2F7D9FDDBF89412CEE746
:100DA0003D22BAE7DBF8A0222B01D2584A4523D0D6
:100DB0001A4B9A4222D01A4B9A4225D0194B9A428A
:100DC0001ED0194B9A421BD0184B9A421AD0184B7E
:100DD0009A4217D0174B9A4218D0174B9A4217D005
:100DE000164B9A420CBF4D22682296E738461449AA
:100DF000BDE8F84FE2F762BA54228EE74C228CE746
:100E000053228AE7412288E7442286E7462284E784
:100E1000422282E708ED05084CED0508145E06083D
:100E2000E85406086C690608B8670608D851060831
:100E30008C510608185A06086C5A0608A85F06085E
:100E400024ED05084C1F002044ED050828ED050899
:100E5000EC6A0608054B02685B6A59688A4203D34C
:100E6000521A0260184670471B68F6E74C1F0020B4
:100E7000014441F20553884204D398B2002808BFC8
:100E80000120704710F8012B03EB43135340F2E7A6
:100E9000034B044A5A620022C3F8EC21704700BF9A
:100EA0004C1F002028B106082DE9F04780460E4669
:100EB000FFF7DEFF124B5C6A07460CB920461AE0CA
:100EC000D4F80C90002504F1180A4D4501D124688E
:100ED000F3E7236933F81530BB420ED163695B5DDC
:100EE000B3420AD1324641465AF8250026F0C4FFE3
:100EF00018B960682844BDE8F0870135E5E700BF10
:100F00004C1F00202DE9F84381460E46FFF7CCFF29
:100F10000246002840F08B80FF2E03D94549464801
:100F20000AF0AAFF454CD4F8EC01751C90B1D4E945
:100F30007C132B448B4229D92944FFF7E1F907465A
:100F4000D8B90246D4F8F411D4F8EC01FFF7D8F977
:100F5000C4F8EC71802D2F4638BF80273846FFF744
:100F6000B4F9C4F8EC01D0BB2846FFF7AEF9C4F8D9
:100F7000EC0198BB28460BF047FDD4F8F0312B4428
:100F8000C4F8F031D4F8EC31002BE3D0D4F8F431CC
:100F9000D4F8EC711D44314648461F44C4F8F4515E
:100FA000FFF766FF49468046324638464FF0000953
:100FB00026F008FF07F80690636AD3E90253AB42B4
:100FC00025D36D000A2D38BF0A25C5EBC5001830A2
:100FD000FFF77BF948B9C4F8EC01CBE72F460023B3
:100FE000C4F8F071C4F8F431D0E700F11803626A74
:100FF000026003EB8503036103EB45034361536820
:10100000D268C0F80C901344C0E901356062636A8D
:10101000D3E903215B6921F812809E54911D636A14
:1010200043F82170D96858680131D96002441046EC
:10103000BDE8F8839B1606086C5806084C1F002074
:1010400010B5044626F03AFF01462046BDE81040A0
:10105000FFF758BF07B5019001A8FFF7FBFE019A03
:10106000036933F8120003B05DF804FB07B5019083
:1010700001A8FFF7EFFE019B4269D05C03B05DF869
:1010800004FB07B5019001A8FFF7E4FE019B0633BE
:1010900050F8230003B05DF804FB13B5019001A8DC
:1010A0000C46FFF7D7FE019B4269D25C22600633F3
:1010B00050F8230002B010BD2DE9F8431D4600236F
:1010C00003600B6013602B60164BDFF85C905C6A6A
:1010D0000746884616460CB14C4505D12B68326848
:1010E00013442B60BDE8F8833B6801333B60E26842
:1010F000D8F800301344C8F800306269E368D118AA
:101100008A4207D32046FFF7E7FC2B68246818447F
:101110002860E0E7336812F8010B013303443360C1
:10112000EEE700BF4C1F002028B106082DE9F84368
:101130000D4B0E4F5C6ADFF83880DFF838900CB149
:10114000BC4201D1BDE8F883E36804F1180505EB62
:101150008306B54201D32468F1E755F8042B4146D4
:101160004846E2F7F3FBF4E74C1F002028B10608DD
:1011700094160608403C060830B50023202411F8D8
:10118000012F0AB9027030BD120600F101051FD50A
:101190000BB1047028460B78124A03F07F036BB939
:1011A000013A12F8013F13F0800F054600F10100EB
:1011B0000BD003F07F032B700123E0E712F9015BF2
:1011C000002DFBDA013BDBB2E9E700F8013CE8E780
:1011D000012B04BF047028460B7800F8013B022362
:1011E000CDE700BFB9ED050838B5446803680C4485
:1011F0009C4205460FD9037B1BB1002106480AF02B
:101200003BFE103424F00704083421468068FFF7C1
:101210006CF82C60A86038BD6C58060870B50446A0
:101220000E4611461546FFF7DFFFD4E901302A4686
:101230003146184426F0F2FD62682A44626070BDAF
:1012400070B5466804468E42354628BF0D460121DA
:10125000FFF7CAFFA368681C5919721B184426F0CF
:10126000DDFD6368A06801336360284470BD38B554
:101270000446081E08BF0120002520606560FFF7B6
:1012800019F82573A06038BD38B505460C46013104
:10129000FFF7EDFF6C6038BD0023C0E90132012388
:1012A000016003737047000038B514460546FFF728
:1012B000DEFF024B2560636038BD00BF1D120208CF
:1012C000037B10B5044613B98068FFF71BF80023B1
:1012D000A36010BD38B505461020FEF7EBFF294688
:1012E0000446FFF7C4FF204638BD10B5044648B198
:1012F000037B13B98068FFF705F82046BDE810406E
:10130000FFF700B810BD000038B5037B04460D465A
:101310001BB1002106480AF0AFFD0168806829442E
:10132000FEF7E3FF2368A0601D442560184438BD24
:101330006C58060838B504460D46FFF755FFD4E94A
:1013400001301D446560184438BDD0E900239A423D
:1013500010B5044602D10121FFF7D6FFD4E90132CE
:101360000021D154A06810BD10B50C460121FFF733
:10137000E1FF047010BD7F29F8B50C46CEB204D849
:101380000121FFF7D7FF0670F8BD06F03F06B1F563
:10139000006FC1F3871546F0800607D20221FFF7E0
:1013A000C9FF65F03F0505704670EDE705F03F05A4
:1013B000B1F5803FC1F3073745F0800508D203211E
:1013C000FFF7B8FF67F01F03037045708670DBE717
:1013D0000421FFF7AFFFA40C07F03F0364F00F04F4
:1013E00063F07F03047043708570C670CCE738B536
:1013F000054608460C4626F061FD21460246284671
:10140000BDE83840FFF70ABF10B51446FFF718FFD4
:10141000047010BD10B51446FFF712FF047010BD24
:1014200043688B422CBF5B1A00234360704738B57A
:10143000154642688A4204460B4603D929448A422B
:1014400001D8436038BD8068521A0144184426F020
:10145000E5FC6268521B6260F4E703781A060AD55D
:1014600003F07F034022134207D110F8012F02F04E
:10147000C001802905D01846704723EA02035208AC
:10148000F1E702F03F0242EA8313EEE7421C104606
:101490000132037803F0C003802BF8D0704700239B
:1014A000814201D81846704711F8012D02F0C002A0
:1014B000802A18BF0133F3E7014403460020994214
:1014C0001A4600D87047127802F0C002802A03F151
:1014D000010318BF0130F2E77F289DBF024B185C63
:1014E000C0F3400000207047753C06087F289DBF70
:1014F000024B185CC0F3C00000207047753C060822
:101500007F289DBF024B185CC0F38000002070470D
:10151000753C06087F289DBF024B185CC0F3801005
:1015200000207047753C06087F2809D8064B1B5CD5
:1015300013F00C0F06D1A0F15F03584258417047D9
:101540000020704701207047753C06087F289DBF2A
:10155000024B185CC0F3001000207047753C060871
:101560007F289DBF024B185CC0F3401000207047DD
:10157000753C060808B50246FFF7E8FF00B12032C7
:10158000104608BD08B50246FFF7EAFF00B1203A51
:10159000104608BD3038092884BF20F020000738E5
:1015A000704710B501440246E5240020914203D85B
:1015B000B0FA80F0400917E012F8013B30B103F0B7
:1015C000C003802B11D10138C0B2EFE7BF2B09D97E
:1015D000F72B09D8DB0803F0060344FA03F303F002
:1015E0000300E3E71B06E1D510BD0020FCE702394C
:1015F00081420B4603D31A880239002AF8D00233FD
:101600001B1A5810704770B51C09944215D2121B52
:1016100001EB4401154603F00F030E46012D31F88E
:10162000024B18BF3468DC40A4B2013D20F8024BE5
:10163000F3D104B9013A104670BD0022FBE7F0B5C2
:10164000059D0024521B2746A5420FD16D00441969
:1016500000230D449A4214D104EB42031FB101212F
:1016600024F812100233181A4010F0BD31F814603B
:1016700033F814C066443E4420F81460370C01343B
:10168000E2E735F813603E4424F81360370C013369
:10169000E0E7F0B4049E0025921B2C46AE420AD12E
:1016A0007600851900230E449A420FD105EB4201C2
:1016B000F0BCFFF79CBF31F815703C4433F815704F
:1016C000E41B20F8154024140135E7E736F8131021
:1016D0000C4425F8134024140133E5E72DE9F043C9
:1016E000079CDDF828E0DDE90876023915468446D6
:1016F0004FF6FF78A4EB020955B900EB42011FB188
:10170000012320F812300231BDE8F043FFF76FBF2C
:1017100031F8024F013D4444264405EB0904AC4234
:1017200096BF33F8024B4FF6FF744444744486EA84
:10173000040E17FA8EF72CF8027B4FEA144E360C83
:101740003F0CD9E738B502290446806838BF02212A
:101750000D4618B12368B1EB930F07D96900FEF766
:10176000C4FD2368A06065F39F03236038BD38B5CE
:1017700005460C20FEF79EFD2A78037862F30003ED
:101780006FF341030446037028682368C0F39D008B
:1017900060F39F0323606B6863604000FEF78AFD7F
:1017A000A0602A68A968C2F39D02520026F00AFBD5
:1017B000204638BD10B54B0018441A4409B90846F4
:1017C00010BD30F8023D32F8024D1B1B002B02DB2E
:1017D00004D10139F2E74FF0FF30F1E70120EFE7E4
:1017E00010B5044638B18068FEF78CFD2046BDE890
:1017F0001040FEF787BD10BD38B505460C460221E6
:10180000FFF7A0FF002C2B78B4BF0122002262F367
:1018100000032B704FF00003B8BF64426B6004B943
:1018200038BDD5E90132581C686022F81340240CF9
:10183000F5E70023C0E900338360704728B10378DF
:101840009B0702D48068FEF75DBD704738B505463A
:101850000C464968FFF776FF22782B78A86862F378
:1018600000032B7063686B606268A1685200BDE87A
:10187000384026F0A7BA0A4629B90178426062F3D7
:10188000000101707047FFF7B7BF08B5FFF7D1FF40
:10189000BDE80840FFF7EFBF30B4046862F39F046F
:1018A000046004F0FC0444F0020400220470C0E967
:1018B000012130BC1946FFF7DEBFF8B59DF818507E
:1018C00017461E4604210446FFF73CFF38463146C2
:1018D0008DB1002F76F100030DDA784266EB4601F8
:1018E0000123227863F3000200232270636050EA30
:1018F000010302D1F8BD0023F3E7D4E901325D1CF6
:10190000656022F81300030C43EA01430A0C1846F1
:101910001146ECE72DE9F04110EE106A0378F20F62
:1019200062F300030370C6F30F4313F4FF4307464B
:1019300007D13B786FF300033B7000237B60BDE869
:10194000F081B3F5FF4FF4D0C6F3C753A3F17F0482
:10195000002CEEDB04D10121BDE8F041FFF74CBFC4
:10196000B3F16F0848BFA3F16008C6F31606162C42
:101970004FEA281846F4000621DCC4F11704E640BB
:101980000024254641463846FFF7DCFEC7F80480B0
:1019900025B16A000021B86826F058FA44B1BB6846
:1019A00006FA04F223F81520C4F11004E6400135CC
:1019B000A845C4D0BB6823F81560360CF7E7B3F12F
:1019C000960504F1090448BFA3F1870504F00F044C
:1019D0002D11D7E72DE9F84304468F18C2F35B02B7
:1019E0000D46511C9846089EFFF7ACFE2278002356
:1019F00068F300022270636029461FFA86FCB94230
:101A0000084602D3401BBDE8F8830278A2F13003F8
:101A1000092B01F1010105D9A2F14103192B14D8B9
:101A2000A2F13703B342EDD2D4E901E0F04681469A
:101A3000B8F1000F10D100EB4E0213B120F81E30A8
:101A40000232121A52106260D9E7A2F16103192B17
:101A5000D8D8A2F15703E5E7B9F8002002FB0C3310
:101A600029F8023B08F1FF381B0CE1E7F8B5044602
:101A700015461E46C1B1531E1E444FF0FF37E90004
:101A80000F3109092046FFF75DFE237800216FF32F
:101A90000003237061604DB9D4E9011000EB4101EE
:101AA000FFF7A5FD6060F8BD0127E8E700230F29D7
:101AB00008DC32788A401343013D9BB201F10801F2
:101AC0003E44F4D16268501C6060A068103920F870
:101AD0001230E0E738B50B780578044603F00103CF
:101AE00005F00100181A0A460BD161685368994243
:101AF00008D30AD89268A068FFF75CFEEB0748BFDE
:101B0000404238BD4FF0FF30F8E70120F6E7884249
:101B100010B5044601D0FFF799FE23786FF3000358
:101B2000237010BD884210B5044601D0FFF78EFE29
:101B300063683BB12378C3F30002C2F1010262F390
:101B40000003237010BD88421FB5044601D0FFF783
:101B50007DFE626862B901212046FFF7F3FDA268AD
:101B6000012313806360237843F00103237010E0A6
:101B70002378D9070FD56FF30003A16823700123E1
:101B8000ADF80E30009308460DF10E03FFF781FD0E
:101B9000606004B010BD511C2046FFF7D3FDD4E9AE
:101BA00001210123ADF80E30009308460DF10E031C
:101BB000FFF745FD6060D6E72DE9F0470E4649681E
:101BC0000546174601B12AB931462846BDE8F04717
:101BD000FFF73CBE02F10F0424092144FFF7B2FDD8
:101BE0007068A968B36817F00F0E04EB000707F1DF
:101BF000004808F1FF384FEA480801EB080C08BF1D
:101C00004FF0100E03EB40090146E2460022CEF1F0
:101C1000100E11BB6FF0010358430CEB000922FAC0
:101C20000EF22CF8002003FB049304F1004202336F
:101C3000013A1846520026F009F908F10208034655
:101C4000434417B133F8022D8AB16F6032782B7894
:101C500062F300032B70BDE8F08739F8023D1A43A8
:101C600022FA0EF32AF8023912040139D1E7013FB2
:101C7000E7E7F0B50E46496885B00546144601B160
:101C80002AB931462846FFF7E1FD05B0F0BDFFF760
:101C900059FDD6E901212346A868FFF7B4FC686026
:101CA00031782B7861F300032B70DB070246ECD50B
:101CB00000237768ADF80E3021099F4201D08B4296
:101CC0000FD18F42E1D9B36804F00F0433F811103B
:101CD000012303FA04F4013C214213D0ADF80E3085
:101CE00008E0B06830F8130050B101238F42ADF81E
:101CF0000E30E8D8A96801234AB90B806B60C4E7AD
:101D00000133DAE7BDF80E30002BBED0F2E70093C6
:101D100008460DF10E03FFF792FC6860B5E773B556
:101D200053680C46496899420646154606D308D8BA
:101D30009268A068FFF73EFD002802DA23462C4691
:101D40001D4623782A7861685340DB071BD4013194
:101D50003046FFF7F7FC6B680093AB68B068D4E9D6
:101D60000121FFF76CFC706023787268C3F30003F5
:101D7000002A0CBF002303F00103327863F3000252
:101D8000327002B070BD3046FFF7DCFC6B68009328
:101D9000AB68B068D4E90121FFF77BFCE3E7F7B556
:101DA00053680C46496899420546164606D324D81E
:101DB0009268A068FFF7FEFC00281EDA2346012780
:101DC00034461E462378327861685340DB0716D5C7
:101DD00001312846FFF7B6FC73680093B368A86822
:101DE000D4E90121FFF72BFC68606A682B7892B96F
:101DF00062F300032B7003B0F0BD0027E2E7284632
:101E0000FFF7A0FC73680093B368A868D4E90121C8
:101E1000FFF73FFCE8E7227802F00102002FE7D04D
:101E2000C2F10102E4E72DE9F04F15464A686B68FC
:101E30009A420E463EBF2E460B461D4633787168C9
:101E4000DB0785B0044621D42B7813F001071DD1A0
:101E5000FFF778FCD5E9011CA068B6683B469942BB
:101E60000BD100EB4101FFF7C2FB237860606FF3F9
:101E70000003237005B0BDE8F08F36F813203CF85E
:101E800013502A4020F813200133E8E7013120469F
:101E9000FFF758FC32782F78AB68009382EA07038B
:101EA000DB4303F00103C3F1000C02F001021FFA4F
:101EB0008CF1C2F1000C02911FFA8CF10191B16812
:101EC000D6F804E0A068A1F1020A696807F00107EA
:101ED000C7F10008A1EB0E011FFA88F8F44681460D
:101EE0000391BCF1000F15D100EB4E011BB1012392
:101EF00020F81E300231FFF77AFB606033782A78D1
:101F0000C3F30003C2F300021340227863F300021C
:101F10002270AFE73AF802BF019981EA0B0B0399EF
:101F20000CF1FF3C5A4401EB0C0BE3459FBF0099B9
:101F300031F802BB009188EA0B0B88BFC3465F44AF
:101F4000029902EA070B8BEA010B13FA8BF329F8CB
:101F5000023B3F0C120C1B0CC3E72DE9F84F164651
:101F60004A6873689A420D463EBF35460B461E4688
:101F70002B786968DB0704462ED4327812F001080A
:101F80002AD1FFF7DFFBD6E9013CA9686D68A76895
:101F9000ED1A4246934210D15B00194400223B44A3
:101FA000954213D103EB4503DB1B5B106360237881
:101FB0006FF300032370BDE8F88F31F812003CF88E
:101FC0001260304327F812000132E3E731F81200C3
:101FD00023F812000132E3E701312046FFF7B2FB9C
:101FE000D6E901232F7836786968A068AD6807F0D4
:101FF000010706F00106C7F10008C6F1000CA5F1C3
:10200000020E1FFA88F81FFA8CFC0D4682464FF02C
:102010000109A2EB010B45B900EB4101FFF7E7FA1B
:102020002378606043F00103C4E73EF8022F013DCE
:1020300088EA020217440BEB0502AA4296BF33F866
:10204000022B62468CEA0202164447EA0602D24399
:1020500019FA82F22AF8022B360C3F0C4FEA124989
:10206000D9E7F0B516464A6873689A4238BF0B46FE
:102070000C463CBF34461E462778337861685F4083
:1020800017F0010785B005463AD1FFF75BFB2378CF
:1020900013F0010328D1D6E90117A2686468A86883
:1020A000641A994210D149000A4400230144A34212
:1020B00014D101EB4301FFF79AFA2B7868606FF3B4
:1020C00000032B7005B0F0BD32F8136037F813C071
:1020D00086EA0C0620F813600133E2E732F8136059
:1020E00021F813600133E2E7CDE9027701977368C5
:1020F0000093B368A868D4E90121FFF7EFFADCE7A1
:102100000131FFF71FFB3378A868DB4303F00103BD
:1021100003932378DB4303F001030293012301932C
:1021200073680093B368D4E90121FFF7D7FA2B78DD
:10213000686043F00103C4E72DE9F04F4B6885B0B8
:1021400004460E4615460BB1536843B923786FF326
:10215000000323700023636005B0BDE8F08F814267
:1021600034D1FFF704FBA5420646074600D10546D9
